:020000040800F2
:100000009821002029020008DB1C0008E5180008E0
:10001000811B0008BB0600088722000800000000C2
:100020000000000000000000000000009101000836
:10003000BD06000800000000D5010008391E0008B8
:10004000430200084302000843020008430200087C
:10005000430200084302000843020008430200086C
:10006000430200084302000843020008430200085C
:10007000430200084302000843020008430200084C
:10008000430200084302000843020008430200083C
:10009000430200084302000843020008430200082C
:1000A000430200084302000843020008430200081C
:1000B00043020008B51E0008C11E000843020008E4
:1000C00043020008430200084302000843020008FC
:1000D00043020008430200084302000843020008EC
:1000E00043020008430200084302000800F002F83F
:1000F00000F03FF80AA090E8000C82448344AAF183
:100100000107DA4501D100F034F8AFF2090EBAE880
:100110000F0013F0010F18BFFB1A43F0010318473B
:10012000B43D0000D43D0000103A24BF78C878C127
:10013000FAD8520724BF30C830C144BF04680C60ED
:10014000704700000023002400250026103A28BF35
:1001500078C1FBD8520728BF30C148BF0B60704739
:10016000642900F09780002070471FB51FBD10B5AF
:1001700010BD00F068FA1146FFF7F7FF02F094F89F
:1001800000F086FA03B4FFF7F2FF03BC00F08EFA2A
:10019000224B19680868B0E8F00F80F30988BFF3B4
:1001A0006F8F4FF0000080F311884EF00D0E7047F6
:1001B0000000000006480068006880F3088862B606
:1001C00061B6BFF34F8FBFF36F8F00DF00BF00BF7B
:1001D00008ED00E0EFF30980BFF36F8F0F4B1A6853
:1001E00020E9F00F106008B54FF0500080F311883F
:1001F000BFF34F8FBFF36F8F02F0D2FF4FF00000BD
:1002000080F31188BDE8084019680868B0E8F00F6D
:1002100080F30988BFF36F8F704700BF2000002074
:10022000EFF3058070470000094880470948004700
:10023000FEE7FEE7FEE7FEE7FEE7FEE7FEE7FEE796
:10024000FEE7FEE704480549054A064B70470000F3
:10025000B31E0008ED000008981B00209821002024
:10026000981D0020981D00200FB41CB5084B06AA4D
:100270007B4469460090059800F079F90446002017
:10028000694600F087F920461CBC5DF814FB0000AD
:10029000210300002DE9F04106460024106875296D
:1002A000314616A510D0AFF30080002802DA404294
:1002B00013A507E031688A0701D512A502E04907B6
:1002C00004D511A5012401E0AFF3008000210A222A
:1002D00006F1240709E0B0FBF2FCB0FBF2F302FBED
:1002E0001C00303078541846491C0028F3D12346AE
:1002F0002A463046BDE8F04100F0DBB800000000BF
:100300002D0000002B000000200000002DE9F0412E
:100310000F460546002028622846E968884770B3E2
:10032000252805D0D5E901219047286A401CF2E72D
:10033000E9682846002688476C2804460AD0682CBD
:1003400008D04C2C35D06A2C31D0742C31D07A2C7A
:100350002FD016E0E968064628468847B042044692
:1003600008D16C2E23D04FF480662846E968884770
:10037000044606E06C2E03D04FF4807601E01EE0C8
:100380004026E4B1A4F14100192802D8203446F4F3
:1003900000663A46214628462E60FFF7E1FE60B12E
:1003A000012808D0FF1D27F007070837B4E780268B
:1003B000DBE70026D9E73F1DAEE72046B2E7286A13
:1003C000BDE8F081032A40F2308010F0030C00F009
:1003D000158011F8013BBCF1020F624498BF11F87F
:1003E00001CB00F8013B38BF11F8013BA2F1040238
:1003F00098BF00F801CB38BF00F8013B11F00303B0
:1004000000F0CD80083AC0F0088051F8043B083A6B
:1004100051F804CBA0E80810F5E7121D5CBF51F8B5
:10042000043B40F8043BAFF30080D20724BF11F82F
:10043000013B11F801CB48BF11F8012B24BF00F894
:10044000013B00F801CB48BF00F8012B704702F0D8
:10045000FF0343EA032242EA024200F0D4B84FF01D
:10046000000200B5134694469646203922BFA0E804
:100470000C50A0E80C50B1F12001BFF4F7AF090710
:1004800028BFA0E80C5048BF0CC05DF804EB890001
:1004900028BF40F8042B08BF704748BF20F8022B44
:1004A00011F0804F18BF00F8012B7047704770475C
:1004B00070472DE9F0470D4699469246044600F1F3
:1004C00024080168880604D5E06921F01001216044
:1004D00000E00120A84201DD471B00E00027A169E0
:1004E0007A1902EB0900081AA0612078C00602D42C
:1004F0002046AFF30080002608E0D4E901211AF875
:1005000006009047206A401C761C20624E45F4DBB2
:100510002078C0060AD52046AFF3008006E0D4E973
:10052000012130209047206A401C2062381EA7F12C
:100530000107F4DC07E0D4E9012118F80500904731
:10054000206A401C2062281EA5F10105F3DC20462C
:10055000AFF300802078000602D50220BDE8F087C6
:100560000120FBE701694A1C02610878704700B569
:100570008FB0CDE901310021059105497944CDE9DC
:10058000031011466846FFF7C1FE0FB000BD000022
:10059000E5FFFFFF0A6802F8010B0A60704710B51B
:1005A000203AC0F00B80B1E81850203AA0E818506B
:1005B000B1E81850A0E81850BFF4F5AF5FEA027C2C
:1005C00024BFB1E81850A0E8185044BF18C918C09B
:1005D000BDE810405FEA827C24BF51F8043B40F83C
:1005E000043B08BF7047D20728BF31F8023B48BF21
:1005F00011F8012B28BF20F8023B48BF00F8012B5F
:1006000070474FF000020429C0F0128010F0030C74
:100610003FF427AFCCF1040CBCF1020F18BF00F877
:10062000012BA8BF20F8022BA1EB0C01FFF719BF8B
:100630005FEAC17C24BF00F8012B00F8012B48BF02
:1006400000F8012B7047754600F02CF8AE46050007
:100650006946534620F00700854618B020B5FFF7DD
:10066000F1FDBDE820404FF000064FF000074FF0CD
:1006700000084FF0000B21F00701AC46ACE8C009C0
:10068000ACE8C009ACE8C009ACE8C0098D467047C9
:1006900010B50446AFF300802046BDE81040FFF7D8
:1006A00071BD000000487047381B00200149182028
:1006B000ABBEFEE7260002007047FEE7704772B649
:1006C000FEE700002DE9F84FDFF8B8910024A9F10A
:1006D000040B23460F2709F1040AABF1040EC9E00D
:1006E0000125A5402A40AA427DD1674ED1F804C019
:1006F000ACEB0608B44532D014DCBCF1030F3AD0A1
:1007000009DCBCF1000F2AD0BCF1010F1CD0BCF1F8
:10071000020F31D11DE0BCF1110F17D0BCF1120F47
:100720002AD119E0B8F5881F19D006DCB8F5803F4A
:1007300015D0B8F5801F1FD111E0B8F5001F0ED0FD
:10074000B8F5041F18D10AE0CB6815E0CB681B1D73
:1007500012E0CB6808330FE0CB680C330CE08B68F9
:100760002BB1012B4FF0080303D0456104E00423B3
:1007700002E0056100E00023FF2A01D8064601E0FF
:1007800000F104064FEA840501D9A5F12005D6F849
:10079000008007FA05FC28EA0C0803FA05F548EA88
:1007A0000508C6F800804D68ED0062D5374DAE698A
:1007B00046F00106AE61AD6924F0030605F00105BF
:1007C0000095334D06EB050CDCF80850A607360FF4
:1007D00007FA06F825EA0805DFF8B880404503D196
:1007E0004FF0000817E044E0DFF8AC80404502D14C
:1007F0004FF001080FE0DFF8A480404502D14FF030
:10080000020808E0DFF89880404502D14FF0030865
:1008100001E04FF0040808FA06F848EA0508CCF8A9
:1008200008804D68D9F80060ED024D4601D51643A9
:1008300000E096432E604D68DAF80060AD02554640
:1008400001D5164300E096432E604D68DBF800604A
:10085000AD035D4601D5164300E096432E604D681A
:10086000DEF80060ED03754601D5164300E09643BF
:100870002E60641C0D682A46E5407FF431AFBDE868
:10088000F88F000008040140000011100010024021
:100890000000014000080140000C01400010014030
:1008A00000140140C26821EA02030A4043EA0241FF
:1008B000016170470AB1016170470904FBE700005C
:1008C00001488068704700001000002002488168DD
:1008D000027811448160704710000020074810B56D
:1008E000016841F010010160032000F0A7F80F201B
:1008F00000F006F800F050F8002010BD0020024083
:1009000030B505461F4887B0C16941F00401C16197
:10091000C06906A900F00400009001A800F03EF9AB
:100920000498B0B100F05AF940001749174AB0FBDB
:10093000F1F11748491E0260416040F2E7320021A0
:10094000C0E903218160816100F08AFB040003D0CB
:1009500015E000F043F9E8E70D4800F0CDFB040096
:100960000DD11E2000F03CF8102D07D200222946A0
:100970001E2000F043F80748056000E0012407B09E
:10098000204630BD0010024040420F0000080040E9
:100990001C020020140000200F4808B5816941F0B6
:1009A00001018161816901F001010091C16941F09A
:1009B0008051C161C069002200F0805000900F2179
:1009C000901E00F01BF80548416821F0E06141F0FD
:1009D0000071416008BD00000010024000000140AD
:1009E000002809DB00F01F0201219140400980002E
:1009F00000F1E020C0F8001170470000F0B40E4B89
:100A00001B680C46C3F30223C3F10705042D00D96C
:100A10000425191D072901D2002300E0DB1E012651
:100A200006FA05F1491E214099409E40761E164067
:100A30003143F0BC01F028BC0CED00E0064900F0A9
:100A4000070208684FF6FF03184040EA0220034AF5
:100A500010430860704700000CED00E00000FA054C
:100A6000704700002DE9F0470F46050061D0434E66
:100A7000306800F00700B84209D2306820F0070063
:100A800038433060306800F00700B84251D1286820
:100A90003B4C810712D5400703D5606840F4E06005
:100AA00060602878000703D5606840F4605060609B
:100AB0006068A96820F0F000084360602878C007EB
:100AC00028D06868012810D02168022810D0890732
:100AD00000292EDA616821F0030101436160FFF70C
:100AE000EFFE804641F288390DE021688903EFE787
:100AF0008901EDE7FFF7E4FEA0EB0801494502D9C3
:100B00000320BDE8F0876068696800F00C00B0EB76
:100B1000810FEFD1306800F00700B8420BD9306880
:100B200020F0070038433060306800F00700B8421A
:100B300001D00120E5E72878400705D56068E9681D
:100B400020F4E060084360602878000706D56068FC
:100B5000296920F4605040EAC100606000F05EF84E
:100B60006168084AC1F30311515CC8400649086036
:100B700006480068FFF7C4FE0020C2E700200240DC
:100B8000001002409E3E00081C00002014000020BF
:100B900001490120C8647047000042420F220260F0
:100BA0000C4A536803F003034360536803F0F003F7
:100BB0008360536803F4E063C36052684FF4E063FA
:100BC00003EAD20202610448006800F007000860EE
:100BD0007047000000100240002002400448054910
:100BE00000684968044AC1F30221515CC84070475B
:100BF0001C00002000100240AE3E000804480549D9
:100C000000684968044AC1F3C221515CC84070477A
:100C10001C00002000100240AE3E00080E4A516841
:100C20000E4801F00C03042B11D0082B0FD10C48F7
:100C3000C1F38343C903C05C0AD55168084AC1F3B4
:100C40004041921E515C054A5043B0FBF1F07047A1
:100C500004494843704700000010024000127A0027
:100C60008E3E000800093D0010B5044CA068000647
:100C700003D5FFF7F5FE8020A07210BD00100240E2
:100C80002DE9F84F040070D02078C04DC00749D03E
:100C90006868C0F38100012807D06868C0F381004C
:100CA000022809D16868C00306D52868800339D5B1
:100CB00060680028E7D035E06068B0F5803F0BD071
:100CC00010B1B0F5A02F11D0286820F48030286032
:100CD000286820F4802002E0286840F480302860F2
:100CE000606890B1FFF7ECFD06460AE0286840F422
:100CF00080202860F0E700BFFFF7E2FD801B64283A
:100D000073D828688003F7D50CE0FFF7D9FD0646B5
:100D100005E000BFFFF7D4FD801B6428F0D82868E9
:100D20008003F7D420789A4E80074FF001094FF0E6
:100D3000000839D5686810F00C0F07D06868C0F358
:100D40008100022809D16868C00306D4286880079A
:100D500014D52069012808D110E02069B0B1C6F887
:100D60000090FFF7ADFD074605E00AE1FFF7A8FD9B
:100D7000C01B0228C4D828688007F7D52868616995
:100D800020F0F80040EAC10028600DE0C6F80080BD
:100D9000FFF796FD074604E0FFF792FDC01B02280F
:100DA00023D828688007F7D4207800072CD5794805
:100DB000A169D9B1C0F80090FFF782FD074604E0B1
:100DC000FFF77EFDC01B02280FD8686A8007F7D5A1
:100DD00071484FF4FA510068B0FBF1F0009000BF89
:100DE0000098411E0091FAD20EE080E0C0F8008029
:100DF000FFF766FD074604E0FFF762FDC01B02280F
:100E000075D8686A8007F7D42078400760D5E8690C
:100E10000027C00008D4E86940F08050E861E86924
:100E2000012700F0805000905C480168C90513D488
:100E30000168834641F480710160FFF741FD8246FD
:100E400006E000BFFFF73CFDA0EB0A0064284ED887
:100E5000DBF80000C005F5D5E06801280AD008B12C
:100E6000052813D0286A20F001002862286A20F0A3
:100E7000040002E0286A40F001002862E06841F2C4
:100E8000883B98B1FFF71CFD82460BE0286A40F0D2
:100E900004002862EEE700BFFFF712FDA0EB0A0195
:100EA00059455AD8286A8007F6D50CE0FFF708FDA7
:100EB000824605E0FFF704FDA0EB0A0159454CD836
:100EC000286A8007F6D41FB1E86920F08050E861F5
:100ED000E06988B36968C1F38101022944D002281E
:100EE000C6F8608004D0FFF7EBFC044638E034E03D
:100EF000FFF7E6FC074604E0FFF7E2FCC01B022810
:100F00002BD828688001F7D4206AB0F5803F05D13E
:100F10006868A16820F4003008436860D4E90801DB
:100F20000843696821F4741108436860C6F860904A
:100F3000FFF7C6FC044606E025E000BFFFF7C0FC53
:100F4000001B022809D828688001F7D51BE000BFE4
:100F5000FFF7B6FC001B022802D90320BDE8F88F7A
:100F600028688001F4D40EE00128F7D06868226A6E
:100F700000F48031914204D1616A00F4701088421B
:100F800001D00120EAE70020E8E70000001002405D
:100F900000004242800442421C00002000700040D9
:100FA0007047704710B590F83C20012A22D00122EA
:100FB00080F83C20CA688C6822F4407222434C6856
:100FC00022F4806222430C6822F4006222430C69FE
:100FD00022F4805222434C6922F400522243C96910
:100FE000002322F480420A4301684A6480F83C30BE
:100FF000002010BD022010BD70B590F83C20012AE1
:1010000026D0012480F83C40022280F83D2003686D
:101010005A689D6822F070060A6832435A600D4B88
:1010200002689A4208D0B2F1804F05D00A4B9A422A
:1010300002D00A4B9A4204D1496825F08003194333
:10104000916080F83D40002180F83C10084670BD5A
:10105000022070BD002C0140000400400008004048
:1010600010B5040003D094F83D0010B107E0012052
:1010700010BD002084F83C00204600F01FF802203C
:1010800084F83D00211D206800F020FF012084F835
:10109000460084F83E0084F83F0084F8400084F85D
:1010A000410084F8420084F8430084F8440084F846
:1010B000450084F83D00002010BD000008B5006820
:1010C0000B49884212D10B48C16941F00201C1614C
:1010D000C069002200F00200009005211D20FFF7EA
:1010E0008DFCBDE808401D20FFF77ABC08BD00005C
:1010F000000400400010024090F83D10012901D08A
:1011000001207047022180F83D100168CA6842F052
:101110000102CA6000680B49884208D0B0F1804FD4
:1011200005D00949884202D00849884204D1816823
:1011300001F00701062903D0016841F001010160B7
:1011400000207047002C01400004004000080040CF
:1011500070B5044690F83C000025012817D0012600
:1011600084F83C60022084F83D002068826822F008
:10117000770222F47F4282600868502838D00DDC64
:1011800020284FD005DC90B3102811D14AE002206E
:1011900070BD302846D040280AD13BE060282FD0CF
:1011A00070280DD0B0F5805F03D0B0F5005F12D08D
:1011B000012584F83D60002084F83C00284670BD7D
:1011C000CB68D1E90121206800F0C9FE2068816860
:1011D00041F0770109E0CB68D1E90121206800F0F6
:1011E000BEFE2068816841F480418160E1E719E03A
:1011F000CA684968206800F067FF5021206806E04F
:10120000CA684968206800F070FF6021206800F01B
:10121000B0FECEE7CA684968206800F055FF40215B
:101220002068F4E7226801461046F0E72DE9F04116
:101230000D46040003D094F83D0018B108E00120E9
:10124000BDE8F081002084F83C00204600F040F822
:10125000022084F83D002068816844F2070291432F
:101260008160211D206800F031FE2268906891693C
:10127000166A2B68AF69034340F20330814341EAA9
:101280000721A868EF6908434FF6FC418843E968E5
:1012900040EA0720014328692F6A000140EA07302D
:1012A000084369686D6926F0220646EA0515294358
:1012B00093602268906154F8460B0162012004F8A3
:1012C0001F09E0752076E0762077A0750020B7E74B
:1012D00000B585B000210091019102910391006851
:1012E000B0F1804F16D10C48C16941F00101C161D4
:1012F000C16901F001010491816941F0040181613A
:101300008069694600F004000490032000900348BF
:10131000FFF7D8F905B000BD0010024000080140F9
:1013200070B590F83E60044690F83F5090F8423017
:1013300090F84320022021B104290ED0012E1BD1A8
:1013400014E0012E18D1012B16D184F83E0084F848
:10135000420001220021206820E0012D0CD1012A49
:101360000AD184F83F0084F8430014E0012D03D132
:10137000012B01D1012A01D0012070BD84F83E006B
:1013800084F83F0084F8420084F8430001220021E1
:10139000206800F0D7FD01220421206800F0D2FD72
:1013A0002068016841F001010160002070BD7047B4
:1013B0002DE9F04104460068C66805694FF0000752
:1013C000A90713D5B10711D5F91E016101202077B6
:1013D000206880698007204602D0FFF7E8FF04E01C
:1013E00000F0A4F8204600F049F92777680716D5E1
:1013F000700714D521686FF004000861022020777F
:101400002068806910F4407F204602D0FFF7CFFFAC
:1014100004E000F08BF8204600F030F92777280729
:1014200015D5300713D521686FF008000861042036
:1014300020772068C0698007204602D0FFF7B7FFF9
:1014400004E000F073F8204600F018F92777E8066A
:1014500016D5F00614D521686FF010000861082039
:1014600020772068C06910F4407F204602D0FFF743
:101470009EFF04E000F05AF8204600F0FFF82777BE
:10148000E80708D0F00706D021686FF00100086176
:10149000204600F043F9280608D5300606D5216815
:1014A0006FF0800008612046FFF77AFD680608D5D6
:1014B000700606D521686FF040000861204600F0F4
:1014C00055F9A8060AD5B00608D521686FF02000A6
:1014D00008612046BDE8F041FFF763BDBDE8F0813B
:1014E00000B585B00021009101910291039100683F
:1014F0000B49884212D10B48816941F00401816196
:101500008069694600F0040004904FF480700090F8
:101510000220019003900448FFF7D4F805B000BD05
:10152000002C01400010024000080140704770B5D7
:10153000044690F83C0000260D4601280FD00120FB
:1015400084F83C006AB1042A1DD0082A2FD00C2A46
:101550003FD00126002084F83C00304670BD0220B8
:1015600070BD206800F00EFD2068816941F008011F
:1015700081612068816921F00401816120688169AD
:101580002A69114311E0206800F024FD2068816978
:1015900041F4006181612068816921F48061816189
:1015A000206881692A6941EA02218161D2E72068C5
:1015B00000F03CFD2068C16941F00801C16120686C
:1015C000C16921F00401C1612068C1692A69114320
:1015D00011E0206800F056FD2068C16941F4006107
:1015E000C1612068C16921F48061C1612068C1695D
:1015F0002A6941EA0221C161ACE710B5040003D0B9
:1016000094F83D0010B107E0012010BD002084F8DF
:101610003C00204600F01EF8022084F83D00211D09
:10162000206800F053FC012084F8460084F83E0056
:1016300084F83F0084F8400084F8410084F84200B8
:1016400084F8430084F8440084F8450084F83D00A1
:10165000002010BD08B500680649884208D1064838
:10166000816941F400618161806900F4006000904B
:1016700008BD0000002C014000100240704700002F
:1016800010B50446022249B104290ED0082913D00E
:1016900094F84100012816D0012010BD94F83E00B6
:1016A0000128F9D184F83E200FE094F83F0001288A
:1016B000F2D184F83F2008E094F840000128EBD1F3
:1016C00084F8402001E084F841200122206800F0E5
:1016D00039FC0F492068884203D1426C42F4004231
:1016E00042642068884208D0B0F1804F05D0094993
:1016F000884202D00849884204D1816801F007017C
:10170000062903D0016841F001010160002010BDED
:10171000002C0140000400400008004010B50446C1
:1017200000680D49884201D1FFF7D0F80B492068C5
:10173000884210D10A480068406A0A494A88121A49
:101740000A80488008480068002804D0BDE810409E
:10175000012100F027BE10BD000800400004004039
:10176000440100200000002008000020704770B5F0
:10177000040004D094F84100002510B106E00120D7
:1017800070BD84F84050204600F024F8242084F8EE
:1017900041002068C16821F40051C160204600F07A
:1017A000DDFC2068016921F49041016120684169F4
:1017B00021F02A0141612068C16841F40051C160F3
:1017C0006564202084F8410084F8420065630020AD
:1017D00070BD000030B585B00024009401940294DF
:1017E000039400681449884224D11448816941F463
:1017F00080418161816901F480410491816941F0F6
:101800000401816180690E4D00F0040004904FF4E2
:101810000070009002200190032003906946284642
:10182000FEF750FF2815CDE90004694628460294CA
:10183000FEF748FF05B030BD0038014000100240FF
:10184000000801402DE9F843044690F8410098460D
:1018500016460D46202802D00220BDE8F88385B147
:101860007EB100206064212084F84100FFF728F851
:10187000A6848146E684A0682027B0F5805F02D068
:1018800003E00120E9E7206910B12E4600250EE0B3
:1018900000260CE08021204600F0BCFCA8B9C6B1AF
:1018A00016F8010B21684860E08C401EE084E08C53
:1018B0004B464FF00002CDF800800028EAD14FF0EF
:1018C0004001204600F0A6FC40B184F8417003209E
:1018D000C3E735F8020BC0F30800E3E784F8417072
:1018E0000020BAE7FEE7000010B50B4A00210B48C4
:1018F00000F0DEFD0A4C084A00212060243209482D
:1019000000F0D6FD044A606048320021064800F02D
:10191000CFFDA06010BD0000203E0008E11C0008C3
:1019200004000020011D0008551D00082DE9F043AA
:1019300085B00024254800940194029403948169A1
:1019400041F010018161816901F010010491816908
:1019500041F020018161816901F0200104918169D8
:1019600041F004018161816901F004010491816900
:1019700041F0080181618069012200F00800DFF870
:1019800050805503049029464046FEF793FFDFF848
:10199000449040F20347012239464846FEF78AFF49
:1019A0000095022601250396CDE90154694640467B
:1019B000FEF788FE00970396CDE901546946484634
:1019C000FEF780FE05B0BDE8F08300000010024085
:1019D00000100140000C014010B592B000240F949B
:1019E0001C2108A81094FEF73AFD20216846FEF756
:1019F00036FD20481E4901604721C0E9011442F22A
:101A00000F71C0E9031444618461FFF7F6FD08B16A
:101A1000FEF755FE0F940FA916481094FFF7ECFA45
:101A200008B1FEF74CFE6020CDE908040A940B943F
:101A30000C940D94002208A90E480E94FFF777FD30
:101A400008B1FEF73CFE00944FF40050CDE904408D
:101A5000029401940394694606480794FFF7A2FA9A
:101A600008B1FEF72CFE0348FFF73AFD12B010BD97
:101A7000002C0140FC00002010B58CB024216846E9
:101A8000FEF7EDFC0024154809944FF080410A94BC
:101A9000C0E900144FF6FF71C0E90241046184619E
:101AA0000320CDE900040120CDE902040494CDE92E
:101AB00005400794694609480894FFF7B7FB08B149
:101AC000FEF7FDFD099409A904480A94FFF794FA6A
:101AD000002801D0FEF7F3FD0CB010BD440100203A
:101AE00010B586B000241748009401940294039422
:101AF000049413490594016040F2CF21C0E9011418
:101B000040F2E731C0E903148461FFF7A9FA08B194
:101B1000FEF7D5FD4FF48050009069460948FFF765
:101B200017FB08B1FEF7CBFD049404A90548059402
:101B3000FFF762FA002801D0FEF7C1FD06B010BD24
:101B4000000400408C0100200C4810B50A490160D7
:101B50004FF4E1314160002181600C22C160C0E995
:101B600004128161C161FFF702FE002803D0BDE8C5
:101B70001040FEF7A4BD10BD00380140D401002084
:101B8000FEE72DE9F05F0DF12809044699E8E15DD3
:101B90002160C4E90123A0812561A682A761A4F880
:101BA0001C80A4F81EA0A4F820B0A4F822C084F8D9
:101BB00024E0139884F8250008461146FFF760FDDD
:101BC000A069002805D0A18BBDE8F05F0122FEF7D7
:101BD00071BEBDE8F09F70B50446B0F920008842A0
:101BE00000DA014642428A4200DD11B294F8242014
:101BF0000AB1494209B2002904DD628C8A4208DD3B
:101C0000B4F92210002904DA628C52428A4200DAC6
:101C100011B2002901DAC1F10001E28B01FB02F1EE
:101C200091FBF0F085B21BDDA1894FF00102A068A5
:101C3000FEF740FEA18A002220691AE020680068B1
:101C4000456370BD042805D008282068006805D0C9
:101C5000056470BD20680068856370BDC56370BD94
:101C60000DDAA1890022A068FEF724FEA18A0122D4
:101C70002069FEF71FFE60680028E3D1DEE72046FA
:101C8000BDE87040AFF3008010B504460021D4E9F0
:101C900000020068A2B1042A14D0082A14D00164FA
:101CA00094F82500A1890028A0680FD00122FEF732
:101CB00001FEA18A20690122BDE81040FEF7FABDAD
:101CC0004163EDE78163EBE7C163E9E70022FEF7DB
:101CD000F1FDA18A00222069EEE7FEF7C5FFFEE7CD
:101CE000064D4FF400544FF4FA7621462846FEF78D
:101CF000D9FD304600F01AFBF7E700000010014064
:101D00004FF0FF340A4D0B4E22460021012000F017
:101D100083FBB5F900303068426A07A10B48FEF733
:101D2000A3FA82B2234609490948FFF78BFDEBE786
:101D30000000002044010020636E743D256C642C7B
:101D400073706565643D25640D0A0000C8000020BD
:101D5000D4010020354E4FF47A74DFF8D4B04FF43C
:101D6000005567006FF031086FF063096FF0C70A24
:101D700029463046FEF796FD21462E48FFF72BFFF9
:101D8000384600F0D3FA29463046FEF78BFD002195
:101D90002848FFF720FF204600F0C8FA29463046C1
:101DA000FEF780FD41462348FFF715FF384600F057
:101DB000BDFA29463046FEF775FD49461D48FFF736
:101DC0000AFF384600F0B2FA29463046FEF76AFDAF
:101DD00051461848FFF7FFFE384600F0A7FA29469B
:101DE0003046FEF75FFD59461248FFF7F4FE3846CD
:101DF00000F09CFA29463046FEF754FD0C490D4888
:101E00006439FFF7E8FE384600F090FA294630467C
:101E1000FEF748FD06490748C839FFF7DCFE38469B
:101E200000F084FA204600F081FAA1E7001001409A
:101E3000D4FEFFFFA000002010B54FF0E0200069A5
:101E400001F0F2FD012803D0BDE8104001F02EBAE8
:101E500010BD30B58FB028216846FEF700FB142175
:101E60000AA8FEF7FCFA01210804CDE900100024BD
:101E7000029402250491CDE907504FF4E010099037
:101E80006846FEF7FDFE08B172B6FEE70F20CDE909
:101E90000A054FF48060CDE90C4002210AA80E9497
:101EA000FEF7E0FD08B172B6FEE7FEF771FE0FB077
:101EB00030BD70470148FFF77BBA00008C0100205D
:101EC0000148FFF775BA00001C020020F0B5026857
:101ED000194B1A4C1A4D4FF08047984205D0B84222
:101EE00003D0A04201D0A84203D122F070064A6874
:101EF0003243984205D0B84203D0A04201D0A84254
:101F000003D122F44074CA6822434C6922F0800253
:101F1000224302608A68C2620A688262984201D1E2
:101F200009690163012141610169C90703D00169A0
:101F300021F001010161F0BD002C014000040040CE
:101F40000008004010B501F01F030121046A994008
:101F50008C430462016A9A401143016210BD10B5BE
:101F6000846842EA032224F47F440A4322438260C5
:101F700010BD826822F070020A4342F007018160BE
:101F80007047000030B5036A026A22F00102026263
:101F90004268846924F073050C682C4323F0020521
:101FA0008B682B430A4DA8420BD123F00805CB6860
:101FB00022F440722B434D6923F0040315438A69D0
:101FC0002A434260846149684163036230BD000076
:101FD000002C014030B5026A036A23F0100303624B
:101FE000436884690D6824F4E64444EA05248D6856
:101FF00022F0200242EA05120B4DA8420ED1CD6814
:1020000022F0800242EA05124D6923F4406343EA5C
:1020100085038D6922F0400243EA850343608461B1
:1020200049688163026230BD002C014030B5036A0B
:10203000026A22F4807202624268C46923F4007367
:1020400024F073050C682C438D6843EA05230C4D7E
:10205000A8420ED1CD6823F4006343EA05234D69FD
:1020600022F4405242EA05128D6923F4806342EA69
:1020700005124260C4614968C163036230BD00005B
:10208000002C014030B5046A026A22F480520262D8
:102090004268C3690D6823F4E64343EA05238D686B
:1020A00024F4005444EA0534064DA84204D14D6995
:1020B00022F4804242EA85124260C36149680164A9
:1020C000046230BD002C014010B5036A046A24F09C
:1020D00001040462846924F0F00444EA021423F049
:1020E0000A020A438461026210BD10B5036A046AE1
:1020F00024F010040462846923F0A00324F47044E3
:1021000044EA023243EA01118261016210BD0168B2
:102110000C3151E8002F22F4907241E80023002B8B
:10212000F5D10168143151E8002F22F0010241E895
:102130000023002BF5D1016B012909D101680C3175
:1021400051E8002F22F0100241E80023002BF5D1C6
:10215000202180F8421000210163704770B50446C9
:1021600000680169E26821F440511143016121696D
:10217000A0680843616908432168CA6841F20C639A
:102180009A430243CA6020684169A26921F4407100
:10219000114341611E492068884202D1FEF72EFD9D
:1021A00001E0FEF71BFD00EBC00101EB00126068CF
:1021B00064218000B2FBF0F3B3FBF1F36FF018067B
:1021C0007343B2FBF0F5B2FBF0F605EB8305322367
:1021D00003EB0515B5FBF1F5B6FBF1F605F0F005DF
:1021E00005EB0615B2FBF0F6B2FBF0F0B0FBF1F038
:1021F0006FF01802504306EB800003EB0010B0FBB9
:10220000F1F0216800F00F002844886070BD0000E4
:10221000003801402DE9F843984617460D4604461C
:10222000089E24E0701C22D0FEF74AFBA0EB0800B9
:10223000B0421AD8CEB12068C168490717D5802DA1
:1022400015D0402D13D00168C94309070FD4016888
:102250000025406800902046FFF759FF0820606481
:1022600084F840500120BDE8F8830320FBE7206894
:10227000006835EA000004D00020B842D2D0002027
:10228000F1E70120F9E7FEE70907090E002804DB62
:1022900000F1E02080F80014704700F00F0000F11A
:1022A000E02080F8141D70478AB0FEF717FBFFF797
:1022B000D0FDFFF73BFBFFF78FFBFFF7DDFBFFF7E1
:1022C0000FFCFFF741FC3C211348FFF729F80021E0
:1022D0001248FFF7D5F91248FEF70EFF4FF47A7255
:1022E000012006923221CDE9071042F20F710591CB
:1022F00082020C4B0990CDE9033202248DE81900CB
:10230000002206490848FFF73CFC00F01DF8FFF7E3
:10231000EBFA00F02BF8FEE744010020FC0000205F
:102320008C010020000C0140A000002010B5EFF34C
:10233000058111B16FF0050403E0002408B100F03D
:102340007BFE204610BD0000EFF3058010B16FF05A
:10235000050070470448016811B14FF0FF30704725
:1023600001210160002070477000002010B5EFF3DC
:10237000058010B16FF0050010BD08480168012903
:1023800002D04FF0FF3010BD054A002182F8141D25
:102390000221016000F0B8FE002010BD7000002096
:1023A0000BE000E03EB5040001D0002903DA6FF035
:1023B000030001902BE04FF0FF300190EFF3058018
:1023C000D0B1002502A800902B460122029520469C
:1023D00001F0A8FA002201AB11462046009501F059
:1023E000A1FA029898B10B494FF080500860BFF3F2
:1023F0004F8FBFF36F8F0AE000230122204601F0C8
:1024000021FA002201AB1146204601F01BFA019887
:102410003EBD000004ED00E02DE9F84F8946054679
:102420004FEA0206EFF3058010B16FF005041EE0DD
:10243000002D02DA6FF0030419E05FEA897002D51B
:102440004FF0000800E0A8460024924601F0FAFA96
:102450008346E71E53466A464146002001F05CFB76
:10246000012807D00EB36FF001040028F2D12046F6
:10247000BDE8F88F00982C4004435FEAC9700BD088
:1024800035EA0400F3D056B101F0DCFAA0EB0B0002
:10249000504506D9002006E02542E8D1F3E73C4646
:1024A000E5E7AAEB00008246D4E73C46DDE7000002
:1024B0002DE9FF414FEA01034FF00005EFF30581DD
:1024C000039549BB40B38027182100244AB31668FE
:1024D00006B1344696691EB13146761E382E02D2B8
:1024E0001679F60703D0002004B0BDE8F0815669E4
:1024F00006B1B708D2F808C0BCF1000F0DD0D568FE
:102500005C2D18D312693AB136B18DE806103A46FF
:10251000214601F06CF903900DE0D6685EB91269AE
:102520004AB903AACDE90012BAB2214601F032F944
:10253000012800D003950398D6E700002DE9F0416B
:10254000134C0F460546E6682068001D00F040FC6D
:10255000681C07D137B12168BDE8F0410D48091D5D
:1025600000F086BC20683544B5424560216805D23C
:10257000A06BBDE8F041091D00F062BC606B091D55
:1025800000F05EFCA06A854200D2A562BDE8F08141
:1025900020000020540700202DE9F041054600F0FE
:1025A00073FC2D4CA068401CA06020682B4F10B11C
:1025B000606930B32BE02560A068012827D1002690
:1025C00006EB860007EB800000F02CFC761C382E12
:1025D000F6D3234800F026FC2148143000F022FCFA
:1025E0001F48283000F01EFC1D483C3000F01AFC4B
:1025F0001B48503000F016FC194860631430A0638B
:1026000005E02068E96AC06A884200D82560606AEF
:10261000401C60626864E86A2169884200D92061D0
:1026200000EB800007EB8000291D00F021FC00F08A
:102630004BFC606900280CD02068E96AC06A8842B7
:1026400007D208494FF080500860BFF34F8FBFF3A7
:102650006F8FBDE8F081000020000020A402002060
:102660000407002004ED00E038B500F00DFC104C2C
:102670002068C8B90F4800F0D5FB0E48143000F0B0
:10268000D1FB0C48E060143020610A4B0020F03B85
:10269000009003F1500210210A2000F01DFE20607E
:1026A00010B105A100F092FCBDE8384000F00CBC70
:1026B0005C00002058080020546D7251000000009A
:1026C00030B4026C0B46002A0BD0C1681144C160C3
:1026D0008468A14201D30168C16030BC1846FDF78F
:1026E00071BE30BC70472DE9F041856B174604463A
:1026F0000026026C82B1C7B1E068FDF763FEE168B5
:10270000206C091AE1602268914202D2A168081A7D
:10271000E060022F16D017E02068A8B9A06801F089
:1027200041FA06460020A0600EE06068FDF74AFE10
:10273000216C606808446060A168884204D3206806
:10274000606001E005B16D1E6D1CA5633046BDE8FB
:10275000F08110B5044690F8590058B101280CD00A
:1027600002280FD0502080F31188BFF34F8FBFF3A2
:102770006F8FFEE7206B00F0BBFB2046BDE81040EA
:1027800000F0B6BB10BD000010484FF44061420796
:1027900006D0C01D0D4920F00700411AC1F5406167
:1027A0000B4A00230144C2E900030839183A21F01A
:1027B000070111604B600B600B1AC0E900139360B6
:1027C0004FF000405360506170470000380F002008
:1027D0008C000020144E154CA6F29C474FF08058F8
:1027E000DFF84C9012E000BF00F04EFBF068C568C7
:1027F000281D00F0EDFAA068401EA0606068401E31
:10280000606000F061FB2846FFF7A3FF60680028C6
:10281000EAD138680128F9D9C9F80080BFF34F8F91
:10282000BFF36F8FF2E70000400700202000002078
:1028300004ED00E070B51D46049C51B1C4F80020C1
:10284000C4E90F010121204600F07AFD84F84C50C4
:1028500070BD2460F4E700002DE9F05F8846DDE9F3
:102860000B941546834691009A460A9EA522206B3A
:10287000FDF7EDFD6FF00301206B01EB85010844CE
:1028800020F00707780707D0502080F31188BFF3A6
:102890004F8FBFF36F8FFEE70025B8F1000F0FD009
:1028A0005FF00000221818F8001082F8341018F8B1
:1028B000001011B1401C1028F4D384F8435001E0FB
:1028C00084F83450382E00D33726E662C4E9136505
:1028D000201D00F0B2FA04F1180000F0AEFA2461F5
:1028E000C6F138006462A061656584F858505246AC
:1028F0005946384600F05AFA2060B9F1000F01D06D
:10290000C9F80040BDE8F09F30B5114900E011461C
:102910000A688242FBD34B685C18844203D140684A
:1029200018444860084643681C18944209D1084C72
:10293000183C2468A24209D052681A4442600A68CE
:1029400012680260814200D0086030BD0460F9E77F
:102950008C00002070B5002441600B4D0061914255
:1029600006D8D11A8269914206D2011D286907E072
:102970009A4203D2994201D3012403E0011DE86881
:1029800000F05EFA204670BD5C00002010B50446E1
:1029900000F07AFAA06B28B15FF0000400F094FA1E
:1029A000204610BD0124F9E730B589B03C4D6EE0FA
:1029B0000498002806DADDE90601059A9047049894
:1029C000002864DB069C606910B1201D00F000FA4D
:1029D00003A800F0D7F8024604980A2857D2DFE887
:1029E00000F00505052D334A05052D3394F8280020
:1029F00040F0010084F828000599A069059B014476
:102A00002046FFF7A7FF68B3216A2046884794F85D
:102A1000280040073BD5002000900598A1690023BD
:102A200042181946204601F0C7F9D8B9502080F362
:102A30001188BFF34F8FBFF36F8FFEE714F8280F95
:102A400020F00100207022E094F8280040F00100FE
:102A500084F828000598A06128B181181346204603
:102A6000FFF778FF13E0502080F31188BFF34F8FFA
:102A7000BFF36F8FFEE794F82800810703D4204648
:102A800000F036FA03E020F0010084F8280000226C
:102A900004A9286800F0A8FD002889D109B030BD3C
:102AA0005C0000202DE9FC410F46054600F070FB5C
:102AB00001A800F067F80446019818B101F0EAF89F
:102AC000BDE8FC81254EAFB130690068D0B3002766
:102AD000291B3A46306800F08DFA01F0DBF8002837
:102AE000EED11F494FF080500860BFF34F8FBFF306
:102AF0006F8FE5E7A542EBD801F0CCF8F0682746E8
:102B0000C068C468201D00F063F994F828004107EC
:102B100019D5A0692B4641193A462046FFF71AFFFE
:102B2000A8B100200346014600902A46204601F045
:102B300043F960B9502080F31188BFF34F8FBFF382
:102B40006F8FFEE707E020F0010084F82800216A7B
:102B500020468847B4E70127BAE700005C00002060
:102B600004ED00E00648416B096829B1416BC96872
:102B7000C9684968816270474FF0FF31FAE7000089
:102B80002000002070B5054600F05CFF064E0446AC
:102B9000B068844203D200F009F8012000E0002070
:102BA00028602046B46070BD5C000020F8B5194D67
:102BB00020E0C068C4680668201D00F009F9216A99
:102BC0002046884794F82800400713D5A069304470
:102BD000B04206D924616060211DE86800F030F938
:102BE00008E000200346014600903246204601F0EE
:102BF000E3F838B1E86801680029DAD12969C5E944
:102C00000310F8BD502080F31188BFF34F8FBFF33E
:102C10006F8FFEE75C00002008484068401C4FF0C2
:102C2000500080F3118804D0BFF34F8FBFF36F8F34
:102C3000FEE7BFF34F8FBFF36F8FFEE794000020D6
:102C4000074CE068016841B1C0680021D0F800007D
:102C5000FFF728FFFFF7A8FEF3E701210020F7E7C1
:102C60005C0000202DE9F041044600F00DF994F9D4
:102C7000455004F1240609E0606A48B1304600F08E
:102C8000D1FF08B100F006FA6D1E6DB2002DF3DC25
:102C90004FF0FF3684F8456000F016F900F0F4F8C4
:102CA00094F9445004F1100709E0206948B138460E
:102CB00000F0B8FF08B100F0EDF96D1E6DB2002D07
:102CC000F3DC84F84460BDE8F04100F0FDB800009A
:102CD0002DE9F0410546002700F05AFA324E3068DF
:102CE00008B9FFF751FD706905424ED1C5B30835EB
:102CF00068070ED005F00700C0F10800054468071A
:102D000007D0502080F31188BFF34F8FBFF36F8F30
:102D1000FEE72DB37068854237D823481830014646
:102D20000C6801E020460C466168A94202D2216885
:102D30000029F7D131688C4227D0076821680160EB
:102D400060680837411B10290FD96019420708D065
:102D5000502080F31188BFF34F8FBFF36F8FFEE7D2
:102D600013E041606560FFF7CFFD61687068401A4D
:102D70007060B268904200D2B06070690143002078
:102D8000C4E90001F068401CF06000F083FF7807A0
:102D900007D0502080F31188BFF34F8FBFF36F8FA0
:102DA000FEE73846BDE8F0817400002010B5031F2F
:102DB0004FF080741C601B1F21F001011960191F66
:102DC000024B0B60143940380A6010BD192C000802
:102DD000D0E9013201699A60D0E901235A604A685A
:102DE000824201D182684A60002202610868401E66
:102DF0000860086870470000034B036003F15C0043
:102E0000086080201060704780080020044B036039
:102E100003F15C0008604FF48070106070470000A0
:102E2000DC0A002000F108014FF0FF32C0E9011276
:102E3000C16001610021016070470021016170479C
:102E400030B50B685A1C02D000F1080202E002699A
:102E500004E02246546825689D42FAD953684B60C5
:102E600099608A60516008610168491C016030BD49
:102E700042684A6093688B6093685960916008610A
:102E80000168491C01607047502080F31188BFF32E
:102E90004F8FBFF36F8F0A494868401C4860012874
:102EA0000CD10848006810F0FF0F07D0502080F3C5
:102EB0001188BFF34F8FBFF36F8FFEE7704700009D
:102EC0009400002004ED00E00849486828B1401E45
:102ED000486001D180F311887047502080F3118839
:102EE000BFF34F8FBFF36F8FFEE700009400002009
:102EF00070B500282AD0164DA0F1080460686969F1
:102F0000084207D1502080F31188BFF34F8FBFF3E1
:102F10006F8FFEE722683AB1502080F31188BFF32B
:102F20004F8FBFF36F8FFEE78843606000F030F98A
:102F300060686968084468602046FFF7E5FC286916
:102F4000401C2861BDE8704000F0A4BE70BD0000C8
:102F5000740000204FF0E0200021016181610549EB
:102F60004FF47A720968B1FBF2F1491E4161072101
:102F7000016170471C00002010B5FDF751F911499F
:102F800010280ED300F1E02090F8F0030A78904268
:102F900007D2502080F31188BFF34F8FBFF36F8F9C
:102FA000FEE709480068896800F4E060884207D9B4
:102FB000502080F31188BFF34F8FBFF36F8FFEE770
:102FC00010BD0000940000200CED00E010B5084B8F
:102FD000002200BF53F832401CB1521C082AF9D31A
:102FE00010BD43F8321003EBC201486010BD000071
:102FF0006402002070B515460E460446FFF744FFF4
:1030000094F944100020491C01D184F8440094F93B
:103010004510491C01D184F84500FFF755FFA06B0E
:1030200028B92A46314604F1240000F051F8204620
:10303000BDE87040FFF716BE10B5020014D00F486F
:10304000006B38B1502080F31188BFF34F8FBFF36E
:103050006F8FFEE700F09CF800211046FFF76EFA34
:1030600000F018FE002807D105494FF08050086095
:10307000BFF34F8FBFF36F8F10BD00002000002003
:1030800004ED00E002490A6A0260C96841607047C5
:103090002000002001490120C86170472000002065
:1030A00010B50C4650B1094909681831FFF7C8FE40
:1030B0002046BDE810400121FFF740BA502080F3C0
:1030C0001188BFF34F8FBFF36F8FFEE72000002002
:1030D00070B514460D4668B10A4909681831FFF702
:1030E000C7FE0CB14FF0FF3521462846BDE87040C1
:1030F000FFF724BA502080F31188BFF34F8FBFF33E
:103100006F8FFEE72000002030B587B000240394C5
:1031100005AA04A903A80494FFF76EFEDDE90301E4
:103120000094CDE90110002315A11748059A00F07D
:103130005EFB164D0028E8621FD000F00DFE01284E
:1031400009D0401C19D1502080F31188BFF34F8F54
:10315000BFF36F8FFEE7502080F31188BFF34F8FCE
:10316000BFF36F8F4FF0FF30A86201206861EC6001
:1031700007B0BDE8304000F045B807B030BD0000F2
:1031800049444C4500000000D527000820000020DD
:103190000248016B491C01637047000020000020B9
:1031A000164810B5016B11B10121C16110BD00219C
:1031B000C1610169124A01E0B9B1491E01EB810305
:1031C00052F82330002BF7D001EB810302EB83028E
:1031D00002F1080453685B685360A34201D15B6845
:1031E0005360DA680260016110BD502080F31188DD
:1031F000BFF34F8FBFF36F8FFEE70000200000206A
:10320000A40200201CB5264908780190FF20087010
:1032100008788DF800009DF800009DF8002000F06F
:10322000F000904207D0502080F31188BFF34F8FF9
:10323000BFF36F8FFEE79DF800001A4C00F05000BE
:1032400020700720A06005E09DF8002052008DF856
:103250000020401E9DF800201206F5D4A06003282F
:1032600007D0502080F31188BFF34F8FBFF36F8FCB
:10327000FEE74FF44070A060019808700A480168AA
:1032800041F470010160016841F070410160FFF795
:1032900061FE00206060FCF78DFF00201CBD000077
:1032A00000E400E09400002020ED00E010B5502084
:1032B00080F31188BFF34F8FBFF36F8F00F0C8FB0F
:1032C00018B104494FF080500860002080F3118845
:1032D00010BD000004ED00E038B5049D18B153B1F5
:1032E000CAB181B120E0502080F31188BFF34F8F25
:1032F000BFF36F8FFEE7502080F31188BFF34F8F2D
:10330000BFF36F8FFEE7502080F31188BFF34F8F1C
:10331000BFF36F8FFEE739B1502080F31188BFF300
:103320004F8FBFF36F8FFEE750241C46012384F8B4
:1033300046302B460094FFF77DFA204638BD00004A
:1033400070B50D46040025D0FFF79EFDD4E90F208F
:10335000216802FB0011A1600021A1632168616066
:103360000A46D4E90F01401E00FB0121E16021461D
:103370004FF0FF3001F8440F487004F110008DB198
:10338000FFF750FD04F12400FFF74CFDFFF79CFD13
:10339000012070BD502080F31188BFF34F8FBFF321
:1033A0006F8FFEE721690029F0D000F03BFC002878
:1033B000ECD004494FF080500860BFF34F8FBFF34B
:1033C0006F8FE3E704ED00E02DE9FF4782B01D4673
:1033D0008A464FF00008040003D0BAF1000F08D06D
:1033E00011E0502080F31188BFF34F8FBFF36F8F30
:1033F000FEE7206C38B1502080F31188BFF34F8F67
:10340000BFF36F8FFEE7022D0AD1E06B012807D0D2
:10341000502080F31188BFF34F8FBFF36F8FFEE70B
:1034200000F002FB3F4F4FF000094FF0805648B9C3
:10343000049838B1502080F31188BFF34F8FBFF349
:103440006F8FFEE7FFF720FDA06BE16B884207D38B
:10345000022D05D00498D0B1B8F1000F1AD01EE0AB
:103460002A4651462046FFF73EF9616A19B104F138
:10347000240000F0D7FB20B13E60BFF34F8FBFF3B5
:103480006F8FFFF721FD012006B0BDE8F087FFF741
:103490001BFD22E06846FFF7F5FD4FF00108FFF73E
:1034A00013FDFFF775FEFFF7EFFC94F94400401C95
:1034B00001D184F8449094F94500401C01D184F86E
:1034C0004590FFF701FD04A9684600F029F930B1E5
:1034D0002046FFF7C7FB00F0DDFB0020D4E7FFF735
:1034E000D3FCA06BE16B884213D1FFF7EDFC04F134
:1034F00010000499FFF7D4FD2046FFF7B3FB00F05E
:10350000C9FB00289ED13E60BFF34F8FBFF36F8F82
:1035100098E7FFF7D9FC2046FFF7A4FB00F0BAFBC1
:1035200090E7000004ED00E02DE9F0471F469046CB
:103530008946040003D0B9F1000F08D011E05020F3
:1035400080F31188BFF34F8FBFF36F8FFEE7206CBE
:1035500038B1502080F31188BFF34F8FBFF36F8FC6
:10356000FEE7022F0AD1E06B012807D0502080F33C
:103570001188BFF34F8FBFF36F8FFEE7FFF7FCFC9F
:103580005020EFF3118680F31188BFF34F8FBFF304
:103590006F8FA06BE16B884206D3022F04D000200E
:1035A00086F31188BDE8F08794F94550A06B3A4640
:1035B00049462046FFF797F8681C04D06D1C84F834
:1035C00045500120ECE7606A0028FAD004F124009D
:1035D00000F028FB0028F4D0B8F1000FF1D0012151
:1035E000C8F80010EDE700002DE9F747002683B08A
:1035F0008A46040003D0BAF1000F08D011E0502031
:1036000080F31188BFF34F8FBFF36F8FFEE7206CFD
:1036100038B1502080F31188BFF34F8FBFF36F8F05
:10362000FEE700F001FADFF8F4804FF000094FF0F8
:10363000805748B9059838B1502080F31188BFF3FE
:103640004F8FBFF36F8FFEE7FFF71EFCA56BC5B171
:1036500051462046FFF734F86D1EA563206950B12E
:1036600004F1100000F0DEFA28B1C8F80070BFF3D2
:103670004F8FBFF36F8FFFF727FC012006B0BDE827
:10368000F087059808B11EB106E0FFF71DFC27E0A2
:103690006846FFF7F7FC0126FFF716FCFFF778FDF9
:1036A000FFF7F2FB94F94400401C01D184F84490E8
:1036B00094F94500401C01D184F84590FFF704FCC3
:1036C00005A9684600F02CF8002820460AD0FFF72C
:1036D000C9FA00F0DFFA2046FFF758F90028B3D006
:1036E0000020CBE7FFF752F990B104F124000599CF
:1036F000FFF7D6FC2046FFF7B5FA00F0CBFA00281A
:10370000A2D1C8F80070BFF34F8FBFF36F8F9BE754
:103710002046FFF7A7FA00F0BDFA95E704ED00E0B8
:103720002DE9F0410C46050011D0C4B1FFF7ACFB08
:10373000174BDA686E682068911B471C17D02F68FA
:103740001B6A9F4219D0964217D8012410E05020DE
:1037500080F31188BFF34F8FBFF36F8FFEE75020C8
:1037600080F31188BFF34F8FBFF36F8FFEE7002404
:10377000FFF7AAFB2046BDE8F081884205D9401A30
:1037800020602846FFF77EFCF1E700202060DCE7A0
:10379000200000202DE9FF5F8346DDE90E87994672
:1037A00016468A469000FFF793FA05001CD05C206D
:1037B000FFF78EFA040014D00020256384F8590026
:1037C000CDE90240CDE900874B4632465146584686
:1037D000FFF742F82046FEF7DFFE012004B0BDE807
:1037E000F09F2846FFF784FB4FF0FF30F6E7F0B577
:1037F00085B0DDE90B640A9DA6B1DCB15C270097BA
:103800002663022684F85960002604AFCDE90246FB
:10381000CDE90057FFF720F82046FEF7BDFE0498DB
:1038200005B0F0BD502080F31188BFF34F8FBFF378
:103830006F8FFEE7502080F31188BFF34F8FBFF3E7
:103840006F8FFEE72DE9F0411F4690460D46012699
:1038500090B10446FFF718FB0FB1606D386094F823
:103860005800022184F85810B8F1050F19D2DFE88A
:1038700008F0230B0E141200502080F31188BFF3C0
:103880004F8FBFF36F8FFEE7616D294301E0616DDC
:10389000491C616510E0022801D065650CE0002636
:1038A00034E0616D491C07D0502080F31188BFF3CC
:1038B0004F8FBFF36F8FFEE7012827D1201DFFF741
:1038C00087FA154DE06A2969884200D928611349B1
:1038D00000EB800001EB8000211DFFF7C9FAA06A10
:1038E00038B1502080F31188BFF34F8FBFF36F8F33
:1038F000FEE7E06A2968C96A884207D908494FF09B
:1039000080500860BFF34F8FBFF36F8FFFF7DCFA73
:103910003046BDE8F081000020000020A402002015
:1039200004ED00E02DE9F0471F46DDF820909246B7
:103930000D4604004FF001081AD0FFF71DFB502080
:10394000EFF3118680F31188BFF34F8FBFF36F8FB2
:103950000FB1606D386094F85800022184F8581057
:10396000BAF1050F1AD2DFE80AF0240B0E14120088
:10397000502080F31188BFF34F8FBFF36F8FFEE7A6
:10398000616D294301E0616D491C616511E0022808
:1039900001D065650DE04FF0000839E0616D491C0C
:1039A00007D0502080F31188BFF34F8FBFF36F8F84
:1039B000FEE701282CD1A06A38B1502080F311888D
:1039C000BFF34F8FBFF36F8FFEE7144D286B18B115
:1039D00004F1180112480DE0201DFFF7F9F9E06A23
:1039E0002969884200D928610E4900EB800001EB6B
:1039F0008000211DFFF73CFAE06A2968C96A884205
:103A000006D90120B9F1000F01D0C9F80000E86122
:103A100086F311884046BDE8F087000020000020B2
:103A20002C070020A40200200548416919B1006B51
:103A300018B1002070470120704702207047000035
:103A4000200000200148C0687047000020000020CE
:103A50002DE9F0412E4C0027206B28B1A069401CB5
:103A6000A0613846BDE8F081E668761CE66013D1B7
:103A7000606B006838B1502080F31188BFF34F8F1E
:103A8000BFF36F8FFEE7606BA16B6163A063206A79
:103A9000401C2062FFF766F8A06ADFF87880864253
:103AA00009D3606B0068A0B1606BC068C5686868C6
:103AB000864211D2A0622068C06A00EB800158F8EB
:103AC0002100012800D90127E0690028C9D0012779
:103AD000C7E74FF0FF30EDE7281DFFF779F9A86A37
:103AE00018B105F11800FFF773F9E86A21698842F7
:103AF00000D9206100EB800108EB8100291DFFF750
:103B0000B7F9E86A2168C96A8842CAD30127C8E7B9
:103B100020000020A40200202DE9F0411E46154699
:103B200088460746FFF7B0F91C4C206890F858000B
:103B3000022814D02068416DB943416521680120F5
:103B400081F858005EB101213046FEF7F7FC1449B8
:103B50004FF080500860BFF34F8FBFF36F8FFFF7B8
:103B6000B3F9FFF791F915B12068406D286020681E
:103B700090F85800022801D0002505E02068416D2A
:103B800021EA0801416501252168002081F85800DB
:103B9000FFF79AF92846BDE8F081000020000020D8
:103BA00004ED00E070B504004FF0000133D01B4D70
:103BB0002868844207D0502080F31188BFF34F8FCC
:103BC000BFF36F8FFEE7206D38B1401E2065E36CB8
:103BD000E26A9A421FD040B11DE0502080F3118864
:103BE000BFF34F8FBFF36F8FFEE7201DFFF7F0F895
:103BF000E06CE062C0F13800A061E06A29698842A7
:103C000000D92861064900EB800001EB8000211DEE
:103C1000FFF72EF90121084670BD000020000020AA
:103C2000A402002070B5C068C46854B104F1180043
:103C30000646FFF7CDF8144D286B50B131461348B6
:103C400015E0502080F31188BFF34F8FBFF36F8FC3
:103C5000FEE7201DFFF7BCF8E06A2969884200D919
:103C600028610B4900EB800001EB8000211DFFF76C
:103C7000FFF8E06A2968C96A884202D90120E86130
:103C800070BD002070BD0000200000202C07002027
:103C9000A40200202DE9F0472C4D00242746286B74
:103CA00038B1FFF7F1F8286B401E2863286B40B14C
:103CB00046E0502080F31188BFF34F8FBFF36F8F22
:103CC000FEE7A968224E0120D1B3A6F5916980468E
:103CD0003068E0B1F068C46804F11800FFF778F8C4
:103CE000201DFFF775F8E06A2969884200D928612C
:103CF00000EB800109EB8100211DFFF7B9F8E06AB4
:103D00002968C96A8842E3D3C5F81C80E0E70CB192
:103D1000FEF728FFAC694CB14FEA0806FFF798FEA2
:103D200000B1EE61641EF9D10020A861E86938B1E4
:103D30000849012738070860BFF34F8FBFF36F8F23
:103D4000FFF7C2F83846BDE8F087000020000020E9
:103D50002C07002004ED00E010B586B0FEF784FCCF
:103D6000114C2068B8B100200390049005AA04A962
:103D700003A8FFF74BF8DDE9032102208DE80700D7
:103D800000230AA10B48059AFFF731FD606010B1CE
:103D900006B0012010BD502080F31188BFF34F8F73
:103DA000BFF36F8FFEE700005C000020546D7220AF
:103DB00053766300412C00082DE9FF411E4613464F
:103DC00002000A9D4FF0000016D0144C2768002F07
:103DD0000FD0CDE900130292062917DAFFF724FE6F
:103DE00002284FF000030FD0002269462068FFF739
:103DF000EBFA04B0BDE8F081502080F31188BFF3E6
:103E00004F8FBFF36F8FFEE72A46EEE7002332465F
:103E100069463846FFF788FBEBE700005C000020AE
:103E2000B83E000800000000000000000000000094
:103E30000000000000020000080000000000000078
:103E400000000000C03E000800000000000000006C
:103E50000000000000000000000400000800000056
:103E60000000000000000000C83E00080000000044
:103E70000000000000000000000000000002000040
:103E80001800000000000000000000000102020312
:103E90000405060708090A0B0C0D0E0F1010000090
:103EA00000000000000001020304060708090000EA
:103EB00000000102030400004C65645461736B0050
:103EC0004C6F675461736B004D6F746F7254617304
:103ED0006B000000F43E000800000020A00000007D
:103EE00028010008943F0008A0000020F8200000EE
:103EF0004401000800000000000000000000000075
:103F000000000000010000001000000000000000A0
:103F100000127A0000000000000000000000000015
:103F20000000000000000000000000000000000091
:103F30000000000000000000000000000000000081
:103F40000000000000000000000000000000000071
:103F50000000000000000000000000000000000061
:103F60000000000000000000000000000000000051
:103F70000000000000000000000000000000000041
:103F8000000000000000000000000000AAAAAAAA89
:043F9000000000002D
:04000005080000ED02
:00000001FF
