:020000040800F2
:10000000483100203D020008112D0008F7270008A4
:10001000152B0008B7080008AD35000800000000E7
:10002000000000000000000000000000A501000822
:10003000AD09000800000000E9010008B12E000829
:10004000570200085702000857020008570200082C
:10005000570200085702000857020008570200081C
:10006000570200085702000857020008570200080C
:1000700057020008570200085109000857020008FB
:1000800061090008710900085702000857020008BA
:1000900057020008570200085702000857020008DC
:1000A00057020008570200085702000857020008CC
:1000B0005702000857020008312F000857020008B5
:1000C00057020008570200085702000857020008AC
:1000D000570200088D3500089D35000857020008BA
:1000E00057020008570200085702000800F002F803
:1000F00000F048F80AA090E8000C82448344AAF17A
:100100000107DA4501D100F03DF8AFF2090EBAE877
:100110000F0013F0010F18BFFB1A43F0010318473B
:100120002C5D00004C5D0000103A24BF78C878C1F7
:10013000FAD8520724BF30C830C144BF04680C60ED
:10014000704700000023002400250026103A28BF35
:1001500078C1FBD8520728BF30C148BF0B60704739
:10016000642900F0A180002070471FB500F040FB1B
:1001700004000020002105F0C1FD401C60601FBD8F
:1001800010B510BD00F00FFB1146FFF7EEFF03F0B6
:100190002FFA00F03FFB03B4FFF7F2FF03BC00F0BF
:1001A00083FB0000224B19680868B0E8F00F80F369
:1001B0000988BFF36F8F4FF0000080F311884EF075
:1001C0000D0E70470000000006480068006880F3CC
:1001D000088862B661B6BFF34F8FBFF36F8F00DF41
:1001E00000BF00BF08ED00E0EFF30980BFF36F8FA1
:1001F0000F4B1A6820E9F00F106008B54FF050005F
:1002000080F31188BFF34F8FBFF36F8F04F080FC32
:100210004FF0000080F31188BDE8084019680868B5
:10022000B0E8F00F80F30988BFF36F8F704700BF0D
:100230002C000020EFF3058070470000094880473C
:1002400009480047FEE7FEE7FEE7FEE7FEE7FEE7B8
:10025000FEE7FEE7FEE7FEE704480549054A064BD0
:10026000704700002D2F0008ED000008482B0020EB
:1002700048310020482D0020482D00200FB41CB527
:10028000084B06AA7B4469460090059800F08BF95C
:1002900004460020694600F099F920461CBC5DF830
:1002A00014FB0000450300002DE9F0410646002440
:1002B00010687529314616A510D0AFF300800028CC
:1002C00002DA404213A507E031688A0701D512A57A
:1002D00002E0490704D511A5012401E0AFF3008035
:1002E00000210A2206F1240709E0B0FBF2FCB0FB72
:1002F000F2F302FB1C00303078541846491C0028E9
:10030000F3D123462A463046BDE8F04100F0ECB870
:10031000000000002D0000002B0000002000000065
:100320002DE9F0410F460546002028622846E9687D
:10033000884770B3252805D0D5E901219047286A60
:10034000401CF2E7E9682846002688476C280446E6
:100350000AD0682C08D04C2C35D06A2C31D0742CA3
:1003600031D07A2C2FD016E0E96806462846884717
:10037000B042044608D16C2E23D04FF48066284644
:10038000E9688847044606E06C2E03D04FF4807677
:1003900001E01EE04026E4B1A4F14100192802D892
:1003A000203446F400663A46214628462E60FFF780
:1003B000D7FE60B1012808D0FF1D27F007070837D6
:1003C000B4E78026DBE70026D9E73F1DAEE72046ED
:1003D000B2E7286ABDE8F08170B5064600F080F803
:1003E0000468054630460A22002100F0F4F82C602B
:1003F00070BD032A40F2308010F0030C00F015802D
:1004000011F8013BBCF1020F624498BF11F801CB17
:1004100000F8013B38BF11F8013BA2F1040298BF7C
:1004200000F801CB38BF00F8013B11F0030300F0E6
:100430000A81083AC0F0088051F8043B083A51F8A4
:1004400004CBA0E80810F5E7121D5CBF51F8043B8F
:1004500040F8043BAFF30080D20724BF11F8013B02
:1004600011F801CB48BF11F8012B24BF00F8013B64
:1004700000F801CB48BF00F8012B704702F0FF03E2
:1004800043EA032242EA024200F011B94FF00002AF
:1004900000B5134694469646203922BFA0E80C507A
:1004A000A0E80C50B1F12001BFF4F7AF090728BF55
:1004B000A0E80C5048BF0CC05DF804EB890028BFD1
:1004C00040F8042B08BF704748BF20F8022B11F0FA
:1004D000804F18BF00F8012B704770477047704776
:1004E00000487047E42A00202DE9F0470D46994660
:1004F0009246044600F124080168880604D5E069A4
:1005000021F01001216000E00120A84201DD471B1D
:1005100000E00027A1697A1902EB0900081AA0611E
:100520002078C00602D42046AFF30080002608E001
:10053000D4E901211AF806009047206A401C761C75
:1005400020624E45F4DB2078C0060AD52046AFF382
:10055000008006E0D4E9012130209047206A401C49
:100560002062381EA7F10107F4DC07E0D4E901217D
:1005700018F805009047206A401C2062281EA5F14B
:100580000105F3DC2046AFF300802078000602D599
:100590000220BDE8F0870120FBE7000001694A1C4A
:1005A00002610878704700B58FB0CDE901310021B4
:1005B000059105497944CDE9031011466846FFF7D6
:1005C000AFFE0FB000BD0000E5FFFFFF0A6802F8B4
:1005D000010B0A6070472DE9F04791460F468046AF
:1005E0000446002614F8015B2DB100F085F8006880
:1005F000405DC007F6D12B2D02D02D2D18D0641EE2
:100600004A463946204600F07FF827B13968A142B2
:1006100001D1C7F800804FF0020471050BD54042AC
:10062000002803DDFFF75CFF0460A007BDE8F0874A
:1006300046F48066E4E70028F8DAFFF751FF04602B
:100640006FF00040F2E710B5203AC0F00B80B1E83F
:100650001850203AA0E81850B1E81850A0E81850F7
:10066000BFF4F5AF5FEA027C24BFB1E81850A0E800
:10067000185044BF18C918C0BDE810405FEA827C1A
:1006800024BF51F8043B40F8043B08BF7047D20731
:1006900028BF31F8023B48BF11F8012B28BF20F8D2
:1006A000023B48BF00F8012B70474FF000020429BD
:1006B000C0F0128010F0030C3FF4EAAECCF1040C51
:1006C000BCF1020F18BF00F8012BA8BF20F8022BC5
:1006D000A1EB0C01FFF7DCBE5FEAC17C24BF00F890
:1006E000012B00F8012B48BF00F8012B70470000D8
:1006F00000487047E42A002010B500F079F8001D8A
:1007000010BD00BFF95500002DE9F05F8246154687
:100710008B4600270AF10104B9460078302801D041
:100720009DB113E014F8010B0127782803D0582855
:1007300001D045B10AE00DB1102D07D1002714F802
:10074000010B102502E0082500E00A250026B0462E
:100750000EE005FB080005FB06F101271FFA80F8F3
:1007600001EB1046B6F5803F00D3B94614F8010BF3
:10077000294600F041F80028EBDABBF1000F05D064
:100780000FB1641E00E05446CBF80040B9F1000FF1
:1007900006D0FFF7A5FE02210160C81EBDE8F09F4C
:1007A00048EA0640FAE77546FFF7A2FFAE460500A5
:1007B0006946534620F00700854618B020B5FFF77C
:1007C0004BFDBDE820404FF000064FF000074FF012
:1007D00000084FF0000B21F00701AC46ACE8C0095F
:1007E000ACE8C009ACE8C009ACE8C0098D46704768
:1007F00000487047042B00203A2800D2303820F0FF
:100800002002412A01D3A2F13700884201D34FF0E0
:10081000FF30704710B50446AFF300802046BDE8B6
:100820001040FFF7B8BC00004FF0013C50F8042B1B
:1008300051F8043B9A4221D1A2EB0C03934313EAF3
:10084000CC1317D150F8042B51F8043B9A4215D120
:10085000A2EB0C03934313EACC130BD150F8042BF7
:1008600051F8043B9A4209D1A2EB0C03934313EADB
:10087000CC13DBD04FF00000704700BFD01A01BA94
:10088000B1FA81F101F0180122FA01F0CB40C1F177
:100890002001DBB2C0B2C01A2CFA01F3D11A914385
:1008A00011EAC311E6D1704701491820ABBEFEE73B
:1008B00026000200704700BFFEE738B5044600205E
:1008C00000900CB1207808B9009838BD20785328E2
:1008D00002D0207873281BD104208DF80000601C02
:1008E000FFF77AFD00B2ADF80200BDF90200B0F5E5
:1008F0007A7F03DD4FF47A70ADF80200BDF9020093
:1009000010F57A7F21DA4FF61840ADF802001CE0AE
:100910002078462802D02078662803D101208DF85F
:10092000000012E02078522802D02078722803D1EB
:1009300002208DF8000008E02078582802D02078A6
:10094000782802D103208DF800000098BDE7000050
:1009500010B5024800F0B2F810BD0000FC100020F5
:1009600010B5024800F0AAF810BD00008411002064
:1009700010B5024800F0A2F810BD000040110020A0
:1009800030B590F840500124AC40C56B6C600468F1
:1009900063604468102C04D10468A2600468E160BC
:1009A00003E00468A1600468E26030BD704772B67D
:1009B00000BFFEE70146002291F82100022808D07E
:1009C0000420886300BF002081F8200000BF0120C0
:1009D00070470868006820F00E000B68186008680F
:1009E000006820F001000B68186091F84030012089
:1009F0009840CB6B5860012081F8210000BF002097
:100A000081F8200000BF1046E2E7000070B5044600
:100A1000002594F82100022803D00420A0630125BA
:100A200048E02068006820F00E0021680860206817
:100A3000006820F00100216808601F492068884292
:100A400001D1012026E01C4914312068884201D1DF
:100A500010201FE0184928312068884201D18015F4
:100A600018E015493C312068884201D1801411E01A
:100A7000114950312068884202D14FF4803009E09A
:100A80000D4964312068884202D14FF4801001E0A2
:100A90004FF08070084908394860012084F821002F
:100AA00000BF002084F8200000BF606B10B120461A
:100AB000616B8847284670BD0800024070B5044647
:100AC000E06B05682068066894F8401004208840B0
:100AD0002840002846D006F00400002842D02068B4
:100AE000006800F0200028B92068006820F00400A9
:100AF0002168086057492068884201D1042027E016
:100B0000544914312068884201D1402020E05149E5
:100B100028312068884201D1001519E04D493C3147
:100B20002068884202D14FF4804011E04949503199
:100B30002068884202D14FF4802009E045496431A1
:100B40002068884202D14FF4800001E04FF08060BD
:100B5000404908394860E06A00287AD02046E16AB6
:100B6000884776E094F84010022088402840A0B3DF
:100B700006F0020088B32068006800F0200040B949
:100B80002068006820F00A0021680860012084F8CD
:100B9000210030492068884201D1022028E02D49F7
:100BA00014312068884201D1202021E029492831D0
:100BB0002068884201D140151AE026493C3120685E
:100BC000884202D14FF4005012E02249503120688F
:100BD000884203D14FF400300AE017E01D49643128
:100BE0002068884202D14FF4001001E04FF00070FD
:100BF00018490839486000BF002084F8200000BF71
:100C0000A06A30B32046A16A884722E094F84010D9
:100C1000082088402840E0B106F00800C8B12068EC
:100C2000006820F00E002168086094F84010012050
:100C30008840E16B48600120A06384F8210000BF78
:100C4000002084F8200000BF206B10B12046216BEB
:100C5000884770BD080002400146002209B9012002
:100C60007047164B0868C01A1423B0FBF3F08000DD
:100C7000086412480838C863022081F82100086817
:100C8000026843F6F0708243D1E901031843CB6850
:100C900018430B6918434B6918438B691843CB6998
:100CA000184302430868026000208863012081F82D
:100CB0002100002081F8200000BFD1E70800024099
:100CC0002DE9F04104460D4616461F464FF0000838
:100CD00000BF94F82000012802D10220BDE8F08175
:100CE000012084F8200000BF94F8210001282CD1B5
:100CF000022084F821000020A0632068006820F012
:100D00000100216808603B46324629462046FFF72D
:100D100037FEE06A30B12068006840F00E002168BC
:100D200008600BE02068006820F00400216808607B
:100D30002068006840F00A002168086020680068A8
:100D400040F001002168086006E000BF002084F840
:100D5000200000BF4FF002084046BFE72DE9F847EA
:100D60000346002294466EE14FF0010808FA02F4AF
:100D7000D1F8008008EA0400A0427DD1DFF8DCA2AF
:100D8000D1F80480A8EB0A09D0453AD014DCB8F1B8
:100D9000030F50D009DCB8F1000F31D0B8F1010FCA
:100DA0001CD0B8F1020F49D120E0B8F1110F18D0D2
:100DB000B8F1120F42D11EE0B9F5881F25D006DC2C
:100DC000B9F5803F20D0B9F5801F37D11AE0B9F5C9
:100DD000001F18D0B9F5041F30D117E0D1F80CC0AE
:100DE0002DE0D1F80C8008F1040C28E0D1F80C803B
:100DF00008F1080C23E0D1F80C8008F10C0C1EE07F
:100E000000BF00BF00BF00BF00BF00BFD1F8088017
:100E1000B8F1000F02D14FF0040C0BE0D1F80880BC
:100E2000B8F1010F03D14FF0080C1C6102E04FF044
:100E3000080C5C6103E04FF0000C00E000BF00BF55
:100E4000FF2801D8984601E003F104084646FF2830
:100E500002D84FEA820803E0A2F108084FEA8808A6
:100E60004746D6F800804FF00F0909FA07F928EA3B
:100E700009080CFA07F900E088E048EA0908C6F812
:100E80000080D1F8048008F08058B8F1805F7DD1EF
:100E900000BFDFF8CC81D8F8188048F00108DFF8EF
:100EA000C091C9F81880C846D8F8188008F0010821
:100EB000CDF8008000BF00BF4FEAB9384FEA920971
:100EC00058F829504FEA82784FEA18794FF00F0806
:100ED00008FA09F825EA0805DFF88881434502D1B8
:100EE0004FF0000816E0DFF88081434502D14FF053
:100EF00001080FE0DFF87481434502D14FF002088A
:100F000008E0DFF86C81434502D14FF0030801E0AF
:100F10004FF004084FEA82794FEA197908FA09F884
:100F200048EA0505DFF84C814FEA920948F8295054
:100F3000D1F8048008F48018B8F5801F0AD1DFF8D2
:100F40003881D8F8008048EA0008DFF82C91C9F809
:100F5000008009E0DFF82081D8F8008028EA000846
:100F6000DFF81491C9F80080D1F8048008F4001863
:100F7000B8F5001F10D1DFF8008108F10408D8F897
:100F8000008048EA0008DFF8F09000E05AE009F13C
:100F90000409C9F800800DE0DFF8DC8008F10408DE
:100FA000D8F8008028EA0008DFF8CC9009F104099D
:100FB000C9F80080D1F8048008F40038B8F5003F83
:100FC0000ED1DFF8B480A8F10408D8F8008048EA10
:100FD0000008DFF8A490A9F10409C9F800800DE029
:100FE000DFF89480A8F10408D8F8008028EA000807
:100FF000DFF88490A9F10409C9F80080D1F80480D1
:1010000008F48038B8F5803F0ED1DFF86C80A8F185
:101010000808D8F8008048EA0008DFF85C90A9F1D9
:101020000809C9F800800DE0DFF84C80A8F1080835
:10103000D8F8008028EA0008DFF83C90A9F10809F8
:10104000C9F80080521CD1F8008028FA02F8B8F1E3
:10105000000F7FF489AEBDE8F88700000000111092
:101060000010024000080140000C01400010014047
:1010700000140140080001400804014010B5C26896
:1010800021EA020302EA010443EA0443036110BDBA
:101090000AB1016101E00B04036170470148006877
:1010A000704700001C0000200348006803490978CD
:1010B00008440149086070471C00002024000020FB
:1010C00010B50848006840F0100006490860032089
:1010D00000F0E2F80F2000F007F800F05FF80020C1
:1010E00010BD0000002002402DE9F04188B0044608
:1010F0000027B846002600BF2348C06940F004001E
:101100002149C8610846C06900F00400019000BF91
:1011100000BF02A903A800F099F9069F1FB900F0CB
:10112000BDF9054602E000F0B9F945001748B5FBE6
:10113000F0F0A0F1010816481649086040F2E731C6
:101140001448C160C0F804800021016181608161A0
:1011500000F072FC064696B90E4800F0A1FC064667
:101160006EB91E2000F04AF8102C07D2002221464A
:101170001E2000F053F80848046000E001263046C5
:1011800008B0BDE8F08100000010024040420F00AE
:1011900000080040C81100202000002008B500BF52
:1011A0001448806940F0010012498861084680694E
:1011B00000F00100009000BF00BF00BF0846C069FA
:1011C00040F08050C8610846C06900F0805000902F
:1011D00000BF00BF00220F21901E00F01FF800BFCB
:1011E0000549486820F0E06040F00070486000BFAA
:1011F00008BD000000100240000001400146084602
:10120000002809DB00F01F0301229A4043099B00DC
:1012100003F1E023C3F8002100BF70472DE9F05F20
:1012200080460D461646002702F0C2F907463946A9
:101230002A46334601F00700C0F1070ABAF1040F4D
:1012400002D94FF0040A01E0C0F1070AD14600F1CB
:10125000040ABAF1070F02D24FF0000A01E0A0F130
:10126000030AD4464FF0010A0AFA09FAAAF1010A60
:101270000AEA020A0AFA0CFA4FF0010B0BFA0CFB0D
:10128000ABF1010B0BEA030B4AEA0B042146404683
:1012900002F096F9BDE8F09F00BF00F00702064B90
:1012A00019684FF6FF031940044B0B4343EA022130
:1012B000014B196000BF70470CED00E00000FA051B
:1012C00070B504460D460CB9012070BD5A4800683F
:1012D00000F00700A8420ED25748006820F007002F
:1012E0002843554908600846006800F00700A842F6
:1012F00001D00120E9E7207800F0020002281DD18A
:10130000207800F00400042805D14C48406840F4DF
:10131000E0604A494860207800F00800082805D1BC
:101320004648406840F4605044494860434840683B
:1013300020F0F000A168084340494860207800F0A0
:10134000010078B36068012806D13C48006800F4C9
:10135000003090B90120B8E76068022806D137480C
:10136000006800F0007040B90120AEE73348006823
:1013700000F0020008B90120A7E73048406820F0DB
:101380000300616808432D494860FFF787FE064661
:1013900009E0FFF783FE801B41F28831884202D9C1
:1013A000032092E707E02548406800F00C006168E0
:1013B000B0EB810FEDD12048006800F00700A84293
:1013C0000ED91D48006820F0070028431A4908601C
:1013D0000846006800F00700A84201D0012074E729
:1013E000207800F00400042807D11448406820F455
:1013F000E060E168084311494860207800F0080087
:10140000082808D10D48406820F46050216940EA5E
:10141000C1000A49486000F061F808494968C1F311
:101420000311074A515CC840064908600648006835
:10143000FFF75AFE002048E700200240001002405B
:10144000E25D000828000020200000200F2202603A
:101450000D4A526802F0030242600B4A526802F0E1
:10146000F0028260084A526802F4E062C260064AF2
:10147000526802F46052D2080261044A126802F013
:1014800007020A607047000000100240002002407E
:1014900001480068704700002800002000B5FFF7F1
:1014A000F7FF04494968C1F30221034A515CC8406F
:1014B00000BD000000100240F25D000800B5FFF71B
:1014C000E7FF04494968C1F3C221034A515CC8409F
:1014D00000BD000000100240F25D000870B5002160
:1014E0000022002400230020134D696801F00C0540
:1014F000F5B1042D02D0082D19D101E00F4819E0F3
:101500000F4DC1F38346AB5D01F4803555B10A4DF3
:101510006D68C5F340450B4E725D084D5D43B5FBEC
:10152000F2F402E0084D03FB05F4204602E000BFA0
:10153000024800BF00BF70BD0010024000127A00D8
:10154000D05D0008E05D000800093D00F8B50446E4
:101550000CB90120F8BD207800F00100002878D0F7
:10156000F848406800F00C0004280CD0F5484068AA
:1015700000F00C00082811D1F248406800F48030D7
:10158000B0F5803F0AD1EF48006800F40030002831
:101590005FD0606800285CD10120DBE700BF606895
:1015A000B0F5803F06D1E748006840F48030E54957
:1015B000086028E0606858B9E248006820F480308C
:1015C000E04908600846006820F4802008601AE0BE
:1015D0006068B0F5A02F0BD1DA48006840F4802095
:1015E000D84908600846006840F4803008600AE086
:1015F000D448006820F48030D2490860084600686A
:1016000020F48020086000BF606888B1FFF746FDC5
:10161000054606E0FFF742FD401B642801D9032080
:1016200098E7C848006800F400300028F2D010E0C5
:10163000FFF734FD054606E0FFF730FD401B642848
:1016400001D9032086E7BF48006800F40030002875
:10165000F2D1207800F00200022857D1B948406842
:1016600000F00C0050B1B748406800F00C000828AA
:1016700018D1B448406800F4803098B9B148006887
:1016800000F0020020B12069012801D0012061E7AB
:10169000AC48006820F0F800616940EAC100A9493F
:1016A000086033E02069E8B10120A7490860FFF72E
:1016B000F5FC054606E0FFF7F1FC401B022801D9C6
:1016C000032047E79F48006800F002000028F2D09E
:1016D0009C48006820F0F800616940EAC10099491F
:1016E000086013E0002098490860FFF7D7FC054622
:1016F00006E0FFF7D3FC401B022801D9032029E7AD
:101700009048006800F002000028F2D1207800F034
:10171000080008282DD1A069B8B101208B490860C4
:10172000FFF7BCFC054606E0FFF7B8FC401B0228AB
:1017300001D903200EE78348406A00F00200002828
:10174000F2D0012001F0E6FA13E000207F490860A2
:10175000FFF7A4FC054606E0FFF7A0FC401B0228AB
:1017600001D90320F6E67748406A00F0020000281D
:10177000F2D1207800F00400042873D100277148CA
:10178000C06900F0805070B900BF6E48C06940F079
:1017900080506C49C8610846C06900F080500090D4
:1017A00000BF00BF01276A48006800F48070B0B92C
:1017B0006748006840F4807065490860FFF76EFC78
:1017C000054606E0FFF76AFC401B642801D90320A8
:1017D000C0E65F48006800F480700028F2D000BFC7
:1017E000E068012806D15748006A40F001005549D9
:1017F000086227E0E06858B95248006A20F001000A
:10180000504908620846006A20F00400086219E0A6
:10181000E06805280BD14B48006A40F004004949B4
:1018200008620846006A40F0010008620AE0454884
:10183000006A20F00100434908620846006A20F06F
:101840000400086200BFE068A0B1FFF727FC05466E
:1018500009E0FFF723FC401B41F28831884202D99E
:10186000032077E622E03748006A00F002000028F3
:10187000EFD012E0FFF712FC054608E0FFF70EFC80
:10188000401B41F28831884201D9032062E62D488D
:10189000006A00F002000028F0D1012F05D129488C
:1018A000C06920F080502749C86100BFE069C8B313
:1018B0002448406800F00C00082860D0E069022845
:1018C00048D1002020490866FFF7E8FB054606E0FE
:1018D000FFF7E4FB401B022801D903203AE6194830
:1018E000006800F000700028F2D1206AB0F5803F57
:1018F00007D11448406820F40030A168084311491A
:101900004860D4E9080108430E49496821F474117C
:1019100008430C49486001200B490866FFF7BEFBED
:10192000054607E03DE0FFF7B9FB401B022801D95F
:1019300003200FE60348006800F000700028F2D092
:101940002FE00000001002400000424280044242AA
:1019500000700040002014490866FFF79FFB054611
:1019600006E0FFF79BFB401B022801D90320F1E5AD
:101970000E48006800F000700028F2D111E0E06924
:10198000012800D1E6E50948466806F48031206A5E
:10199000814204D106F47011606A814201D00120B5
:1019A000D8E50020D6E500000000424200100240C9
:1019B0007047704730B502460B4600BF92F83C00B6
:1019C000012801D1022030BD012082F83C0000BF77
:1019D000022082F83D00106844681068816824F095
:1019E00070041868044310684460104D1068A842E1
:1019F0000BD01068B0F1804F07D00D4D1068A84291
:101A000003D00C4D1068A84205D121F08001586820
:101A1000014310688160012082F83D0000BF002072
:101A200082F83C0000BF00BFCDE70000002C014061
:101A3000000400400008004010B504460CB9012025
:101A400010BD94F83D0028B9002084F83C002046E1
:101A500000F025F8022084F83D00211D206801F0E7
:101A60006FFA012084F8460000BF84F83E0001218F
:101A70003F200155402001554120015500BF00BFC6
:101A8000012084F84200432001554420015545209F
:101A9000015500BF012084F83D000020D0E77047C9
:101AA000014691F83D00012801D001207047022035
:101AB00081F83D000868C06840F001000B68D860FC
:101AC000124B086898420BD00868B0F1804F07D0DD
:101AD0000F4B0868984203D00E4B086898420CD10F
:101AE0000868806800F00702062A0CD008680068C1
:101AF00040F001000B68186005E00868006840F0DD
:101B000001000B6818600020D0E70000002C0140A5
:101B100000040040000800402DE9F04104460D4655
:101B200014B90120BDE8F08194F83D0028B90020E7
:101B300084F83C00204600F051F8022084F83D0073
:101B40002068806844F20701884321688860211D6D
:101B5000206801F0F5F92068D0F8088020688669CF
:101B60002068076A286840EA080840F20330864384
:101B7000A969A86840EA0120064340F60C40864364
:101B80004FF2F0008643E969E86840EA0120064325
:101B900028690001296A40EA0130064327F022073C
:101BA0006969686840EA011007432068C0F8088046
:101BB0002068866120680762012084F8460084F866
:101BC0003E0001213F200155012084F842004320BE
:101BD0000155012084F83D000020A3E710B586B030
:101BE0000446002002900390049005902068B0F114
:101BF000804F23D100BF1248C06940F00100104956
:101C0000C8610846C06900F00100019000BF00BF34
:101C100000BF0846806940F004008861084680697A
:101C200000F00400019000BF00BF032002900020DC
:101C30000390049002A90348FFF790F806B010BD86
:101C400000100240000801402DE9F04304460D4613
:101C500094F83E603F20075D94F84280432010F8DE
:101C600004906DB9012E02D1B8F1010F02D001200C
:101C7000BDE8F083022084F83E0084F8420025E0AD
:101C8000042D0CD1012F02D1B9F1010F01D0012097
:101C9000EEE702213F2001554320015516E0012EB9
:101CA00007D1012F05D1B8F1010F02D1B9F1010F10
:101CB00001D00120DCE7022084F83E0002213F2011
:101CC0000155022084F842004320015515B1042D2E
:101CD0000CD105E001220021206801F073F910E029
:101CE00001220421206801F06DF90AE0012200219F
:101CF000206801F067F901220421206801F062F9EF
:101D000000BF00BF2068006840F001002168086043
:101D10000020ADE7704770B504462068C5682068AC
:101D2000066906F00200022819D105F00200022817
:101D300015D1401F21680861012020772068806943
:101D400000F0030018B12046FFF7E4FF05E020464D
:101D500000F0C4F8204600F08FF90020207706F04C
:101D60000400042819D105F00400042815D1C0434B
:101D700021680861022020772068806900F44070A3
:101D800018B12046FFF7C6FF05E0204600F0A6F890
:101D9000204600F071F90020207706F0080008289E
:101DA00019D105F00800082815D1C0432168086141
:101DB000042020772068C06900F0030018B1204695
:101DC000FFF7A8FF05E0204600F088F8204600F065
:101DD00053F90020207706F01000102819D105F0E3
:101DE0001000102815D1C043216808610820207711
:101DF0002068C06900F4407018B12046FFF78AFFE0
:101E000005E0204600F06AF8204600F035F9002091
:101E1000207706F0010048B105F0010030B16FF005
:101E2000010021680861204600F092F906F0800068
:101E3000802809D105F08000802805D1C0432168A1
:101E400008612046FFF7B4FD06F04000402809D1A4
:101E500005F04000402805D1C043216808612046B4
:101E600000F082F906F02000202809D105F02000BA
:101E7000202805D1C043216808612046FFF799FD5D
:101E800070BD000010B586B004460020029003909B
:101E9000049005900E492068884216D100BF0D4875
:101EA000806940F004000B4988610846806900F0B1
:101EB0000400019000BF00BF402002900220039068
:101EC000059002A90448FEF749FF06B010BD0000C6
:101ED00000040040001002400008014070472DE956
:101EE000F04104460D461646002700BF94F83C001A
:101EF000012802D10220BDE8F081012084F83C00D5
:101F000000BF36B1042E1BD0082E31D00C2E5ED16E
:101F100045E02946206801F067F82068806940F0B4
:101F20000800216888612068806920F00400216829
:101F3000886120688069296908432168886148E0D0
:101F40002946206801F080F82068806940F400602C
:101F5000216888612068806920F480602168886138
:101F600020688069296940EA01202168886130E0A1
:101F70002946206801F09CF82068C06940F00800FC
:101F80002168C8612068C06920F004002168C86128
:101F90002068C069296908432168C86119E0294699
:101FA000206801F0B9F82068C06940F40060216839
:101FB000C8612068C06920F480602168C861206819
:101FC000C069296940EA01202168C86101E0012750
:101FD00000BF00BF00BF002084F83C0000BF3846AF
:101FE00089E710B504460CB9012010BD94F83D00F6
:101FF00028B9002084F83C00204600F025F8022093
:1020000084F83D00211D206800F09AFF012084F82B
:10201000460000BF84F83E0001213F2001554020CA
:1020200001554120015500BF00BF012084F8420046
:1020300043200155442001554520015500BF012092
:1020400084F83D000020D0E708B5094A01689142B4
:102050000DD100BF0749C96941F00201054AD161AC
:102060001146C96901F00201009100BF00BF08BD1F
:1020700000040040001002407047000070B50446A4
:102080000D4615B994F83E000BE0042D02D13F2017
:10209000005D06E0082D02D14020005D01E04120F6
:1020A000005D012801D0012070BD1DB9022084F817
:1020B0003E000EE0042D03D102213F20015508E02F
:1020C000082D03D102214020015502E002214120C8
:1020D000015501222946206800F074FF1949206843
:1020E000884201D1012000E0002028B12068406C26
:1020F00040F40040216848641249206888420BD0AF
:102100002068B0F1804F07D00F492068884203D083
:102110000E49206888420CD12068806800F00706CC
:10212000062E0CD02068006840F00100216808608D
:1021300005E02068006840F0010021680860002088
:10214000B2E70000002C01400004004000080040FD
:1021500010B5044603492068884201D1FEF7A4FF68
:1021600010BD0000000800407047704770470146EE
:102170000022002391F8412091F8423042EA030006
:10218000704700002DE9F84F044620680568206874
:10219000C668206847694FF00009CA4605F00F0974
:1021A000B9F1000F0AD105F0200038B106F0200087
:1021B00020B1204601F09EF8BDE8F88FB9F1000F7C
:1021C0007BD007F0010018B906F49070002874D095
:1021D00005F0010030B106F4807018B1606C40F079
:1021E0000100606405F0040030B107F0010018B18F
:1021F000606C40F00200606405F0020030B107F04E
:10220000010018B1606C40F00400606405F0080043
:1022100048B106F0200010B907F0010018B1606C59
:1022200040F008006064606C002845D005F0200094
:1022300028B106F0200010B1204601F05BF82068BC
:102240004069C0F3801A606C00F0080010B9BAF160
:10225000000F2CD0204600F0F4FF2068406900F009
:10226000400000B300BF00BF2168143151E8001FD7
:1022700021F040002168143141E80002002AF3D126
:1022800000BFE06B50B17748E16B4863E06BFEF74D
:10229000BDFB88B1E06B416B88470DE02046FFF73E
:1022A00065FF09E009E02046FFF760FF04E02046F3
:1022B000FFF75CFF002060647EE7206B012877D188
:1022C00005F01000002873D006F010000028FAD0A6
:1022D00000BF0020009020680068009020684068DF
:1022E000009000BF00BF2068406900F04000002857
:1022F0005FD0E06B006840681FFA80F8B8F1000F0B
:1023000055D0A08D404552DDA4F82E80E06B806949
:10231000202843D000BF00BF21680C3151E8001FC6
:1023200021F4807021680C3141E80002002AF3D1C9
:1023300000BF00BF00BF2168143151E8001F21F029
:1023400001002168143141E80002002AF3D100BFE6
:1023500000BF00BF2168143151E8001F21F0400088
:102360002168143141E80002002AF3D100BF202087
:1023700084F842000020206300BF00BF21680C31B8
:1023800051E8001F21F0100021680C3141E80002E3
:10239000002AF3D100BFE06BFEF70CFB0220606364
:1023A000A08DE28D801A81B22046FFF7DEFE03E7A2
:1023B00042E0A08DE18D401A1FFA80F8E08DD0B385
:1023C000B8F1000F37D000BF00BF21680C3151E8D1
:1023D000001F21F4907021680C3141E80002002AAE
:1023E000F3D100BF00BF00BF2168143151E8001FC6
:1023F00021F001002168143141E80002002AF3D1E4
:1024000000BF202084F842000020206300BF00BFEE
:1024100021680C3151E8001F21F0100021680C31B7
:1024200041E80002002AF3D100BF02206063414668
:102430002046FFF79AFEBFE605F0800030B106F0B7
:10244000800018B1204601F071F8B5E605F04000B3
:1024500030B106F0400018B1204600F028FFABE68E
:1024600000BFA9E67931000810B504460CB9012077
:1024700010BDA06900B100E000BF94F8410028B988
:10248000002084F84000204600F02AF8242084F838
:1024900041002068C06820F400502168C8602046D0
:1024A00000F0A6FF2068006920F4904021680861D0
:1024B0002068406920F02A00216848612068C068CF
:1024C00040F400502168C86000206064202084F837
:1024D000410084F842000020606300BFC8E70000AC
:1024E00010B586B004460020029003900490059039
:1024F00065492068884252D100BF6448806940F431
:102500008040624988610846806900F480400190FB
:1025100000BF00BF00BF0846806940F0040088612A
:102520000846806900F00400019000BF00BF481514
:102530000290022003900320059002A95448FEF760
:102540000DFC4FF48060029000200390049002A9DB
:102550004F48FEF703FC4F484F4908601020486081
:1025600000214D4881608021C160002101614161ED
:1025700081614FF48051C161FEF76EFB08B1FEF737
:1025800016FA00BF4448A063446200BF0022052140
:102590002520FEF743FE2520FEF730FE71E03F497F
:1025A000206888426DD100BF3848C06940F40030CF
:1025B0003649C8610846C06900F40030019000BF88
:1025C00000BF00BF0846806940F0040088610846EB
:1025D000806900F00400019000BF00BF0420029059
:1025E000022003900320059002A92948FEF7B6FBBC
:1025F0000820029000200390049002A92448FEF7CE
:10260000ADFB24483C30264908601020486000217A
:10261000234881608021C1600021016141618161A5
:102620004FF40051C161FEF717FB08B1FEF7BFF987
:1026300000BF1B48A063446200BF164828301949F8
:102640000860002048600021164881608021C16038
:1026500000210161416181614FF40051C161FEF7C8
:10266000FBFA08B1FEF7A3F900BF0E48E06344622D
:1026700000BF002205212620FEF7D0FD2620FEF710
:10268000BDFD06B010BD0000003801400010024042
:102690000008014044000240FC10002000440040BB
:1026A000401100208411002070B504460D461646E6
:1026B00094F8420020280BD105B10EB9012070BD5D
:1026C0000020206332462946204600F00FFFF6E73F
:1026D0000220F4E738B505461749286888422AD110
:1026E000164804780D2C01D00A2C12D10020144970
:1026F000144A12788854134908701148FEF7DDF81F
:10270000009000231A4669460F48006801F096F8C9
:102710000BE00C4800781F2807DA0A480178007897
:10272000401C084A107006484454012203490748D7
:10273000FFF7BAFF00BF38BD004400400100002091
:10274000AC0000200000002014000020B410002085
:10275000F7B50446154694F84100202836D1019873
:1027600000B10DB90120FEBD01982062A584E58469
:1027700000206064212084F841001548A16B886224
:102780001448A16BC8621448A16B08630020A16BB8
:10279000486301AE23681A1D31682B46A06BFEF713
:1027A0008FFA6FF040002168086000BF00BF216809
:1027B000143151E8001F41F080002168143141E8D4
:1027C0000002002AF3D100BF0020CCE70220CAE7B4
:1027D000DD310008353200088D310008034A0168F8
:1027E000914202D10021024A11707047004400401A
:1027F00002000020704700BFFEE7000008B500BFE0
:102800001248406940F0010010494861084640699B
:1028100000F00100009000BF00BF002205210E2043
:10282000FEF7FCFC0E20FEF7E9FC0022052110203B
:10283000FEF7F4FC1020FEF7E1FC00220521112038
:10284000FEF7ECFC1120FEF7D9FC08BD0010024099
:1028500010B5124A0821202000F0A2FF104908609C
:10286000104A0021104801F0C4F810490860104ACD
:102870000021104801F0BDF80F4908600F4A0021FF
:102880000F4801F0B6F80F4908600F4A00210F48C1
:1028900001F0AFF80E49086010BD0000B85D0008F7
:1028A00014000020285D0008552D000804000020B9
:1028B0004C5D00083D2D000808000020705D0008F8
:1028C000552E00080C000020945D0008C52D00085E
:1028D0001000002000B585B0002001900290039008
:1028E000049000BF2D48806940F010002B4988619A
:1028F0000846806900F01000009000BF00BF00BFD4
:102900000846806940F0200088610846806900F030
:102910002000009000BF00BF00BF0846806940F063
:10292000040088610846806900F00400009000BF40
:1029300000BF00BF0846806940F008008861084673
:10294000806900F00800009000BF00BF0122510321
:102950001348FEF79DFB012240F203411148FEF7A8
:1029600097FB4FF40050019001200290002003904B
:102970000220049001A90A48FEF7F0F940F2034052
:10298000019001200290002003900220049001A9F0
:102990000448FEF7E3F905B000BD00000010024056
:1029A00000100140000C014000B58BB0242102A8AA
:1029B000FDF76CFD0020009001904FF08040194918
:1029C0000860002048600021164881604FF6FF71C2
:1029D000C160002101618161032002900020039009
:1029E0000120049000200590072006900020079009
:1029F000012008900020099007200A9002A90948A8
:102A0000FFF78AF808B1FDF7D2FF0020009001908F
:102A100069460448FEF7CEFF08B1FDF7C8FF0BB0CA
:102A200000BD0000DC0F002000B589B00020079039
:102A300008901C216846FDF729FD184818490860D0
:102A40004720486000211648816040F2E731C160AC
:102A5000002101618161FFF7C4FA08B1FDF7A7FF0A
:102A600000200790089007A90D48FEF7A3FF08B1C2
:102A7000FDF79DFF602000900020019002900490DF
:102A8000002269460648FFF72AFA08B1FDF78FFFD2
:102A90000348FFF7F7F909B000BD0000000400404B
:102AA0002410002010B50B480B4908604FF4E130AA
:102AB0004860002108488160C16001610C214161CA
:102AC00000218161C161FFF7CFFC08B1FDF76FFF05
:102AD00010BD0000003801406C10002010B50B48FC
:102AE0000B4908604FF4E1304860002108488160DC
:102AF000C16001610C21416100218161C161FFF769
:102B0000B3FC08B1FDF753FF10BD000000440040C6
:102B1000B410002000BFFEE72DE9F05F04460D462B
:102B200016461F46DDE90CABDDE90A8925606660C3
:102B3000A760A4F80C80C4F81090A4F814A0C4F8FE
:102B400018B00E98A0830F98E083109820841198F5
:102B500060841298002801DD012000E0002084F844
:102B600024001398012800D100E0002084F82500FB
:102B70000020E08420856085D4E90001FFF77EFA1B
:102B8000A06920B1A18B0122A069FEF781FABDE8FE
:102B9000F09F70B504460D46B4F92000A84201DA52
:102BA000B4F92050B4F920004042A84202DD208C44
:102BB000404205B294F8240008B1684205B2002DE5
:102BC00004DD608CA84201DD608C05B2002D06DAC0
:102BD000608C4042A84202DA608C404205B2002676
:102BE000208C58B1281E01DB014600E04142E28BF7
:102BF0005143B4F9202091FBF2F18EB2002D21DD7A
:102C0000A1890122A068FEF743FAA18A0022206967
:102C1000FEF73EFA606818B920680068466339E03C
:102C20006068042803D120680068866332E0606829
:102C3000082803D120680068C6632BE0206800687C
:102C4000066427E0002D21DAA1890022A068FEF7A2
:102C50001FFAA18A01222069FEF71AFA606818B9E2
:102C600020680068466315E06068042803D1206886
:102C7000006886630EE06068082803D12068006859
:102C8000C66307E020680068066403E0204600F0A1
:102C900005F80026258530B2608570BD10B5044664
:102CA000606820B9002021680968486313E0606803
:102CB000042804D100202168096888630BE060685B
:102CC000082804D1002021680968C86303E00020B7
:102CD00021680968086494F8250050B9A189002288
:102CE000A068FEF7D5F9A18A00222069FEF7D0F985
:102CF00009E0A1890122A068FEF7CAF9A18A012290
:102D00002069FEF7C5F90020E0842085608510BDAC
:102D100000BFFEE708B508490968C9084FF47A7290
:102D2000B1FBF2F14143009100BF00BF00994A1E80
:102D300000920029F9D108BD2800002000BF4FF4FF
:102D400000510348FEF79AF9C82000F093FCF6E71B
:102D50000010014008B500BF4FF0FF330022694664
:102D60001548006800F0DCFC08BB9DF80000012855
:102D700006D002280AD003280DD0042815D10EE071
:102D80004FF448710D48FFF704FF0FE00C490B4862
:102D9000FFF7FFFE0AE00948FFF780FF06E0BDF9F4
:102DA00002100648FFF7F5FE00E000BF00BF0A2052
:102DB00000F060FCD0E70000140000200C010020AF
:102DC000E0FCFFFF0EB500BF4FF0FF3200210120F5
:102DD00000F0B6FD1548B0F9264015480068456A70
:102DE000FEF75CF907461148B0F92A000F49B1F91E
:102DF000281049422B463A46CDE9004102900DA1E8
:102E00001248FDF73BFA06461148FFF7B0F92028B3
:102E100005D1B2B20D490E48FFF79AFC02E0052039
:102E200000F028FC0A2000F025FCCDE70C01002072
:102E3000DC0F0020256C642C256C642C256C642C24
:102E4000256C642C256C640D0A00000038010020FC
:102E50006C10002000BF12480068406A05B211489B
:102E60000088281A04B2B4F5004F02DDA4F58034BE
:102E700004E014F5004F01DA04F5803409480580B8
:102E800020B20949C8840948006820B101210748D7
:102E9000006800F015FD0A2000F0ECFBDBE7000005
:102EA000DC0F0020180000200C0100201000002082
:102EB00010B54FF0E020006902F07AFC012801D043
:102EC00001F0EAFE10BD00B58FB0282105A8FDF77E
:102ED000DDFA14216846FDF7D9FA012005900004B7
:102EE0000690002007900120099002200C90C10359
:102EF0000D914FF4E0110E9105A8FEF727FB08B1E4
:102F0000FDF755FD0F200090022001900020029057
:102F10004FF4806003900020049002216846FEF781
:102F2000CFF908B1FDF743FD0FB000BD70470000B9
:102F300010B50248FEF7EFFE10BD0000C8110020DA
:102F400010B502681C4B984208D0B0F1804F05D0F4
:102F50001A4B984202D01A4B984203D122F07002C9
:102F60004B681A43144B984208D0B0F1804F05D0FB
:102F7000124B984202D0124B984203D122F4407275
:102F8000CB681A4322F080034C6943EA04020260D2
:102F90008B68C3620B688362074B984201D10B694F
:102FA000036301234361036903F001031BB1036958
:102FB00023F00103036110BD002C01400004004018
:102FC0000008004030B501F01F05012404FA05F3A4
:102FD000046A9C430462046A01F01F0502FA05F5C5
:102FE0002C43046230BD000030B5026A056A25F04A
:102FF000010505624368846924F0700424F0030429
:103000000D682C4322F002028D682A430D4DA84220
:1030100006D100BF22F00802CD682A4322F0040244
:10302000084DA84207D123F4807323F400734D693F
:103030002B438D692B43436084614D684563026275
:1030400030BD0000002C014030B5026A056A25F051
:10305000100505624368846924F4E04424F4407454
:103060000D6844EA052422F020028D6842EA051228
:103070000E4DA84207D100BF22F08002CD6842EA7F
:10308000051222F04002094DA84209D123F48063C1
:1030900023F400634D6943EA85038D6943EA8503A0
:1030A000436084614D688563026230BD002C01403D
:1030B00030B5026A056A25F4807505624368C46903
:1030C00024F0700424F003040D682C4322F40072F1
:1030D0008D6842EA05220F4DA84207D100BF22F4B5
:1030E0000062CD6842EA052222F48062094DA842BE
:1030F00009D123F4805323F400534D6943EA0513A7
:103100008D6943EA05134360C4614D68C56302627B
:1031100030BD0000002C014030B5036A056A25F47B
:10312000805505624468C26922F4E04222F440728C
:103130000D6842EA052223F400538D6843EA053303
:10314000064DA84204D124F480444D6944EA851414
:103150004460C2614D680564036230BD002C0140CB
:1031600010B5012202490348FFF79EFA10BD000086
:1031700001000020B410002070B505466C6A0020E4
:10318000E085E0842046FEF7F1FF70BD70B506468D
:103190000025746A20684069C0F3C01594F84100A6
:1031A000212805D125B10020E084204600F08FF8C9
:1031B00020684069C0F3801594F84200222805D1A8
:1031C00025B10020E085204600F03BF8606C40F01F
:1031D000100060642046FEF7C9FF70BD70B505465B
:1031E0006C6A2868006800F02000F8B90020E084CC
:1031F00000BF00BF2168143151E8001F21F080009A
:103200002168143141E80002002AF3D100BF00BF59
:1032100000BF21680C3151E8001F41F040002168D7
:103220000C3141E80002002AF3D102E02046FFF70A
:10323000D5FA70BD70B50446656A2846FFF7DAFA1C
:1032400070BD00BF00BF02680C3252E8002F22F4AC
:10325000907102680C3242E80013002BF3D100BFDA
:1032600000BF00BF0268143252E8002F22F00101B3
:103270000268143242E80013002BF3D100BF016B47
:1032800001290ED100BF00BF02680C3252E8002FA6
:1032900022F0100102680C3242E80013002BF3D137
:1032A00000BF202180F8421000210163704710B553
:1032B00004462068C06820F040002168C8602020D3
:1032C00084F841002046FFF789FA002010BD00BFB6
:1032D00000BF02680C3252E8002F22F0C0010268E1
:1032E0000C3242E80013002BF3D100BF202180F8FC
:1032F00041107047F8B5044694F84200222875D171
:10330000A068B0F5805F0CD1206950B90025A66A8D
:1033100020684068C0F308003080A06A801CA0626A
:1033200015E0A56A0026A068B0F5805F03D0A0680C
:1033300028B9206918B920684068287004E020681E
:10334000406800F07F002870A06A401CA062E08DF9
:10335000401E80B2E085002846D12068C06820F079
:1033600020002168C8602068C06820F4807021684F
:10337000C8602068406920F0010021684861202071
:1033800084F8420000206063206B012826D10020D1
:10339000206300BF00BF21680C3151E8001F21F0FD
:1033A000100021680C3141E80002002AF3D100BF6F
:1033B0002068006800F0100010280AD100BF00202B
:1033C000009020680068009020684068009000BF6E
:1033D00000BFA18D2046FEF7C8FE02E02046FFF7A1
:1033E00079F90020F8BD01E00020FBE70220F9E7B1
:1033F00070B504462168096921F44051E26811431F
:10340000226811612269A1681143626941EA0205DB
:103410002168C96841F20C62914329432268D16056
:103420002168496921F44071A26911432268516100
:103430002D4A2168914202D1FEF740F801E0FEF7E3
:103440002DF800EBC00101EB001162689200B1FBA6
:10345000F2F100EBC00202EB001263689B00B2FBCA
:10346000F3F26423B2FBF3F202EBC20303EB0212AA
:10347000A1EB8201322202EB01116422B1FBF2F1D5
:1034800001F0F00100EBC00202EB001263689B0048
:10349000B2FBF3F26423B2FBF3F201EB021200EB96
:1034A000C00101EB001163689B00B1FBF3F100EB7D
:1034B000C00303EB00136668B600B3FBF6F36426A3
:1034C000B3FBF6F303EBC30606EB0313A1EB830197
:1034D000322303EB01116423B1FBF3F101F00F017F
:1034E00011442268916070BD0038014010B5034658
:1034F00099629A85DA8500205864222083F8420078
:10350000186928B11868C06840F480701C68E060D1
:103510001868406940F001001C6860611868C06864
:1035200040F020001C68E060002010BD014691F8CA
:103530004100212828D18868B0F5805F0BD1086947
:1035400048B90A6A1088C0F308000B685860086A16
:10355000801C086205E00B6A581C086218780B682A
:103560005860C88C401E80B2C88458B90868C068CA
:1035700020F080000B68D8600868C06840F0400008
:103580000B68D860002070470220FCE710B50248A5
:10359000FEF7F8FD10BD00006C10002010B50248C9
:1035A000FEF7F0FD10BD0000B410002000BFFEE7E4
:1035B00002480068C0F30220704700000CED00E0F4
:1035C00010B5002804DB0A07130E054A135406E061
:1035D0000A07140E034A00F00F031B1FD45410BD3A
:1035E00000E400E018ED00E0EFF305807047000014
:1035F0008AB0FDF765FDFFF766FCFFF76BF9FFF793
:10360000FDF8FFF7D1F9FFF70FFAFFF74BFAFFF7D5
:1036100065FAFFF7A5FD3C211248FEF715FB0120D6
:10362000002132224FF47A73CDE90632CDE9081039
:1036300018464FF480610C4A0223CDE90232CDE9ED
:10364000041001211346CDE9001200220749084861
:10365000FFF762FA00F01EF8FFF7FAF800F030F812
:1036600000BFFEE7DC0F0020000C0140241000200A
:103670000C01002070B50546FFF7B6FF10B16FF0E2
:10368000050404E0002415B1284601F061F9204644
:1036900070BD000010B5FFF7A7FF10B16FF0050473
:1036A00009E00648006820B90120044908600024A8
:1036B00001E04FF0FF34204610BD00007C000020E8
:1036C00070B5FFF791FF10B16FF005041FE01148CE
:1036D0000068012819D100BF801F0021002804DBE9
:1036E0000A07130E0C4A135406E00A07150E0B4A7C
:1036F00000F00F031B1FD55400BF00BF0220054977
:10370000086001F0A1F9002401E04FF0FF342046E9
:1037100070BD00007C00002000E400E018ED00E037
:103720002DE9F84307460D4691461C463E464FF0AC
:103730000008FFF759FFE0B10EB105B114B16FF009
:10374000030828E0002000906A462946304601F030
:10375000ADFD012802D06FF002081CE00098D0B146
:103760004FF080500D490860BFF34F8FBFF36F8F4C
:1037700011E006B115B96FF003080CE022462946A6
:10378000304601F0DFFC012805D014B16FF00108CC
:1037900001E06FF002084046BDE8F88304ED00E068
:1037A0002DE9F84305460E4614464FF00009FFF791
:1037B0001BFF00283ED1002D3CD0002E3AD0471EE2
:1037C000BCB1A06858B1E068502808D3206930B176
:1037D00005FB06F06169814201D301270AE0A06878
:1037E00040B9E06830B9206920B9606910B9002794
:1037F00000E00027012F09D1002000903146284623
:10380000A368226901F08FFA814606E02FB90022F1
:103810003146284601F05AFA8146B9F1000F09D025
:1038200014B1D4F8008001E04FF00008414648464A
:1038300001F052F84846BDE8F88300002DE9F8434E
:1038400007460D4691461C463E464FF00008FFF7DE
:10385000CBFEE8B10EB105B114B16FF003082AE058
:103860000020009000236A462946304601F0ECFB18
:10387000012802D06FF002081DE00098D8B14FF087
:1038800080500E490860BFF34F8FBFF36F8F12E077
:1038900006B115B96FF003080DE000232246294652
:1038A000304601F0FDFA012805D014B16FF001088F
:1038B00001E06FF002084046BDE8F88304ED00E047
:1038C000FEB504460D46264616B105F0004018B177
:1038D0006FF0030002902EE04FF0FF300290FFF7F0
:1038E00083FEE0B10020019001A8002301222946B7
:1038F0000090304601F0AAFE002002AB02460146CD
:103900000090304601F0A2FE0198A0B14FF0805027
:103910000A490860BFF34F8FBFF36F8F0BE000239E
:1039200001222946304601F0FDFD02AB002211467E
:10393000304601F0F7FD0298FEBD000004ED00E006
:103940002DE9FC5F054689461646FFF74DFE10B18E
:103950006FF005044AE005F0004010B16FF0030479
:1039600044E009F00200022802D14FF0000A00E012
:10397000AA460024374601F02BFF009000BF3B46CB
:1039800001AA5146002001F0CBFF8046B8F1010F9B
:1039900022D12C400198044309F0010040B105EA0E
:1039A0000400A84200D120E056B96FF002041CE0E8
:1039B00005EA040000B118E016B96FF0020414E043
:1039C00001F006FF0099A0EB010BBB4501D90027D0
:1039D00008E0A7EB0B0705E016B96FF0020401E061
:1039E0006FF00104B8F1000FC9D100BF2046BDE857
:1039F000FC9F2DE9FF47804689461446002003902E
:103A0000FFF7F2FD00284ED1B8F1000F4BD0802611
:103A100018258246471E44B3206808B1D4F800A098
:103A2000A06900B1A5692DB1382D03D8207900F027
:103A3000010018B1002004B0BDE8F087606908B14A
:103A400060698608A06840B1E0685C2805D32069F9
:103A500018B1606908B1012708E0A06830B9E068D2
:103A600020B9206910B9002700E00027012F0CD1F0
:103A70002169A0684B463246CDE90051029051467B
:103A8000404601F0F1FC03900DE067B903A8B2B223
:103A90004B465146CDE90050404601F0B3FC0128A9
:103AA00001D0002003900398C5E700002DE9F04104
:103AB00005460E461648076816480068001D00F0C7
:103AC000BFFD681C38B936B112480168091D12489B
:103AD00000F00CFE1AE07C190E4800684460BC42FD
:103AE00007D20C480168091D0C48006800F0E4FD8D
:103AF0000CE008480168091D0948006800F0DCFD79
:103B000008480068844201D206480460BDE8F0819C
:103B1000400000202C00002000170020340000206E
:103B2000300000205C00002010B5044600F0EAFDE3
:103B300024480068401C234908602348006840B9B5
:103B4000214804600846006801280DD100F0FCF906
:103B50000AE01E48006838B91B480068C06AE16A7C
:103B6000884201D81848046019480068401C184968
:103B700008600846006860641649E06A096888427F
:103B800002D91449E06A0860E16A01EB8101124A36
:103B900002EB8100211D00F0A9FD00F0DDFD0B48C6
:103BA000006868B108480068C06AE16A884207D2C4
:103BB0004FF0805009490860BFF34F8FBFF36F8FFC
:103BC00010BD00003C0000202C0000204800002018
:103BD00058000020440000205012002004ED00E0B6
:103BE00008B500F08FFD12480068E8B9114800F0F0
:103BF00053FD114800F050FD0E48104908600E4872
:103C00000F49086000200F4B0F4A102100900A2036
:103C100001F089F8064908600846006820B10BA148
:103C20000348006800F058FE00F096FD08BD000053
:103C300070000020141700202817002068000020C2
:103C40006C0000203C1700208C170020546D72512E
:103C50000000000010B516E000F054FD0C48C068EC
:103C6000C468201D00F0ECFC0A480068401E0949A9
:103C7000086009480068401E0749086000F06CFDB4
:103C8000204600F05FF8044800680028E4D110BD29
:103C9000EC1600203C0000203800002070B50446DF
:103CA0000D46206C70B1216CE0680144E160D4E9FC
:103CB0000210884201D32168E1602846226CE16845
:103CC000FCF797FB70BD2DE9F04104460F46154601
:103CD0004FF00008A66B206C48B9206800282CD152
:103CE000A06801F06DFE80460020A06025E07DB94F
:103CF0003946226C6068FCF77CFB216C60680844E4
:103D00006060D4E90101884217D32068606014E044
:103D10003946226CE068FCF76CFB216CE068411AC4
:103D2000E1602168E068884203D2216CA068411AF2
:103D3000E160022D01D106B1761E701CA0634046E1
:103D4000BDE8F08110B5044694F8590030B9206BF5
:103D500000F020FD204600F01DFD1AE094F8590007
:103D6000012803D1204600F015FD12E094F8590017
:103D7000022801D1012000E0002050B900BF5020EE
:103D800080F31188BFF34F8FBFF36F8F00BF00BF69
:103D9000FEE710BD0146084A126812680AB90122FE
:103DA00000E000220A600A6822B9034A1268D26859
:103DB000106800E0002070476800002030B54FF424
:103DC0004063174800F007042CB1C01D20F0070025
:103DD000134C041B1B1B0246124C22600024114D85
:103DE0006C60D018083820F007000F4C20600024C9
:103DF0000D4D2D686C600C4D2D682C601146441AD9
:103E00004C60094C24680C60084D4C682C60084DCF
:103E10004C682C604FF00044064D2C6030BD000013
:103E2000E41E002080000020880000209000002078
:103E30008C0000209C00002000BFFFF70BFF06480D
:103E400000680128F9D94FF0805004490860BFF399
:103E50004F8FBFF36F8FF0E75012002004ED00E0AA
:103E60002DE9F04106460D4617469846069C0DB9C9
:103E7000246000E02760E66325640121204600F00D
:103E8000C3FF84F84C80BDE8F0812DE9F05F8246E5
:103E90000E4690469B460A9F0C9C4FEA8801A5223D
:103EA000206BFCF7EBFAA8F10100216B01EB800914
:103EB00029F0070909F0070008B9012000E00020F7
:103EC00050B900BF502080F31188BFF34F8FBFF36C
:103ED0006F8F00BF00BFFEE786B1002507E0715D70
:103EE00004F134004155705D00B902E06D1C102DE5
:103EF000F5D300BF00214320015502E0002084F8E3
:103F00003400382F00D33727E762E76400202065AC
:103F1000201D00F0CEFB04F1180000F0CAFB246164
:103F2000C7F13800A06164620020606584F8580021
:103F30005A465146484600F071FB20600B9808B184
:103F40000B980460BDE8F09F10B5002407E004EB77
:103F500084010F4A02EB810000F09EFB641C382CA8
:103F6000F5D30C4800F098FB0B4800F095FB0B488C
:103F700000F092FB0A4800F08FFB0A4800F08CFB2F
:103F800004480949086004480849086010BD000059
:103F900050120020B0160020C4160020D8160020B1
:103FA000EC16002000170020300000203400002014
:103FB00010B50146164800E0006803688B42FBD349
:103FC0000246436813448B4204D143684C6823443F
:103FD000436001460A464B6813440468A34211D16A
:103FE0000C4C03682468A34208D04B6804686468DA
:103FF00023444B6003681B680B6005E0054B1B689E
:104000000B6001E003680B60884200D0016010BDC6
:1040100080000020880000202DE9F04104460D4674
:1040200016461F464FF0000865602461B5420CD863
:10403000F01BA169884202D34FF0010811E0211D55
:104040000948006800F038FB0BE0BE4204D2BD42D4
:1040500002D34FF0010804E0211D0448006800F07D
:104060002BFB4046BDE8F0816C000020680000207A
:1040700070B5054600F046FBA86B08B9012400E0C6
:10408000002400F069FB204670BD70B5054600F0C5
:1040900039FBA86BE96B884201D1012400E00024C0
:1040A00000F05AFB204670BDF8B505460F461A4889
:1040B0000068C068C468201D00F0C2FA94F82800A7
:1040C00000F00400E8B1A06941192B463A462046A9
:1040D000FFF7A2FFD8B1002003462A460146009010
:1040E000204601F0C9FD064656B900BF502080F3B6
:1040F0001188BFF34F8FBFF36F8F00BF00BFFEE784
:1041000005E094F8280020F0010084F828002046FB
:10411000216A8847F8BD000068000020F0B587B02C
:10412000A0E00398002811DA04AE56B900BF502071
:1041300080F31188BFF34F8FBFF36F8F00BF00BFB5
:10414000FEE7D6E90020B168904700BF0398002839
:10415000E6DB059C606908B9012000E0002010B989
:10416000201D00F06DFA02A800F0DEF80546039865
:104170000A2875D2DFE800F009050739416306080F
:104180003A4200BF00BF00BF00BF94F8280040F0D3
:10419000010084F828000498A269811803462A4681
:1041A0002046FFF739FFF8B12046216A884794F886
:1041B000280000F00400B8B1002000900498A16924
:1041C000421800231946204601F056FD074657B90C
:1041D00000BF502080F31188BFF34F8FBFF36F8F64
:1041E00000BF00BFFEE700BF3BE000BF94F828001F
:1041F00020F0010084F8280033E000BF94F8280084
:1042000040F0010084F828000498A061A06908B17A
:10421000012000E0002050B900BF502080F3118839
:10422000BFF34F8FBFF36F8F00BF00BFFEE7A069E2
:1042300041192B462A462046FFF7EEFE11E094F87E
:10424000280000F0020018B9204600F0A3FA05E0AB
:1042500094F8280020F0010084F8280001E0FFE72E
:1042600000BF00BF002203A90448006800F06AFFF5
:1042700000287FF456AF07B0F0BD000070000020AA
:10428000F8B505460C4600F03BFC684600F04CF8DB
:104290000646009820BB44B9B54206D801F02EFC72
:1042A00031462846FFF700FF1CE03CB10E4800688D
:1042B000006808B9012000E000200446A91B22463E
:1042C0000A48006800F01EFB01F018FC50B94FF0DE
:1042D000805007490860BFF34F8FBFF36F8F01E035
:1042E00001F00CFCF8BD00006C0000207000002004
:1042F00004ED00E00A490968096809B9012100E0F4
:10430000002121B14FF0FF31064A116006E0044957
:104310000968C968C868034A4168116070470000AD
:10432000300000205C00002070B5044601F050FA17
:10433000054607480068854204D200F00BF80120CA
:10434000206001E00020206001480560284670BD23
:10435000780000202DE9F84334E025480068C06863
:10436000056823480068C068C468201D00F068F92B
:104370002046216A884794F8280000F0040008B31A
:10438000A0694619AE4207D966602461211D18480C
:10439000006800F091F915E0002003462A46014626
:1043A0000090204601F068FC074657B900BF502036
:1043B00080F31188BFF34F8FBFF36F8F00BF00BF33
:1043C000FEE700BF0A480068006808B9012000E065
:1043D00000200028C1D00648D0F8008005480068B9
:1043E000034908600348C0F80080BDE8F883000076
:1043F000680000206C0000200E480068401C08B9CE
:10440000012000E0002050B900BF502080F3118847
:10441000BFF34F8FBFF36F8F00BF00BFFEE700BF3A
:10442000502080F31188BFF34F8FBFF36F8F00BF11
:1044300000BFFEE7A000002008B500BF6846FFF7F8
:10444000A9FC044620460099FFF71AFFFFF766FE15
:10445000F4E770B5044600F055F994F9455010E0C2
:10446000606A08B9012000E0002038B904F1240096
:1044700001F0F8FA18B100F0A5FA00E003E0681EB8
:1044800045B2002DECDC00BFFF2084F8450000F0B1
:1044900063F900F037F994F9445010E0206908B945
:1044A000012000E0002048B904F1100001F0DAFA20
:1044B00008B100F087FA681E45B200E001E0002D67
:1044C000ECDC00BFFF2084F8440000F045F970BD2B
:1044D0002DE9F04104464FF0000800F011FB494877
:1044E000006808B9FFF76AFC4748006820400028C8
:1044F00070D1D4B1083404F00700B0B104F0070063
:10450000C0F10800044404F0070008B9012000E0ED
:10451000002050B900BF502080F31188BFF34F8FA7
:10452000BFF36F8F00BF00BFFEE7002C52D03748AB
:10453000006884424ED8364E3046056801E02E466B
:104540002D686868A04202D228680028F7D12D485B
:10455000006885423ED0306800F108082868306065
:104560006868001B102819D92F1907F0070008B92F
:10457000012000E0002050B900BF502080F31188D6
:10458000BFF34F8FBFF36F8F00BF00BFFEE76868B8
:10459000001B78606C603846FFF70AFD1B496868AD
:1045A0000968081A19490860084600681949096825
:1045B000884203D2154800681649086012496868A5
:1045C0000968084368600020286013480068401CA0
:1045D0001149086001F092FA08F0070008B90120BB
:1045E00000E0002050B900BF502080F31188BFF3D5
:1045F0004F8FBFF36F8F00BF00BFFEE74046BDE89F
:10460000F0810000880000209C0000208C00002029
:10461000800000209000002094000020001F4FF038
:1046200080730360001F21F001030360001F034B30
:10463000036014380260203870470000F943000816
:1046400001460A69D1E901309860D1E90103586057
:104650005068884201D18868506000200861106865
:10466000401E106010687047034B0360034B0B60E3
:1046700080231360704700002C1800208818002049
:10468000034B0360034B0B604FF480731360704760
:10469000881A0020E41A002000F1080141604FF060
:1046A000FF31816000F10801C160016100210160FA
:1046B000704700210161704710B502460B685C1C11
:1046C0000CB9106907E002F1080000E04068446896
:1046D00024689C42FAD944684C604C68A1608860A8
:1046E00041600A611468641C146010BD42684A602D
:1046F00093688B60936859609160086103685B1CE4
:104700000360704700BF502080F31188BFF34F8FC4
:10471000BFF36F8F00BF0E480068401C0C49086053
:1047200008460068012812D10A480068C0B208B9DA
:10473000012000E0002050B900BF502080F3118814
:10474000BFF34F8FBFF36F8F00BF00BFFEE770470F
:10475000A000002004ED00E00D48006850B900BF43
:10476000502080F31188BFF34F8FBFF36F8F00BFCE
:1047700000BFFEE706480068401E0549086008467D
:10478000006820B9002080F3118800BF00BF704787
:10479000A000002070B506463546002E44D0083DE6
:1047A0002C46224960680968084008B1012000E0F1
:1047B000002050B900BF502080F31188BFF34F8F05
:1047C000BFF36F8F00BF00BFFEE7206808B901206C
:1047D00000E0002050B900BF502080F31188BFF3E3
:1047E0004F8FBFF36F8F00BF00BFFEE70F496068B8
:1047F00009680840C0B12068B0B90C496068096810
:104800008843606000F07CF90949606809680844E1
:10481000074908602046FFF7CBFB06480068401CAC
:104820000449086001F06AF970BD00009C00002096
:104830008C0000209800002000204FF0E02108614B
:104840008861064800684FF47A71B0FBF1F0401EB1
:104850004FF0E021486107200861704728000020E0
:1048600070B5FBF7E7FC0446102C16D304F1E020EA
:1048700090F8F05315480078854201DB012000E0F4
:10488000002050B900BF502080F31188BFF34F8F34
:10489000BFF36F8F00BF00BFFEE70D48006800F454
:1048A000E0600C490968884201D8012000E000203E
:1048B00050B900BF502080F31188BFF34F8FBFF372
:1048C0006F8F00BF00BFFEE770BD0000A400002096
:1048D0000CED00E0A8000020024600200BE0084B91
:1048E00053F8303033B9064B43F8301003EBC003B4
:1048F0005A6002E0401C0828F1D300BF7047000056
:10490000101200202DE9F04105460E4617462C46B0
:10491000FFF7F8FE94F94400401C10B9002084F819
:10492000440094F94500401C10B9002084F845006B
:10493000FFF712FFA06B28B93A46314604F1240074
:1049400000F062F82046FFF784FDBDE8F08100002A
:1049500070B504460025D4B11248006808B901209A
:1049600000E0002050B900BF502080F31188BFF351
:104970004F8FBFF36F8F00BF00BFFEE700F0C0F89E
:1049800000212046FFF792F801F0B8F805463DB93E
:104990004FF0805004490860BFF34F8FBFF36F8F13
:1049A00070BD00006400002004ED00E003490968C8
:1049B000016003490968416070470000540000200D
:1049C000400000200120014908607047500000208D
:1049D00070B504460D4654B900BF502080F31188CD
:1049E000BFF34F8FBFF36F8F00BF00BFFEE70548D7
:1049F000016818312046FFF75FFE01212846FFF7C6
:104A000055F870BD2C00002070B505460E461446C2
:104A100055B900BF502080F31188BFF34F8FBFF30B
:104A20006F8F00BF00BFFEE70648016818312846B7
:104A3000FFF75CFE0CB14FF0FF3621463046FFF722
:104A400035F870BD2C00002010B586B00020059010
:104A5000049003AA04A905A8FFF706FE0022DDE9D9
:104A600004101346CDE9002102901EA11F48039AAD
:104A700000F0FAFC1E4908600846006808B10124ED
:104A800000E00024012C02D101F0BAF80446012C08
:104A900015D100BF502080F31188BFF34F8FBFF3B3
:104AA0006F8F00BF4FF0FF3012490860012012499C
:104AB000086000201149086000F072F810E0601CE6
:104AC00008B1012000E0002050B900BF502080F361
:104AD0001188BFF34F8FBFF36F8F00BF00BFFEE79A
:104AE00006B010BD49444C4500000000393E0008A6
:104AF000600000205C0000204800002040000020F2
:104B000002480068401C01490860704764000020AA
:104B10001E48006818B101201D49086034E00020DB
:104B20001B4908601B4801680CE051B900BF5020C8
:104B300080F31188BFF34F8FBFF36F8F00BF00BFAB
:104B4000FEE7491E01EB8100134A52F8200008B924
:104B5000012000E000200028E7D101EB81020E4B8C
:104B600003EB820042685268426000F10802436829
:104B7000934202D14268526842604268D268074B51
:104B80001A600448016000BF704700006400002004
:104B90005000002044000020501200202C00002073
:104BA0001CB53849084600780190FF200A4610706D
:104BB0000846007800909DF8000000F0F0009DF895
:104BC0000020904201D1012000E0002050B900BF38
:104BD000502080F31188BFF34F8FBFF36F8F00BF5A
:104BE00000BFFEE79DF8000000F05000264A10705C
:104BF0000720264A106009E024480068401E234A26
:104C000010609DF800004006000E00909DF8000026
:104C100000F080008028EFD01C480068C0F1070039
:104C2000042801D1012000E0002050B900BF50202D
:104C300080F31188BFF34F8FBFF36F8F00BF00BFAA
:104C4000FEE7124800680002104A10601046008813
:104C500000F4E06010600B4A019810700C48006886
:104C600040F470000A4908600846006840F070404F
:104C70000860FFF7E1FD002006490860FBF7A4FA91
:104C800000201CBD00E400E0A4000020A8000020DB
:104C900020ED00E0A000002010B500BF502080F300
:104CA0001188BFF34F8FBFF36F8F00BF00F096FDE9
:104CB00018B14FF080500449086000BF002080F315
:104CC000118800BF10BD000004ED00E02DE9F8439D
:104CD00005460E4617460DB1012000E0002050B9F0
:104CE00000BF502080F31188BFF34F8FBFF36F8F49
:104CF00000BF00BFFEE705FB06F808F15000FFF714
:104D0000E7FB044664B1A14609F15009002084F88C
:104D100046003B464A46314628460094FFF7A0F835
:104D20002046BDE8F8832DE9F84380460E46174635
:104D30001D46DDF82090B8F1000F01D0012000E001
:104D4000002050B900BF502080F31188BFF34F8F6F
:104D5000BFF36F8F00BF00BFFEE70DB1012000E081
:104D6000002050B900BF502080F31188BFF34F8F4F
:104D7000BFF36F8F00BF00BFFEE707B10EB1012088
:104D800000E0002050B900BF502080F31188BFF32D
:104D90004F8FBFF36F8F00BF00BFFEE707B90EB99B
:104DA000012000E0002050B900BF502080F311889E
:104DB000BFF34F8FBFF36F8F00BF00BFFEE75020E0
:104DC00000900098502801D1012000E0002050B947
:104DD00000BF502080F31188BFF34F8FBFF36F8F58
:104DE00000BF00BFFEE700BF2C464CB1012084F895
:104DF00046004B463A46314640460094FFF730F8AD
:104E00002046BDE8F883000070B505460E462C46E6
:104E100054B900BF502080F31188BFF34F8FBFF308
:104E20006F8F00BF00BFFEE7FFF76CFCD4E90F12E5
:104E3000206801FB0200A0600020A0632068606081
:104E4000E06B401E226C216800FB0211E160FF2034
:104E500084F8440084F845009EB9206908B901200F
:104E600000E00020A8B904F1100000F0FBFD80B1C3
:104E70004FF0805009490860BFF34F8FBFF36F8F29
:104E800007E004F11000FFF707FC04F12400FFF72E
:104E900003FCFFF761FC012070BD000004ED00E0A1
:104EA0002DE9FF4383B0064688461D464FF00009B2
:104EB000344654B900BF502080F31188BFF34F8FA0
:104EC000BFF36F8F00BF00BFFEE7B8F1000F01D145
:104ED000206C08B9012000E0002050B900BF50202C
:104EE00080F31188BFF34F8FBFF36F8F00BF00BFF8
:104EF000FEE7022D02D1E06B012801D1012000E084
:104F0000002050B900BF502080F31188BFF34F8FAD
:104F1000BFF36F8F00BF00BFFEE700F049FC08B988
:104F2000059808B9012000E0002050B900BF5020CA
:104F300080F31188BFF34F8FBFF36F8F00BF00BFA7
:104F4000FEE700BFFFF7DEFBA06BE16B884201D3F9
:104F5000022D28D12A4641462046FEF7B4FE0746D8
:104F6000606A08B9012000E0002068B904F124005B
:104F700000F078FD88B14FF0805032490860BFF3EF
:104F80004F8FBFF36F8F08E03FB14FF080502D4936
:104F90000860BFF34F8FBFF36F8FFFF7DDFB01207A
:104FA00007B0BDE8F083059818B9FFF7D5FB0020DE
:104FB000F6E7B9F1000F04D101A8FFF7F7FC4FF0B5
:104FC0000109FFF7C9FBFFF79BFDFFF79BFB94F976
:104FD0004400401C10B9002084F8440094F94500B6
:104FE000401C10B9002084F84500FFF7B5FB05A967
:104FF00001A800F0C1F9F0B92046FFF746F8A0B1CA
:1050000004F110000599FFF7E3FC2046FFF721FAB1
:1050100000F074FD002895D14FF0805009490860D8
:10502000BFF34F8FBFF36F8F8CE72046FFF711FA66
:1050300000F064FD86E72046FFF70BFA00F05EFD06
:105040000020ADE704ED00E02DE9F84F07468A4661
:1050500090461E463C4654B900BF502080F311884C
:10506000BFF34F8FBFF36F8F00BF00BFFEE7BAF1F2
:10507000000F01D1206C08B9012000E0002050B9D8
:1050800000BF502080F31188BFF34F8FBFF36F8FA5
:1050900000BF00BFFEE7022E02D1E06B012801D164
:1050A000012000E0002050B900BF502080F311889B
:1050B000BFF34F8FBFF36F8F00BF00BFFEE7FFF757
:1050C000CFFB00BF5021EFF3118081F31188BFF3B4
:1050D0004F8FBFF36F8F00BF0546A06BE16B884217
:1050E00001D3022E25D194F945B0A06B0090324631
:1050F00051462046FEF7E7FD0BF1010088B9606AD2
:1051000008B9012000E0002050B904F1240000F0AB
:10511000A9FC28B1B8F1000F02D00120C8F80000A6
:1051200004E00BF1010040B284F845004FF00109A2
:1051300001E04FF0000900BF85F3118800BF484629
:10514000BDE8F88F2DE9F74183B005460E464FF0D4
:1051500000082C4654B900BF502080F31188BFF3DB
:105160004F8FBFF36F8F00BF00BFFEE70EB9206CFB
:1051700008B9012000E0002050B900BF502080F3A2
:105180001188BFF34F8FBFF36F8F00BF00BFFEE7E3
:1051900000F00EFB08B9059808B9012000E00020D6
:1051A00050B900BF502080F31188BFF34F8FBFF379
:1051B0006F8F00BF00BFFEE700BFFFF7A3FAA76B2A
:1051C000F7B131462046FEF769FD781EA0632069DD
:1051D00008B9012000E0002060B904F1100000F0DF
:1051E00041FC38B14FF080502F490860BFF34F8F1A
:1051F000BFF36F8FFFF7B0FA012006B0BDE8F08172
:10520000059818B9FFF7A8FA0020F6E7B8F1000FE3
:1052100004D101A8FFF7CAFB4FF00108FFF79CFA81
:10522000FFF76EFCFFF76EFA94F94400401C10B9CA
:10523000002084F8440094F94500401C10B9002077
:1052400084F84500FFF788FA05A901A800F094F852
:10525000F0B92046FEF70CFFA0B104F12400059937
:10526000FFF7B6FB2046FFF7F4F800F047FC0028F4
:10527000A3D14FF080500C490860BFF34F8FBFF3AC
:105280006F8F9AE72046FFF7E4F800F037FC94E7C9
:105290002046FFF7DEF800F031FC2046FEF7E8FE7E
:1052A00000288AD00020A8E704ED00E02DE9F05F97
:1052B000064689461746344654B900BF502080F34D
:1052C0001188BFF34F8FBFF36F8F00BF00BFFEE7A2
:1052D000B9F1000F01D1206C08B9012000E00020D5
:1052E00050B900BF502080F31188BFF34F8FBFF338
:1052F0006F8F00BF00BFFEE7FFF7B2FA00BF50217B
:10530000EFF3118081F31188BFF34F8FBFF36F8FDD
:1053100000BF0546D4F838A0BAF1000F22D094F9A6
:1053200044B049462046FEF7B9FCAAF10100A0634B
:105330000BF1010070B9206908B9012000E00020DC
:1053400068B904F1100000F08DFB40B13FB10120BD
:10535000386004E00BF1010040B284F844004FF0E3
:10536000010801E04FF0000800BF85F3118800BF7D
:105370004046BDE8F09F000070B505460C4655B9A3
:1053800000BF502080F31188BFF34F8FBFF36F8FA2
:1053900000BF00BFFEE754B900BF502080F3118862
:1053A000BFF34F8FBFF36F8F00BF00BFFEE7FFF764
:1053B000A9F9124802686868131A2068401C08B9E5
:1053C000002617E00E4928680968884204D06868FA
:1053D000904201D801260DE02068984207D9206844
:1053E000C01A20602846FFF7E1FA002602E00020FC
:1053F00020600126FFF7B0F9304670BD4000002064
:10540000540000202DE9FF4F85B08046894617469D
:10541000DDE912ABB800FFF75BF8064656B15C2039
:10542000FFF756F804460CB1266304E03046FFF758
:10543000B1F900E000248CB1002084F85900CDE9D6
:1054400000ABCDE902403A4649464046089BFEF78C
:105450001CFD2046FEF768FB012501E04FF0FF35FB
:10546000284609B0BDE8F08F2DE9F04F85B007461A
:10547000884691469A46DDE90EB6109C0EB1012091
:1054800000E0002050B900BF502080F31188BFF326
:105490004F8FBFF36F8F00BF00BFFEE70CB101203D
:1054A00000E0002050B900BF502080F31188BFF306
:1054B0004F8FBFF36F8F00BF00BFFEE75C200390EC
:1054C00003985C2801D1012000E0002050B900BF02
:1054D000502080F31188BFF34F8FBFF36F8F00BF51
:1054E00000BFFEE700BFB4B1AEB125462C462E6327
:1054F000022085F85900002004A953464A46CDE908
:1055000000B1CDE9025041463846FEF7BEFC2846C0
:10551000FEF70AFB01E000200490049805B0BDE806
:10552000F08F00002DE9F04706460D4617469846D5
:105530004FF0010A56B900BF502080F31188BFF325
:105540004F8FBFF36F8F00BF00BFFEE73446FFF7FA
:10555000D9F8B8F1000F02D0606DC8F8000094F8D7
:105560005890022084F85800052F17D2DFE807F082
:105570001503070B0D00606D2843606521E0606D29
:10558000401C60651DE065651BE0B9F1020F01D0AC
:10559000656501E04FF0000A13E012E0606D401C09
:1055A00008B9012000E0002050B900BF502080F36E
:1055B0001188BFF34F8FBFF36F8F00BF00BFFEE7AF
:1055C00000BF00BFB9F1010F32D1201DFFF738F83D
:1055D0001A49E06A0968884202D91849E06A0860F5
:1055E000E16A01EB8101164A02EB8100211DFFF700
:1055F0007DF8A06A08B9012000E0002050B900BF82
:10560000502080F31188BFF34F8FBFF36F8F00BF1F
:1056100000BFFEE70B49E06A0968C96A884207D9FA
:105620004FF0805008490860BFF34F8FBFF36F8F72
:10563000FFF792F85046BDE8F087000044000020D4
:10564000501200202C00002004ED00E02DE9F84F5E
:1056500007460E4690469946DDF828B00120009096
:1056600057B900BF502080F31188BFF34F8FBFF3AD
:105670006F8F00BF00BFFEE7FFF7F2F83C4600BFA8
:105680005021EFF3118081F31188BFF34F8FBFF3E7
:105690006F8F00BF0546B9F1000F02D0606DC9F8E9
:1056A000000094F858A0022084F85800B8F1050FC3
:1056B00017D2DFE808F01503070B0D00606D3043CB
:1056C000606521E0606D401C60651DE066651BE063
:1056D000BAF1020F01D0666501E00020009013E0EE
:1056E00012E0606D401C08B9012000E0002050B9B4
:1056F00000BF502080F31188BFF34F8FBFF36F8F2F
:1057000000BF00BFFEE700BF00BFBAF1010F3CD1F0
:10571000A06A08B9012000E0002050B900BF502065
:1057200080F31188BFF34F8FBFF36F8F00BF00BFAF
:10573000FEE719480068A0B9201DFEF781FF174950
:10574000E06A0968884202D91449E06A0860E16A9F
:1057500001EB8101124A02EB8100211DFEF7C6FF19
:1057600004E004F118010F48FEF7C0FF0E49E06A9B
:105770000968C96A884208D9BBF1000F02D001202C
:10578000CBF8000001200949086000BF85F31188AB
:1057900000BF0098BDE8F88F64000020440000209E
:1057A00050120020D81600202C00002050000020AD
:1057B0000549096809B9012005E00449096809B9E2
:1057C000022000E000207047480000206400002014
:1057D0000149086870470000400000202DE9F041B1
:1057E0004FF000084348006800287BD14248006819
:1057F000451C4148056015BB40480068006808B971
:10580000012000E0002050B900BF502080F3118833
:10581000BFF34F8FBFF36F8F00BF00BFFEE7374866
:1058200007683748006835490860354807603548DB
:105830000068401C33490860FEF75CFD00BF324839
:10584000006885423BD300BF2C480068006808B957
:10585000012000E0002020B14FF0FF302A4908600D
:105860002CE026480068C068C4686668B54202D269
:105870002548066022E0201DFEF7E2FEA06A18B16E
:1058800004F11800FEF7DCFE2049E06A096888424E
:1058900002D91E49E06A0860E16A01EB81011C4AF5
:1058A00002EB8100211DFEF721FF1A49E06A096819
:1058B000C96A8842C8D34FF00108C5E700BF154840
:1058C0000068C06A00EB8000114951F820000128EF
:1058D00001D94FF001081048006808B14FF00108E5
:1058E00005E0FFE70D480068401C0C490860404691
:1058F000BDE8F0816400002040000020300000205E
:1059000034000020540000205C00002044000020EF
:10591000501200202C000020500000204C000020DD
:105920002DE9F0410746884614461D46FEF7EAFE7B
:105930002148006890F85800022818D01E490968CC
:1059400001F15400496DB943016001201A49096809
:1059500081F858005DB101212846FEF7A7F84FF005
:10596000805016490860BFF34F8FBFF36F8FFEF76B
:10597000F3FEFEF7C7FE1CB10F480068406D2060C3
:105980000D48006890F85800022801D0002608E071
:105990000949096801F15400496D21EA08010160D3
:1059A000012600200449096881F85800FEF7D4FE5A
:1059B0003046BDE8F08100002C00002004ED00E03E
:1059C00070B505462C460026002D43D022480068BD
:1059D000844201D1012000E0002050B900BF5020D6
:1059E00080F31188BFF34F8FBFF36F8F00BF00BFED
:1059F000FEE7206D50B900BF502080F31188BFF33F
:105A00004F8FBFF36F8F00BF00BFFEE7206D401EBA
:105A10002065E16CE06A88421CD0206DD0B9201D61
:105A2000FEF70EFEE06CE062E06AC0F13800A061B3
:105A30000A49E06A0968884202D90849E06A0860B0
:105A4000E16A01EB8101064A02EB8100211DFEF7AC
:105A50004DFE0126304670BD2C0000204400002081
:105A60005012002070B50646F068C46854B900BFF3
:105A7000502080F31188BFF34F8FBFF36F8F00BFAB
:105A800000BFFEE704F11800FEF7DAFD15480068D4
:105A9000A0B9201DFEF7D4FD1349E06A09688842C9
:105AA00002D91149E06A0860E16A01EB81010F4AFD
:105AB00002EB8100211DFEF719FE04E004F118013C
:105AC0000B48FEF713FE0B49E06A0968C96A884271
:105AD00004D9012501200849086000E00025284676
