:020000040800F2
:1000000018070020910100089F1900082117000817
:100010009D190008BD050008A31B00080000000092
:10002000000000000000000000000000A719000808
:10003000BF05000800000000A5190008A919000864
:10004000AB010008AB010008AB010008AB010008E0
:10005000AB010008AB010008AB010008AB010008D0
:10006000AB010008AB010008AB010008AB010008C0
:10007000AB010008AB010008AB010008AB010008B0
:10008000AB010008AB010008CD040008AB0100087B
:10009000AB010008AB010008AB010008AB01000890
:1000A000AB010008AB010008AB010008AB01000880
:1000B000AB010008AB010008AB010008AB01000870
:1000C000AB010008AB010008AB010008AB01000860
:1000D000AB010008AB010008AB010008AB01000850
:1000E000AB010008AB010008AB01000800F002F80A
:1000F00000F03FF80AA090E8000C82448344AAF183
:100100000107DA4501D100F034F8AFF2090EBAE880
:100110000F0013F0010F18BFFB1A43F0010318473B
:10012000181B0000381B0000103A24BF78C878C1A3
:10013000FAD8520724BF30C830C144BF04680C60ED
:10014000704700000023002400250026103A28BF35
:1001500078C1FBD8520728BF30C148BF0B60704739
:10016000642900F07D80002070471FB51FBD10B5C9
:1001700010BD00F070F91146FFF7F7FF01F022FD06
:1001800000F08EF903B4FFF7F2FF03BC00F096F91C
:100190000948804709480047FEE7FEE7FEE7FEE71B
:1001A000FEE7FEE7FEE7FEE7FEE7FEE70448054957
:1001B000054A064B70470000271A0008ED000008AA
:1001C0001801002018070020180300201803002041
:1001D0000FB41CB5074B06AA7B44694600900598EE
:1001E00000F021F90020694600F030F91CBC5DF8F0
:1001F00014FB0000710200002DE9F0410E46044698
:10020000002020622046E168884730B3252805D0C9
:10021000D4E901219047206A401CF2E7E1682046BA
:1002200000278847050018D0A5F14100192802D8F9
:1002300020354FF400673246294620462760FFF7F5
:100240008FFF40B1012804D0F61D26F007060836BE
:10025000D8E7361DD6E72846DAE7206ABDE8F08100
:100260002DE9F0410646002410687529314616A58F
:1002700010D0AFF30080002802DA404213A507E057
:1002800031688A0701D512A502E0490704D511A5F6
:10029000012401E0AFF3008000210A2206F12407C7
:1002A00009E0B0FBF2FCB0FBF2F302FB1C003030C3
:1002B00078541846491C0028F3D123462A46304674
:1002C000BDE8F04100F051B8000000002D00000032
:1002D0002B0000002000000010B5431C02E010F8C5
:1002E000011B71B18107FAD14FF0013202C88C1A9B
:1002F0008C4314EAC211F9D0C01A0A0603D0C01EFA
:1003000010BDC01A10BD0A0401D0801E10BD090224
:10031000FCD0401E10BD4FF0000200B513469446BD
:100320009646203922BFA0E80C50A0E80C50B1F14D
:100330002001BFF4F7AF090728BFA0E80C5048BF61
:100340000CC05DF804EB890028BF40F8042B08BFFF
:10035000704748BF20F8022B11F0804F18BF00F8FB
:10036000012B70477047704770472DE9F0470D46E5
:1003700099469246044600F124080168880604D58F
:10038000E06921F01001216000E00120A84201DDB8
:10039000471B00E00027A1697A1902EB0900081A3F
:1003A000A0612078C00602D42046AFF3008000266A
:1003B00008E0D4E901211AF806009047206A401CA1
:1003C000761C20624E45F4DB2078C0060AD5204614
:1003D000AFF3008006E0D4E9012130209047206A85
:1003E000401C2062381EA7F10107F4DC07E0D4E9C5
:1003F000012118F805009047206A401C2062281E41
:10040000A5F10105F3DC2046AFF30080207800065B
:1004100002D50220BDE8F0870120FBE701694A1CF4
:1004200002610878704700B58FB0CDE90131002135
:10043000059105497944CDE9031011466846FFF757
:10044000DBFE0FB000BD0000E5FFFFFF0A6802F809
:10045000010B0A607047754600F02CF8AE460500A7
:100460006946534620F00700854618B020B5FFF7CF
:100470009DFEBDE820404FF000064FF000074FF012
:1004800000084FF0000B21F00701AC46ACE8C009B2
:10049000ACE8C009ACE8C009ACE8C0098D467047BB
:1004A00010B50446AFF300802046BDE81040FFF7CA
:1004B00069BE000000487047B800002001491820BC
:1004C000ABBEFEE7260002007047000010B50448EE
:1004D00000F0FCF8BDE81040024800F0F7B800005A
:1004E000100000204000002070B5044600688168BC
:1004F000C943C90717D1816821F00101816000F06B
:100500005BFC05460AE000BF00F056FC401B0228D9
:1005100004D920688068C043C00706D0206880687E
:10052000C043C007F0D0002070BDA06A40F01000AA
:10053000A062E06A40F00100E062012070BD0000AE
:10054000F8B500260446009600688168C943C907CB
:100550002DD0816841F0010181601648164900687C
:10056000B0FBF1F000E0401E00900028FBD100F04D
:1005700023FC054616E000BF00F01EFC401B0228CD
:1005800010D920688068C043C0070BD0A06A40F033
:100590001000A062E06A40F00100E06284F824608C
:1005A0000120F8BD20688068C043C007E4D1002066
:1005B000F8BD00000C00002040420F00FEE770472D
:1005C00072B6FEE770470000F8B50024009490F87A
:1005D00024202546012A12D0012280F824204A68CE
:1005E0001F23072A0DD20668776B521E02EB820288
:1005F00093409F430B6893401F43776319E00220A9
:10060000F8BD06680D2A0AD2376BD21F02EB8202B0
:1006100093409F430B6893401F43376309E0F76A99
:100620000D3A02EB820293409F430B6893401F43B5
:10063000F7620A68072306680A2A0AD3F7680A3AA3
:1006400002EB420293409F438B6893401F43F76045
:1006500008E0376902EB420293409F438B68934066
:100660001F4337610A68102A01D0112A20D1124B8A
:1006700002689A4217D193681B0219D4936843F415
:10068000000393600968102912D10C490C4A0968CB
:10069000B1FBF2F101EB8101490000E0491E00913C
:1006A0000029FBD104E0816A41F02001816201242C
:1006B00080F824502046F8BD002401400C000020A2
:1006C00040420F0070470068C06C704770B5044628
:1006D000006806684568A90625D5B10723D5A16A33
:1006E000C90603D4A16A41F40071A1628168C1F313
:1006F0004241072910D1217B71B9416821F02001C5
:100700004160A06A20F48070A062A06AC00403D493
:10071000A06A40F00100A0622046FFF7D3FF2168E5
:100720006FF01200086028062ED570072CD5A06A3D
:10073000C00603D4A06A40F40050A062206881681B
:10074000C1F30231072909D04168490515D48168F0
:10075000C1F34241072910D1217B71B9416821F0D1
:1007600080014160A06A20F48050A062A06AC005A8
:1007700003D4A06A40F00100A0622046FFF722FFE8
:1007800021686FF00C00086068060CD5F0070AD0ED
:10079000A06A40F48030A062204600F093F82168FF
:1007A0006FF00100086070BD2DE9F0414FF00007C7
:1007B00004003D467ED0A06A002628B9E66284F88F
:1007C0002460204600F080F82046FFF78DFEA16AE5
:1007D000C90600D420B1A06A40F01000A06269E010
:1007E000A16A21F4885141F00201A1626268E169C5
:1007F000237B0A4347EA43010A43A1684FF4807709
:10080000B94209D0012907D05FF0000194F814C063
:10081000BCF1010F02D00AE03946F7E7F3B1A36A51
:1008200043F02003A362E36A43F00103E362236819
:10083000D3F804C02CF4694C4CEA010CC3F804C092
:1008400021688B68DFF870C003EA0C0313438B60E8
:10085000A168B9420BD0012909D00CE0DFF85CC0D7
:10086000A3690CEB43330B4343F40061DFE7218AB8
:100870000D05A5F580152168CB6A23F470032B4381
:10088000CB62216889680E4B1940914208D1E6621B
:10089000A16A21F0020141F00101A162BDE8F081ED
:1008A000A06A20F0020040F01000A062E06A40F070
:1008B0000100E0620120F1E7FDF7E1FF00E0FFFF4A
:1008C000FE0E1FFF7047000010B586B0002100919A
:1008D0000191029103911E4C03681E4903221E4898
:1008E000A34212D18B6943F400738B618B6903F4CB
:1008F000007304938B6943F004038B618969009250
:1009000001F004010192049115E0144CA3421DD1A1
:100910008B6943F480638B618B6903F48063049378
:100920008B6943F004038B61896901F00401049130
:100930003021CDE90012694600F03CF90022114651
:10094000122000F0A5FA122000F094FA06B010BDB3
:10095000002401400010024000080140002801402E
:100960002DE9F84300270D460446009700F024FACD
:10097000804620688168C90508D5A06A40F020003B
:10098000A06284F824700120BDE8F8834168C9059D
:1009900003D4C06A10F4700F2AD0022000F0AAFA23
:1009A0003B490968B1FBF0F62068036939490B42FD
:1009B0004FEA61014FEAA1121FD1C3684FEA611CDF
:1009C00013EA0C0F19D103690B4225D1C0681042FC
:1009D00022D1142023E0681C0AD02DB100F0ECF9DC
:1009E000A0EB0800A84203D920680068800725D53D
:1009F000206800688007EED52DE003690B4202D124
:100A0000C168114206D0026923490A4206D1C06872
:100A1000084203D1542002E0292000E0FC20464394
:100A2000009816E0681C11D02DB100F0C5F9A0EBBC
:100A30000800A8420AD90098B04207D2A06A40F044
:100A40000400A06284F8247003209DE70098401CF5
:100A50000090B042E6D321686FF012000860A06AEF
:100A600040F40070A06220688068C0F3424007280C
:100A70000CD1207B50B9A06A20F48070A062A06ADB
:100A8000C00403D4A06A40F00100A06200207BE70C
:100A90000C000020244992244992240070B5044699
:100AA00090F8240001280DD0012084F8240020466D
:100AB000FFF746FD02004FF0000005D084F8240047
:100AC000104670BD022070BDA16A40F20123994317
:100AD00041F48071A1621F4D23681F49AB4218D1B8
:100AE0000E6816F4702F14D0A66A46F48016A6621B
:100AF0000E68760505D5A66A26F4005646F480569B
:100B0000A662A66AF6040AD5E66A26F00606E6623A
:100B100006E0A66A26F48016A6625E68E9E7E0624F
:100B200084F824006FF00200186020688368C3F323
:100B30004243072B05D1A84208D1096811F4702F50
:100B400004D0816841F480118160B9E7816841F483
:100B5000A001F9E7002801400424014010B5044633
:100B600090F82400012807D0012084F824002046B2
:100B7000FFF7BAFC10B107E0022010BDA16A21F412
:100B8000885141F00101A162002184F8241010BDB8
:100B900070B5044600F010F90546601C02D0044808
:100BA0000078044400F008F9401BA042FAD370BD5D
:100BB000000000202DE9F84FDFF8B8910024A9F1DA
:100BC000040B23460F2709F1040AABF1040EC9E018
:100BD0000125A5402A40AA427DD1674ED1F804C024
:100BE000ACEB0608B44532D014DCBCF1030F3AD0AC
:100BF00009DCBCF1000F2AD0BCF1010F1CD0BCF104
:100C0000020F31D11DE0BCF1110F17D0BCF1120F52
:100C10002AD119E0B8F5881F19D006DCB8F5803F55
:100C200015D0B8F5801F1FD111E0B8F5001F0ED008
:100C3000B8F5041F18D10AE0CB6815E0CB681B1D7E
:100C400012E0CB6808330FE0CB680C330CE08B6804
:100C50002BB1012B4FF0080303D0456104E00423BE
:100C600002E0056100E00023FF2A01D8064601E00A
:100C700000F104064FEA840501D9A5F12005D6F854
:100C8000008007FA05FC28EA0C0803FA05F548EA93
:100C90000508C6F800804D68ED0062D5374DAE6995
:100CA00046F00106AE61AD6924F0030605F00105CA
:100CB0000095334D06EB050CDCF80850A607360FFF
:100CC00007FA06F825EA0805DFF8B880404503D1A1
:100CD0004FF0000817E044E0DFF8AC80404502D157
:100CE0004FF001080FE0DFF8A480404502D14FF03B
:100CF000020808E0DFF89880404502D14FF0030871
:100D000001E04FF0040808FA06F848EA0508CCF8B4
:100D100008804D68D9F80060ED024D4601D51643B4
:100D200000E096432E604D68DAF80060AD0255464B
:100D300001D5164300E096432E604D68DBF8006055
:100D4000AD035D4601D5164300E096432E604D6825
:100D5000DEF80060ED03754601D5164300E09643CA
:100D60002E60641C0D682A46E5407FF431AFBDE873
:100D7000F88F00000804014000001110001002402C
:100D80000000014000080140000C0140001001403B
:100D9000001401408068084000D001207047C268FC
:100DA00021EA02030A4043EA0241016170470AB1A5
:100DB000016170470904FBE7014880687047000043
:100DC0000000002002488168027811448160704769
:100DD00000000020074810B5016841F010010160D3
:100DE000032000F075F80F2000F006F800F024F85A
:100DF000002010BD0020024070B50D4D04464FF498
:100E00007A712878B1FBF0F00A490968B1FBF0F07B
:100E100000F0B8FB48B9102C07D200222146501E22
:100E200000F036F800206C6070BD012070BD00003D
:100E3000000000200C0000200C4808B5816941F03A
:100E400001018161816901F001010091C16941F0F5
:100E50008051C161C06900F0805000900448416831
:100E600021F0E06141F00071416008BD00100240D6
:100E700000000140002809DB00F01F020121914021
:100E80004009800000F1E020C0F800117047000028
:100E9000F0B40E4B1B680C46C3F30223C3F10705E5
:100EA000042D00D90425191D072901D2002300E0D3
:100EB000DB1E012606FA05F1491E214099409E409D
:100EC000761E16403143F0BC00F06CBE0CED00E025
:100ED000064900F0070208684FF6FF03184040EA91
:100EE0000220034A10430860704700000CED00E048
:100EF0000000FA0510B501460020234C012922D03C
:100F0000022939D010291DD161682268D20119D572
:100F10001E48C1F38342C903805C0AD561681B4A3D
:100F2000C1F34041921E515C194AB2FBF1F14843B2
:100F300001E0184948436168490203D44000032195
:100F4000B0FBF1F010BD226AC2F30121012903D1E7
:100F5000920701D5C80310BD022905D1626A920724
:100F600002D549F6404010BD0329FCD12168890310
:100F7000F9D54FF2244010BD00F032F96168C1F399
:100F80008131491C4900DBE700100240101C0008B9
:100F900000127A0000093D002DE9F843054600786B
:100FA000354CC00754D0E0690026C00008D4E06981
:100FB00040F08050E061E069012600F08050009030
:100FC0002E480168C90512D40168804641F4807139
:100FD0000160FFF7F1FE074605E000BFFFF7ECFEFA
:100FE000C01B642823D8D8F80000C005F6D5206AB5
:100FF00010F4407021D0A98801F4407181421CD0C6
:10100000206A1F49012220F440700A6000220A6011
:101010002062C00711D0FFF7CFFE074641F28838A3
:1010200008E000BFFFF7C8FEC11B414502D90320FD
:10103000BDE8F883206A8007F4D5206A696820F447
:101040004070084320621EB1E06920F08050E061EA
:101050002878800705D56068A96820F440400843D7
:1010600060602878C00605D56068E96820F48000D3
:10107000084360600020DBE7001002400070004081
:1010800040044242704700002DE9F0470F4605003A
:1010900061D0434E306800F00700B84209D2306892
:1010A00020F0070038433060306800F00700B84295
:1010B00051D128683B4C810712D5400703D56068A1
:1010C00040F4E06060602878000703D5606840F471
:1010D000605060606068A96820F0F00008436060BC
:1010E0002878C00728D06868012810D02168022815
:1010F00010D0890700292EDA616821F0030101432D
:101100006160FFF759FE804641F288390DE02168A1
:101110008903EFE78901EDE7FFF74EFEA0EB080139
:10112000494502D90320BDE8F0876068696800F08E
:101130000C00B0EB810FEFD1306800F00700B8422F
:101140000BD9306820F0070038433060306800F079
:101150000700B84201D00120E5E72878400705D50F
:101160006068E96820F4E060084360602878000760
:1011700006D56068296920F4605040EAC1006060CB
:1011800000F03EF86168084AC1F30311515CC840A1
:101190000649086006480068FFF72EFE0020C2E7F7
:1011A0000020024000100240201C00080C0000201B
:1011B0000400002001490120C86470470000424239
:1011C0000448054900684968044AC1F30221515C9A
:1011D000C84070470C00002000100240301C00087E
:1011E0000448054900684968044AC1F3C221515CBA
:1011F000C84070470C00002000100240301C00085E
:101200000E4A51680E4801F00C03042B11D0082B34
:101210000FD10C48C1F38343C903C05C0AD55168A0
:10122000084AC1F34041921E515C054A5043B0FB4D
:10123000F1F0704704494843704700000010024035
:1012400000127A00FE1B000800093D0010B5044C96
:10125000A068000603D5FFF715FF8020A07210BD1F
:10126000001002402DE9F84F040070D02078C04DE6
:10127000C00749D06868C0F38100012807D06868BA
:10128000C0F38100022809D16868C00306D5286828
:10129000800339D560680028E7D035E06068B0F594
:1012A000803F0BD010B1B0F5A02F11D0286820F4EA
:1012B00080302860286820F4802002E0286840F40C
:1012C00080302860606890B1FFF776FD06460AE03E
:1012D000286840F480202860F0E700BFFFF76CFD2D
:1012E000801B642873D828688003F7D50CE0FFF7CB
:1012F00063FD064605E000BFFFF75EFD801B642826
:10130000F0D828688003F7D420789A4E80074FF0F1
:1013100001094FF0000839D5686810F00C0F07D0AC
:101320006868C0F38100022809D16868C00306D448
:101330002868800714D52069012808D110E02069A9
:10134000B0B1C6F80090FFF737FD074605E00AE1A7
:10135000FFF732FDC01B0228C4D828688007F7D5E4
:101360002868616920F0F80040EAC10028600DE0BB
:10137000C6F80080FFF720FD074604E0FFF71CFDDC
:10138000C01B022823D828688007F7D420780007DC
:101390002CD57948A169D9B1C0F80090FFF70CFDB0
:1013A000074604E0FFF708FDC01B02280FD8686A53
:1013B0008007F7D571484FF4FA510068B0FBF1F09F
:1013C000009000BF0098411E0091FAD20EE080E02C
:1013D000C0F80080FFF7F0FC074604E0FFF7ECFCE4
:1013E000C01B022875D8686A8007F7D420784007A8
:1013F00060D5E8690027C00008D4E86940F0805053
:10140000E861E869012700F0805000905C480168BD
:10141000C90513D40168834641F480710160FFF768
:10142000CBFC824606E000BFFFF7C6FCA0EB0A003B
:1014300064284ED8DBF80000C005F5D5E068012827
:101440000AD008B1052813D0286A20F001002862CC
:10145000286A20F0040002E0286A40F001002862B7
:10146000E06841F2883B98B1FFF7A6FC82460BE0AA
:10147000286A40F004002862EEE700BFFFF79CFCFA
:10148000A0EB0A0159455AD8286A8007F6D50CE026
:10149000FFF792FC824605E0FFF78EFCA0EB0A0105
:1014A00059454CD8286A8007F6D41FB1E86920F066
:1014B0008050E861E06988B36968C1F3810102295D
:1014C00044D00228C6F8608004D0FFF775FC0446BB
:1014D00038E034E0FFF770FC074604E0FFF76CFCEF
:1014E000C01B02282BD828688001F7D4206AB0F5E9
:1014F000803F05D16868A16820F400300843686027
:10150000D4E908010843696821F47411084368604C
:10151000C6F86090FFF750FC044606E025E000BFE7
:10152000FFF74AFC001B022809D828688001F7D57C
:101530001BE000BFFFF740FC001B022802D903207C
:10154000BDE8F88F28688001F4D40EE00128F7D0B8
:101550006868226A00F48031914204D1616A00F423
:101560007010884201D00120EAE70020E8E700007F
:101570000010024000004242800442420C00002061
:101580000070004010B5401EB0F1807F01D30120F3
:1015900010BD4FF0E02460610F21601700F002FBE6
:1015A0000020A06107202061002010BD70B504005C
:1015B00004D094F84100002510B106E0012070BD70
:1015C00084F84050204600F023F8242084F841009D
:1015D0002068C16821F40051C160204600F04CFA37
:1015E0002068016921F4904101612068416921F07E
:1015F0002A0141612068C16841F40051C1606564FD
:10160000202084F8410084F842006563002070BD0A
:1016100030B585B0002400940194029403940068CE
:101620001449884224D11448816941F48041816180
:10163000816901F480410491816941F00401816173
:1016400080690E4D00F0040004904FF4007000908B
:10165000022001900320039069462846FFF7AAFA6A
:101660002815CDE90004694628460294FFF7A2FA3E
:1016700005B030BD003801400010024000080140B4
:101680002DE9F843044690F84100984616460D4669
:10169000202802D00220BDE8F88385B17EB1002069
:1016A0006064212084F84100FFF786FBA684814610
:1016B000E684A0682027B0F5805F02D003E0012017
:1016C000E9E7206910B12E4600250EE000260CE067
:1016D0008021204600F02CFAA8B9C6B116F8010BFB
:1016E00021684860E08C401EE084E08C4B464FF05F
:1016F0000002CDF800800028EAD14FF040012046DA
:1017000000F016FA40B184F841700320C3E735F8C1
:10171000020BC0F30800E3E784F841700020BAE749
:10172000FEE700002DE9F04399B02C48FFF7B6F929
:101730004FF0FF3421462948FFF712F92748FEF7FA
:10174000C2FF1FFA80F921462448FFF709F9234810
:10175000FEF7B9FF1FFA80F82048FFF7FFF920488D
:10176000FFF79CF921461E48FFF7FAF81C48FEF7E0
:10177000AAFF86B221461A48FFF7F2F81848FEF78A
:10178000A2FF85B21648FFF7E9F9164F0421384643
:10179000FFF700FB044608213846FFF7FBFAC4B107
:1017A0000021C0B10020CDE90016CDE9025043462A
:1017B0004A460DA104A8FEF70BFD04A8FEF78CFD18
:1017C00082B20A2304A90D48FFF75AFF19B0BDE8F9
:1017D000F0830121E5E70120E5E70000100000208B
:1017E000400000200008014025642C25642C25645D
:1017F0002C25642C25642C25640D0A007000002023
:10180000FEB5002416480094019414490294016026
:1018100089158160012505730475022606614FF460
:1018200060214460C161FEF7BFFF08B1FEF7C8FE4A
:1018300005200094CDE9015069460948FEF7C4FE31
:1018400008B1FEF7BDFECDE9005669460448FEF733
:10185000BBFE002801D0FEF7B3FEFEBD0024014010
:10186000100000203EB50021174800910191154A53
:1018700002910260921582600124047301750225B1
:101880004FF460220561C2614160FEF78DFF08B12F
:10189000FEF796FE0420CDE90004052469460A48B7
:1018A0000294FEF791FE08B1FEF78AFE69460648EB
:1018B000CDE90045FEF788FE002801D0FEF780FE46
:1018C0003EBD000000280140400000202DE9F0410D
:1018D00086B0002420480094019402940394816906
:1018E00041F010018161816901F010010491816969
:1018F00041F020018161816901F020010491816939
:1019000041F0040181618069012200F00400134F5D
:101910005503049029463846FFF749FADFF840801E
:1019200001220C214046FFF742FA009502260125CC
:101930000396CDE9015469463846FFF73BF90C2080
:10194000CDE90005CDE9024669464046FFF732F988
:1019500006B0BDE8F0810000001002400010014018
:10196000000801400C4810B50A4901604FF4E1310C
:101970004160002181600C22C160C0E904128161D4
:10198000C161FFF713FE002803D0BDE81040FEF749
:1019900017BE10BD0038014070000020FEE7FFF7C1
:1019A00055FCFEE770477047FFF70CBA30B593B0AF
:1019B00028216846FEF7AFFC14210AA8FEF7ABFC0D
:1019C000002501200F9510951195010412958DE8C1
:1019D000230004904FF4E010CDE90810022407948E
:1019E0006846FFF73FFC08B172B6FEE70AA90F2070
:1019F00081E831004FF48060CDE90D0502210AA88D
:101A0000FFF742FB08B172B6FEE74FF400401190B9
:101A10000F940FA8FFF7C0FA08B172B6FEE7FFF700
:101A2000C9FB13B030BD704701680C3151E8002F7D
:101A300022F4907241E80023002BF5D101681431A3
:101A400051E8002F22F0010241E80023002BF5D1DC
:101A5000016B012909D101680C3151E8002F22F0F6
:101A6000100241E80023002BF5D1202180F842101C
:101A7000002101637047000070B5044600680169E9
:101A8000E26821F44051114301612169A0680843D3
:101A9000616908432168CA6841F20C639A430243B2
:101AA000CA6020684169A26921F440711143416113
:101AB0001E492068884202D1FFF792FB01E0FFF740
:101AC0007FFB00EBC00101EB001260686421800025
:101AD000B2FBF0F3B3FBF1F36FF018067343B2FB04
:101AE000F0F5B2FBF0F605EB8305322303EB0515A9
:101AF000B5FBF1F5B6FBF1F605F0F00505EB0615C3
:101B0000B2FBF0F6B2FBF0F0B0FBF1F06FF01802B0
:101B1000504306EB800003EB0010B0FBF1F02168AE
:101B200000F00F002844886070BD000000380140BC
:101B30002DE9F843984617460D460446089E24E0D2
:101B4000701C22D0FFF738F9A0EB0800B0421AD879
:101B5000CEB12068C168490717D5802D15D0402D1A
:101B600013D00168C94309070FD4016800254068F4
:101B700000902046FFF758FF0820606484F840502A
:101B80000120BDE8F8830320FBE72068006835EA00
:101B9000000004D00020B842D2D00020F1E701209C
:101BA000F9E7FEE70907090E002804DB00F1E02051
:101BB00080F80014704700F00F0000F1E02080F87A
:101BC000141D7047FFF706F9FFF7F0FEFFF77EFEE2
:101BD000FFF716FEFFF746FEFFF7C4FE064D4FF473
:101BE000005400BFFFF79EFD21462846FFF7D7F8B7
:101BF0003220FEF7CDFFF5E700100140010202039D
:101C00000405060708090A0B0C0D0E0F101001023F
:101C100002030405060708090A0B0C0D0E0F10102D
:101C2000000000000000000001020304060708098C
:101C30000000000001020304581C000800000020FE
:101C40001000000028010008681C00081000002097
:101C50000807000044010008010000001000000017
:081C60000000000000127A00F0
:04000005080000ED02
:00000001FF
