:020000040800F2
:10000000180700209101000859200008971D0008DA
:1000100055200008D1050008152300080000000045
:100020000000000000000000000000008D2000081B
:10003000D505000800000000612000088F2000089E
:10004000AB010008AB010008AB010008AB010008E0
:10005000AB010008AB010008AB010008AB010008D0
:10006000AB010008AB010008AB010008AB010008C0
:10007000AB010008AB010008AB010008AB010008B0
:10008000AB010008AB010008CD040008AB0100087B
:10009000AB010008AB010008AB010008AB01000890
:1000A000AB010008AB010008AB010008AB01000880
:1000B000AB010008AB010008AB010008AB01000870
:1000C000AB010008AB010008AB010008AB01000860
:1000D000AB010008AB010008AB010008AB01000850
:1000E000AB010008AB010008AB01000800F002F80A
:1000F00000F03FF80AA090E8000C82448344AAF183
:100100000107DA4501D100F034F8AFF2090EBAE880
:100110000F0013F0010F18BFFB1A43F0010318473B
:10012000A0220000C0220000103A24BF78C878C185
:10013000FAD8520724BF30C830C144BF04680C60ED
:10014000704700000023002400250026103A28BF35
:1001500078C1FBD8520728BF30C148BF0B60704739
:10016000642900F07D80002070471FB51FBD10B5C9
:1001700010BD00F070F91146FFF7F7FF02F0E8F844
:1001800000F08EF903B4FFF7F2FF03BC00F096F91C
:100190000948804709480047FEE7FEE7FEE7FEE71B
:1001A000FEE7FEE7FEE7FEE7FEE7FEE70448054957
:1001B000054A064B704700001F210008ED000008AB
:1001C0001801002018070020180300201803002041
:1001D0000FB41CB5074B06AA7B44694600900598EE
:1001E00000F021F90020694600F030F91CBC5DF8F0
:1001F00014FB0000710200002DE9F0410E46044698
:10020000002020622046E168884730B3252805D0C9
:10021000D4E901219047206A401CF2E7E1682046BA
:1002200000278847050018D0A5F14100192802D8F9
:1002300020354FF400673246294620462760FFF7F5
:100240008FFF40B1012804D0F61D26F007060836BE
:10025000D8E7361DD6E72846DAE7206ABDE8F08100
:100260002DE9F0410646002410687529314616A58F
:1002700010D0AFF30080002802DA404213A507E057
:1002800031688A0701D512A502E0490704D511A5F6
:10029000012401E0AFF3008000210A2206F12407C7
:1002A00009E0B0FBF2FCB0FBF2F302FB1C003030C3
:1002B00078541846491C0028F3D123462A46304674
:1002C000BDE8F04100F051B8000000002D00000032
:1002D0002B0000002000000010B5431C02E010F8C5
:1002E000011B71B18107FAD14FF0013202C88C1A9B
:1002F0008C4314EAC211F9D0C01A0A0603D0C01EFA
:1003000010BDC01A10BD0A0401D0801E10BD090224
:10031000FCD0401E10BD4FF0000200B513469446BD
:100320009646203922BFA0E80C50A0E80C50B1F14D
:100330002001BFF4F7AF090728BFA0E80C5048BF61
:100340000CC05DF804EB890028BF40F8042B08BFFF
:10035000704748BF20F8022B11F0804F18BF00F8FB
:10036000012B70477047704770472DE9F0470D46E5
:1003700099469246044600F124080168880604D58F
:10038000E06921F01001216000E00120A84201DDB8
:10039000471B00E00027A1697A1902EB0900081A3F
:1003A000A0612078C00602D42046AFF3008000266A
:1003B00008E0D4E901211AF806009047206A401CA1
:1003C000761C20624E45F4DB2078C0060AD5204614
:1003D000AFF3008006E0D4E9012130209047206A85
:1003E000401C2062381EA7F10107F4DC07E0D4E9C5
:1003F000012118F805009047206A401C2062281E41
:10040000A5F10105F3DC2046AFF30080207800065B
:1004100002D50220BDE8F0870120FBE701694A1CF4
:1004200002610878704700B58FB0CDE90131002135
:10043000059105497944CDE9031011466846FFF757
:10044000DBFE0FB000BD0000E5FFFFFF0A6802F809
:10045000010B0A607047754600F02CF8AE460500A7
:100460006946534620F00700854618B020B5FFF7CF
:100470009DFEBDE820404FF000064FF000074FF012
:1004800000084FF0000B21F00701AC46ACE8C009B2
:10049000ACE8C009ACE8C009ACE8C0098D467047BB
:1004A00010B50446AFF300802046BDE81040FFF7CA
:1004B00069BE000000487047B800002001491820BC
:1004C000ABBEFEE7260002007047000010B50348EF
:1004D00000F03BF9024800F038F910BD1000002090
:1004E0004000002070B5044600252068806800F0B8
:1004F000010018B32068806820F00100216888603E
:1005000000F0F4FD054613E000F0F0FD401B02286A
:100510000ED92068806800F0010048B1A06A40F060
:100520001000A062E06A40F00100E062012070BDAE
:100530002068806800F001000028E5D10020F6E77F
:1005400038B504460025002000902068806800F03F
:10055000010078BB2068806840F001002168886055
:10056000194800681949B0FBF1F0009002E00098CA
:10057000401E009000980028F9D100F0B7FD054614
:1005800019E000F0B3FD401B022814D920688068F0
:1005900000F0010078B9A06A40F01000A062E06AA3
:1005A00040F00100E06200BF002084F8240000BF9A
:1005B000012038BD05E02068806800F001000028B7
:1005C000DFD00020F5E700000C00002040420F00C3
:1005D00000BFFEE7704772B600BFFEE7704700003D
:1005E00038B5024600230020009000BF92F8240096
:1005F000012801D1022038BD012082F8240000BF6B
:100600004868072812D21068406B0C79641E04EB0E
:1006100084051F24AC40A0430D796D1E05EB8505B4
:100620000C68AC4020431468606327E048680D28DC
:1006300012D21068006B0C79E41F04EB84051F24B0
:10064000AC40A0430D79ED1F05EB85050C68AC406F
:1006500020431468206311E01068C06A0C790D3CD7
:1006600004EB84051F24AC40A0430D790D3D05EB40
:1006700085050C68AC4020431468E06208680A28CD
:1006800012D31068C0680C780A3C04EB44050724B8
:10069000AC40A0430D780A3D05EB45058C68AC40A5
:1006A00020431468E0600FE0106800690C7804EBE8
:1006B00044050724AC40A0430D7805EB45058C6844
:1006C000AC402043146820610868102802D00868F4
:1006D000112827D1174C1068A0421ED110688068DD
:1006E00000F40000F0B91068806840F4000014685D
:1006F000A0600868102815D10F4800680F4CB0FBA7
:10070000F4F000EB80004000009002E00098401EF2
:10071000009000980028F9D104E0906A40F0200091
:100720009062012300BF002082F8240000BF184619
:1007300061E70000002401400C00002040420F004F
:10074000704701460868C06C704770B50446206861
:1007500005682068466806F0200020282DD105F0A5
:100760000200022829D1A06A00F0100018B9A06A7E
:1007700040F40070A0622068806800F46020B0F54A
:10078000602F13D1207B88B92068406820F02000BA
:1007900021684860A06A20F48070A062A06A00F41A
:1007A000805018B9A06A40F00100A0622046FFF70F
:1007B000C7FF6FF012002168086006F080008028F3
:1007C00039D105F00400042835D1A06A00F01000EA
:1007D00018B9A06A40F40050A0622068806800F454
:1007E000E040B0F5E04F0DD02068406800F4806034
:1007F000D0B92068806800F46020B0F5602F13D174
:10080000207B88B92068406820F08000216848601B
:10081000A06A20F48050A062A06A00F4807018B929
:10082000A06A40F00100A0622046FFF7D7FE6FF0FB
:100830000C002168086006F0400040280DD105F04A
:10084000010050B1A06A40F48030A062204600F060
:10085000A7F86FF001002168086070BD2DE9F04134
:100860000446002700250026A84614B90120BDE84B
:10087000F081A06810B1207D00B100BFA06A30B93E
:100880000020E06284F82400204600F08BF8204627
:10089000FFF728FE0746A06A00F01000002873D179
:1008A000002F71D1A06A20F4885040F00200A062AD
:1008B000E16960680843217B40EA41000643A06883
:1008C000B0F5807F02D0A068012802D14FF480707B
:1008D00000E000200543207D012811D1207B38B99C
:1008E000A069401E4FF4006141EA4030054307E033
:1008F000A06A40F02000A062E06A40F00100E062DF
:100900002068406820F469402843216848602068D6
:10091000806821490840304321688860A068B0F5AC
:10092000807F02D0A068012802D14FF4807000E0DF
:100930000020B0F5807F03D1208A401E4FEA005886
:100940002068C06A20F4700040EA08002168C8628C
:100950002068806811490840B04208D10020E06258
:10096000A06A20F0020040F00100A06211E0A06A3D
:1009700020F0020040F01000A062E06A40F00100A8
:10098000E062012705E0FFE7A06A40F01000A062E6
:10099000012738466BE70000FDF7E1FFFE0E1FFF61
:1009A0007047000010B586B0044600200290039006
:1009B000049005902F49206888422AD100BF2E4814
:1009C000806940F400702C4988610846806900F411
:1009D0000070019000BF00BF00BF0846806940F072
:1009E000040088610846806900F00400019000BF9F
:1009F00000BF03200290039002A9204800F0CEF926
:100A000000221146122000F0F7FB122000F0E4FB58
:100A10002EE01B49206888422AD100BF1648806911
:100A200040F48060144988610846806900F4806061
:100A3000019000BF00BF00BF0846806940F004007D
:100A400088610846806900F00400019000BF00BF83
:100A5000302002900320039002A9084800F09EF97C
:100A600000221146122000F0C7FB122000F0B4FB58
:100A700006B010BD002401400010024000080140F3
:100A800000280140F8B504460D46002600200090DD
:100A9000002700F02BFB06462068806800F4807079
:100AA00050B1A06A40F02000A06200BF002084F88E
:100AB000240000BF0120F8BD2068406800F4807069
:100AC00020BB2068C06A00F47000F8B917E0681C09
:100AD000A8B125B100F00AFB801BA8420FD92068FD
:100AE000006800F0020050B9A06A40F00400A06263
:100AF00000BF002084F8240000BF0320DBE720684B
:100B0000006800F002000028E1D053E0022000F06D
:100B1000C5FB38490968B1FBF0F021680969364A1C
:100B2000114091B92168C9689211114069B92168D1
:100B30000969324A114031B92168C96892111140DE
:100B400009B9142117E0292115E0216809692B4A08
:100B5000114021B92168C9689211114041B1216841
:100B60000969274A114029B92168C968114009B9A2
:100B7000542100E0FC2100FB01F718E0681C98B14B
:100B800025B100F0B3FA801BA8420DD90098B842F5
:100B90000AD2A06A40F00400A06200BF002084F8DE
:100BA000240000BF032086E70098401C00900098B6
:100BB000B842E3D36FF0120021680860A06A40F4E5
:100BC0000070A0622068806800F46020B0F5602F9B
:100BD0000DD1207B58B9A06A20F48070A062A06A71
:100BE00000F4805018B9A06A40F00100A062002013
:100BF00061E700000C00002024499224922449124D
:100C00004992240070B50446002500BF94F82400E2
:100C1000012801D1022070BD012084F8240000BF0A
:100C20002046FFF78DFC0546002D77D1A06A40F2E3
:100C30000121884340F48070A0623C4920688842CA
:100C400008D13B48006800F4702008B9012002E098
:100C5000002000E0012078B1A06A20F48010A0629A
:100C60002068406800F4806000B3A06A20F400505F
:100C700040F48050A06219E0A06A40F48010A062A5
:100C80002B49091F2068884203D0284920688842E0
:100C900004D12748006800F4806000E0002028B1FB
:100CA000A06A20F4005040F48050A062A06A00F4D2
:100CB000805020B1E06A20F00600E06201E00020F0
:100CC000E06200BF002084F8240000BFC01E21683D
:100CD00008602068806800F46020B0F5602F16D1AD
:100CE00012492068884208D11148006800F4702039
:100CF00008B9012002E0002000E0012038B120689E
:100D0000806840F4A000216888600CE006E020685C
:100D1000806840F480102168886004E000BF0020F3
:100D200084F8240000BF284675E700000028014031
:100D30000424014070B50446002500BF94F8240047
:100D4000012801D1022070BD012084F8240000BFD9
:100D50002046FFF7C7FB05462DB9A06A20F488504E
:100D600040F00100A06200BF002084F8240000BF12
:100D70002846E8E770B5044600F0B8F9064625466F
:100D8000681C10B104480078054400BF00F0AEF9BB
:100D9000801BA842FAD370BD080000202DE9F84757
:100DA0000346002294466EE14FF0010808FA02F46F
:100DB000D1F8008008EA0400A0427DD1DFF8DCA26F
:100DC000D1F80480A8EB0A09D0453AD014DCB8F178
:100DD000030F50D009DCB8F1000F31D0B8F1010F8A
:100DE0001CD0B8F1020F49D120E0B8F1110F18D092
:100DF000B8F1120F42D11EE0B9F5881F25D006DCEC
:100E0000B9F5803F20D0B9F5801F37D11AE0B9F588
:100E1000001F18D0B9F5041F30D117E0D1F80CC06D
:100E20002DE0D1F80C8008F1040C28E0D1F80C80FA
:100E300008F1080C23E0D1F80C8008F10C0C1EE03E
:100E400000BF00BF00BF00BF00BF00BFD1F80880D7
:100E5000B8F1000F02D14FF0040C0BE0D1F808807C
:100E6000B8F1010F03D14FF0080C1C6102E04FF004
:100E7000080C5C6103E04FF0000C00E000BF00BF15
:100E8000FF2801D8984601E003F104084646FF28F0
:100E900002D84FEA820803E0A2F108084FEA880866
:100EA0004746D6F800804FF00F0909FA07F928EAFB
:100EB00009080CFA07F900E088E048EA0908C6F8D2
:100EC0000080D1F8048008F08058B8F1805F7DD1AF
:100ED00000BFDFF8CC81D8F8188048F00108DFF8AF
:100EE000C091C9F81880C846D8F8188008F00108E1
:100EF000CDF8008000BF00BF4FEAB9384FEA920931
:100F000058F829504FEA82784FEA18794FF00F08C5
:100F100008FA09F825EA0805DFF88881434502D177
:100F20004FF0000816E0DFF88081434502D14FF012
:100F300001080FE0DFF87481434502D14FF0020849
:100F400008E0DFF86C81434502D14FF0030801E06F
:100F50004FF004084FEA82794FEA197908FA09F844
:100F600048EA0505DFF84C814FEA920948F8295014
:100F7000D1F8048008F48018B8F5801F0AD1DFF892
:100F80003881D8F8008048EA0008DFF82C91C9F8C9
:100F9000008009E0DFF82081D8F8008028EA000806
:100FA000DFF81491C9F80080D1F8048008F4001823
:100FB000B8F5001F10D1DFF8008108F10408D8F857
:100FC000008048EA0008DFF8F09000E05AE009F1FC
:100FD0000409C9F800800DE0DFF8DC8008F104089E
:100FE000D8F8008028EA0008DFF8CC9009F104095D
:100FF000C9F80080D1F8048008F40038B8F5003F43
:101000000ED1DFF8B480A8F10408D8F8008048EACF
:101010000008DFF8A490A9F10409C9F800800DE0E8
:10102000DFF89480A8F10408D8F8008028EA0008C6
:10103000DFF88490A9F10409C9F80080D1F8048090
:1010400008F48038B8F5803F0ED1DFF86C80A8F145
:101050000808D8F8008048EA0008DFF85C90A9F199
:101060000809C9F800800DE0DFF84C80A8F10808F5
:10107000D8F8008028EA0008DFF83C90A9F10809B8
:10108000C9F80080521CD1F8008028FA02F8B8F1A3
:10109000000F7FF489AEBDE8F88700000000111052
:1010A0000010024000080140000C01400010014007
:1010B0000014014008000140080401400246936802
:1010C0000B400BB1012000E00020704710B5C26852
:1010D00021EA020302EA010443EA0443036110BD6A
:1010E0000AB1016101E00B04036170470148006827
:1010F0007047000000000020034800680349097899
:1011000008440149086070470000002008000020E2
:1011100010B50848006840F0100006490860032038
:1011200000F0A8F80F2000F007F800F02BF80020DE
:1011300010BD00000020024070B504460E48007843
:101140004FF47A71B1FBF0F00C490968B1FBF0F58E
:10115000284600F027FD08B1012070BD102C07D2F1
:1011600000222146501E00F047F80548046001E0C7
:101170000120F2E70020F0E7080000200C0000202A
:101180000400002008B500BF1148806940F001004C
:101190000F4988610846806900F00100009000BF97
:1011A00000BF00BF0846C06940F08050C8610846D3
:1011B000C06900F08050009000BF00BF00BF05492B
:1011C000486820F0E06040F00070486000BF08BD53
:1011D000001002400000014001460846002809DBDB
:1011E00000F01F0301229A4043099B0003F1E02312
:1011F000C3F8002100BF70472DE9F05F80460D461F
:101200001646002701F088F8074639462A46334635
:1012100001F00700C0F1070ABAF1040F02D94FF03C
:10122000040A01E0C0F1070AD14600F1040ABAF14C
:10123000070F02D24FF0000A01E0A0F1030AD446E2
:101240004FF0010A0AFA09FAAAF1010A0AEA020AA7
:101250000AFA0CFA4FF0010B0BFA0CFBABF1010B85
:101260000BEA030B4AEA0B042146404601F05CF806
:10127000BDE8F09F00BF00F00702064B19684FF66B
:10128000FF031940044B0B4343EA0221014B196051
:1012900000BF70470CED00E00000FA052DE9F047B3
:1012A00006464FF00008002500270024A146012E25
:1012B00031D0022E56D0102E5FD1324844680068DB
:1012C00000F0807008B33048C4F38341475C04F4F5
:1012D000803078B12B484068C0F340402B4911F86A
:1012E000008004F4803040B12948B0FBF8F000FBE6
:1012F00007F502E0274807FB00F52248406800F4A4
:101300008000B0F5800F01D1A94603E068000321F9
:10131000B0FBF1F932E01B48046A04F44070B0F508
:10132000807F05D104F0020010B14FF4004918E0AD
:1013300004F44070B0F5007F07D11248406A00F015
:10134000020010B149F640490BE004F44070B0F5DA
:10135000407F06D10B48006800F4003008B14FF21E
:1013600024490BE000F094F906494968C1F3813142
:10137000491C4900B0FBF1F900E000BF00BF48463E
:10138000BDE8F0870010024096230008A62300085D
:1013900000127A0000093D00F8B504460026002539
:1013A000207800F0010000286BD000274348C06976
:1013B00000F0805070B900BF4048C06940F08050D4
:1013C0003E49C8610846C06900F08050009000BFE7
:1013D00000BF01273A48006800F48070B0B938486F
:1013E000006840F4807036490860FFF77FFE0646CB
:1013F00006E0FFF77BFE801B642801D90320F8BDBF
:101400002F48006800F480700028F2D02B48006A52
:1014100000F440752DB3A08800F44070A84220D09D
:101420002648006A20F44075012026490860002003
:1014300008602248056205F0010090B1FFF756FEF2
:10144000064608E0FFF752FE801B41F288318842D1
:1014500001D90320D3E71948006A00F002000028F0
:10146000F0D01648006A20F44070616808431349C0
:101470000862012F04D10846C06920F08050C8617D
:1014800000BF207800F00200022807D10B48406816
:1014900020F44040A168084308494860207800F0E3
:1014A0001000102807D10548406820F48000E1684A
:1014B0000843024948600020A1E7000000100240F4
:1014C00000700040400442427047000070B504467E
:1014D0000D460CB9012070BD5A48006800F00700A5
:1014E000A8420ED25748006820F00700284355490B
:1014F00008600846006800F00700A84201D00120FB
:10150000E9E7207800F0020002281DD1207800F0E1
:101510000400042805D14C48406840F4E0604A4982
:101520004860207800F00800082805D14648406847
:1015300040F46050444948604348406820F0F0005F
:10154000A168084340494860207800F0010078B362
:101550006068012806D13C48006800F4003090B96A
:101560000120B8E76068022806D13748006800F01B
:10157000007040B90120AEE73348006800F0020077
:1015800008B90120A7E73048406820F003006168EF
:1015900008432D494860FFF7A9FD064609E0FFF71B
:1015A000A5FD801B41F28831884202D9032092E7D1
:1015B00007E02548406800F00C006168B0EB810F3F
:1015C000EDD12048006800F00700A8420ED91D4860
:1015D000006820F0070028431A49086008460068A0
:1015E00000F00700A84201D0012074E7207800F045
:1015F0000400042807D11448406820F4E060E16842
:10160000084311494860207800F00800082808D1F4
:101610000D48406820F46050216940EAC1000A4941
:10162000486000F045F808494968C1F30311074ACA
:10163000515CC8400649086006480068FFF77CFD19
:10164000002048E70020024000100240A8230008C4
:101650000C0000200400002001200149C8647047EC
:101660000000424201480068704700000C00002062
:1016700000B5FFF7F7FF04494968C1F30221034AA7
:10168000515CC84000BD000000100240B8230008B3
:1016900000B5FFF7E7FF04494968C1F3C221034AD7
:1016A000515CC84000BD000000100240B823000893
:1016B00070B500210022002400230020134D69682A
:1016C00001F00C05F5B1042D02D0082D19D101E06F
:1016D0000F4819E00F4DC1F38346AB5D01F480352F
:1016E00055B10A4D6D68C5F340450B4E725D084D0E
:1016F0005D43B5FBF2F402E0084D03FB05F4204620
:1017000002E000BF024800BF00BF70BD00100240F1
:1017100000127A00842300089423000800093D0089
:1017200010B50648806800F08000802804D1FFF7DB
:10173000CBFE80200149887210BD000000100240DD
:10174000F8B504460CB90120F8BD207800F001007E
:10175000002878D0F848406800F00C0004280CD02D
:10176000F548406800F00C00082811D1F2484068A4
:1017700000F48030B0F5803F0AD1EF48006800F4F3
:10178000003000285FD0606800285CD10120DBE7D2
:1017900000BF6068B0F5803F06D1E748006840F4BC
:1017A0008030E549086028E0606858B9E248006880
:1017B00020F48030E04908600846006820F480206A
:1017C00008601AE06068B0F5A02F0BD1DA48006815
:1017D00040F48020D84908600846006840F4803012
:1017E00008600AE0D448006820F48030D2490860DC
:1017F0000846006820F48020086000BF606888B157
:10180000FFF774FC054606E0FFF770FC401B6428F8
:1018100001D9032098E7C848006800F40030002888
:10182000F2D010E0FFF762FC054606E0FFF75EFC31
:10183000401B642801D9032086E7BF48006800F4F4
:1018400000300028F2D1207800F00200022857D1A1
:10185000B948406800F00C0050B1B748406800F04B
:101860000C00082818D1B448406800F4803098B9BA
:10187000B148006800F0020020B12069012801D0C1
:10188000012061E7AC48006820F0F800616940EA97
:10189000C100A949086033E02069E8B10120A749E7
:1018A0000860FFF723FC054606E0FFF71FFC401B1E
:1018B000022801D9032047E79F48006800F0020092
:1018C0000028F2D09C48006820F0F800616940EAE6
:1018D000C1009949086013E0002098490860FFF7AB
:1018E00005FC054606E0FFF701FC401B022801D974
:1018F000032029E79048006800F002000028F2D198
:10190000207800F0080008282DD1A069B8B1012086
:101910008B490860FFF7EAFB054606E0FFF7E6FBA8
:10192000401B022801D903200EE78348406A00F0DB
:1019300002000028F2D0012000F094FB13E0002008
:101940007F490860FFF7D2FB054606E0FFF7CEFBB4
:10195000401B022801D90320F6E67748406A00F0D0
:1019600002000028F2D1207800F00400042873D18E
:1019700000277148C06900F0805070B900BF6E4800
:10198000C06940F080506C49C8610846C06900F0E9
:101990008050009000BF00BF01276A48006800F433
:1019A0008070B0B96748006840F48070654908608D
:1019B000FFF79CFB054606E0FFF798FB401B6428F9
:1019C00001D90320C0E65F48006800F48070002859
:1019D000F2D000BFE068012806D15748006A40F005
:1019E00001005549086227E0E06858B95248006A8A
:1019F00020F00100504908620846006A20F0040007
:101A0000086219E0E06805280BD14B48006A40F0F5
:101A10000400494908620846006A40F00100086273
:101A20000AE04548006A20F0010043490862084680
:101A3000006A20F00400086200BFE068A0B1FFF770
:101A400055FB054609E0FFF751FB401B41F2883189
:101A5000884202D9032077E622E03748006A00F086
:101A600002000028EFD012E0FFF740FB054608E037
:101A7000FFF73CFB401B41F28831884201D903202B
:101A800062E62D48006A00F002000028F0D1012F24
:101A900005D12948C06920F080502749C86100BF9E
:101AA000E069C8B32448406800F00C00082860D002
:101AB000E069022848D1002020490866FFF716FB9C
:101AC000054606E0FFF712FB401B022801D9032060
:101AD0003AE61948006800F000700028F2D1206A48
:101AE000B0F5803F07D11448406820F40030A16869
:101AF000084311494860D4E9080108430E49496880
:101B000021F4741108430C49486001200B49086610
:101B1000FFF7ECFA054607E03DE0FFF7E7FA401B68
:101B2000022801D903200FE60348006800F0007086
:101B30000028F2D02FE000000010024000004242D6
:101B40008004424200700040002014490866FFF7FC
:101B5000CDFA054606E0FFF7C9FA401B022801D975
:101B60000320F1E50E48006800F000700028F2D173
:101B700011E0E069012800D1E6E50948466806F46D
:101B80008031206A814204D106F47011606A81427A
:101B900001D00120D8E50020D6E500000000424237
:101BA0000010024070B504462546681EB0F1807FE3
:101BB00001D301200FE0681E4FF0E02148610F21A2
:101BC0004FF0FF3000F0B0FB00204FF0E0218861C3
:101BD00007200861002070BD10B504460CB9012033
:101BE00010BDA06900B100E000BF94F8410028B921
:101BF000002084F84000204600F02AF8242084F8D1
:101C000041002068C06820F400502168C860204668
:101C100000F0BCFA2068006920F490402168086157
:101C20002068406920F02A00216848612068C06867
:101C300040F400502168C86000206064202084F8CF
:101C4000410084F842000020606300BFC8E7000044
:101C500010B586B0044600200290039004900590D1
:101C60001A49206888422ED100BF1948806940F483
:101C70008040174988610846806900F480400190DF
:101C800000BF00BF00BF0846806940F004008861C3
:101C90000846806900F00400019000BF00BF4815AD
:101CA0000290022003900320059002A90948FFF743
:101CB00075F84FF48060029000200390049002A910
:101CC0000448FFF76BF806B010BD00000038014073
:101CD00000100240000801402DE9F84F04460E466E
:101CE000174699464FF0000A94F84100202850D139
:101CF00006B117B90120BDE8F88F002060642120EB
:101D000084F84100FFF7F2F98246A784E784A068CF
:101D1000B0F5805F04D1206910B90025B04602E01B
:101D200035464FF000081EE0534600228021204631
:101D3000CDF8009000F0A8FA20B1202084F84100EE
:101D40000320D8E745B9B8F80000C0F308002168BF
:101D5000486008F1020803E02878216848606D1C9B
:101D6000E08C401EE084E08C0028DDD15346002248
:101D700040212046CDF8009000F086FA20B12020C6
:101D800084F841000320B6E7202084F841000020B9
:101D9000B1E70220AFE700BFFEE700002DE9F04702
:101DA00098B02E48FEF72EFF4FF0FF312B48FEF77C
:101DB00069FE2A48FEF7C5FC86B24FF0FF3127487E
:101DC000FEF760FE2548FEF7BCFC87B22348FEF70D
:101DD000B1FF2348FEF716FF4FF0FF312048FEF712
:101DE00051FE1F48FEF7ADFC1FFA80F84FF0FF319F
:101DF0001B48FEF747FE1A48FEF7A3FC1FFA80F9BE
:101E00001748FEF797FF04211648FFF757F90446D5
:101E100008211448FFF752F905460CB9012000E0EB
:101E2000002004460DB9012000E0002005463B4695
:101E300032460DA104A88DE810030395FEF7C8F9FA
:101E400004A8FEF749FA1FFA80FA0A23524604A9A9
:101E50000A48FFF741FF18B0BDE8F08710000020E6
:101E6000400000200008014025642C25642C2564D6
:101E70002C25642C25642C25640D0A00700000209C
:101E80000EB5002000900190029018481849086093
:101E900081151748816001210173002101754FF4FC
:101EA0006021C1610020124948600221104801618F
:101EB000FEF7D4FC08B1FEF78EFB00200090012055
:101EC00001900520029069460948FEF789FB08B198
:101ED000FEF781FB01200090022001906946044832
:101EE000FEF77EFB08B1FEF776FB0EBD0024014035
:101EF000100000200EB500200090019002901848BC
:101F0000184908608115174881600121017300217B
:101F100001754FF46021C16100201249486002211F
:101F200010480161FEF79AFC08B1FEF754FB04204B
:101F30000090012001900520029069460948FEF7B3
:101F40004FFB08B1FEF747FB0520009002200190EF
:101F500069460448FEF744FB08B1FEF73CFB0EBDA2
:101F6000002801404000002000B585B0002001900D
:101F700002900390049000BF2548806940F0100053
:101F8000234988610846806900F01000009000BF76
:101F900000BF00BF0846806940F020008861084605
:101FA000806900F02000009000BF00BF00BF08461D
:101FB000806940F0040088610846806900F00400F0
:101FC000009000BF00BF012251031248FFF788F8BC
:101FD00001220C211048FFF783F84FF400500190C4
:101FE00001200290002003900220049001A90948DA
:101FF000FEF7D4FE0C2001900120029000200390F7
:102000000220049001A90448FEF7C8FE05B000BDF7
:1020100000100240001001400008014010B50B48BC
:102020000B4908604FF4E1304860002108488160A6
:10203000C16001610C21416100218161C161FFF733
:10204000CBFD08B1FEF7C7FA10BD00000038014013
:102050007000002000BFFEE7FFF762FB00BFFEE755
:102060007047000008B508490968C9084FF47A723A
:10207000B1FBF2F14143009100BF00BF00994A1E3D
:1020800000920029F9D108BD0C000020704710B55E
:10209000FFF732F810BD00B593B0282109A8FEF76C
:1020A0003AF9142104A8FEF736F9002000900190B7
:1020B000029003900120099000040A9000200B90E8
:1020C00001200D9002201090C10311914FF4E011F6
:1020D000129109A8FFF734FB08B1FEF77CFA0F2034
:1020E000049002200590002006904FF48060079035
:1020F00000200890022104A8FFF7E8F908B1FEF7D4
:102100006AFA02200090800302906846FFF744F9C3
:1021100008B1FEF760FAFFF79FFA13B000BD7047F1
:1021200000BF00BF02680C3252E8002F22F4907109
:1021300002680C3242E80013002BF3D100BF00BF4D
:1021400000BF0268143252E8002F22F00101026839
:10215000143242E80013002BF3D100BF016B0129B8
:102160000ED100BF00BF02680C3252E8002F22F0EF
:10217000100102680C3242E80013002BF3D100BFBB
:10218000202180F8421000210163704770B5044699
:102190002168096921F44051E26811432268116104
:1021A0002269A1681143626941EA02052168C96890
:1021B00041F20C62914329432268D1602168496948
:1021C00021F44071A2691143226851612D4A2168AE
:1021D000914202D1FFF75CFA01E0FFF749FA00EB08
:1021E000C00101EB001162689200B1FBF2F100EB5B
:1021F000C00202EB001263689B00B2FBF3F264239F
:10220000B2FBF3F202EBC20303EB0212A1EB820179
:10221000322202EB01116422B1FBF2F101F0F00174
:1022200000EBC00202EB001263689B00B2FBF3F20A
:102230006423B2FBF3F201EB021200EBC00101EBED
:10224000001163689B00B1FBF3F100EBC00303EBEB
:1022500000136668B600B3FBF6F36426B3FBF6F32F
:1022600003EBC30606EB0313A1EB8301322303EB5D
:1022700001116423B1FBF3F101F00F011144226855
:10228000916070BD003801402DE9F84304460D46C9
:1022900017469846089E31E0701C70B3FEF726FF83
:1022A000A0EB0800B04200D816B90320BDE8F883BF
:1022B0002068C06800F00400F8B1802D1ED0402DC9
:1022C0001CD020680068C0F3C000B0B100BF00207F
:1022D000009020680068009020684068009000BF6F
:1022E00000BF2046FFF71CFF0820606400BF0020ED
:1022F00084F8400000BF0120D8E7FFE720680068AD
:102300002840A84201D1012000E00020B842C3D0FB
:102310000020CBE700BFFEE702480068C0F30220C0
:10232000704700000CED00E010B5002804DB0A0740
:10233000130E054A135406E00A07140E034A00F070
:102340000F031B1FD45410BD00E400E018ED00E0A3
:10235000FEF7DEFEFFF79FFEFFF706FEFFF790FD9C
:10236000FFF7C8FDFFF75AFE09E0FFF717FD4FF42E
:1023700000510348FEF7AAFE3220FEF7FBFCF4E70B
:102380000010014002030405060708090A0B0C0DA2
:102390000E0F1010010202030405060708090A0BBC
:1023A0000C0D0E0F101001020000000000000000D4
:1023B00001020304060708090000000001020304EB
:1023C000E0230008000000201000000028010008A1
:1023D000F023000810000020080700004401000856
:1023E00000000000100000000100000000127A0050
:04000005080000ED02
:00000001FF
