:020000040800F2
:100000008820002021020008F51900087F1600084A
:10001000291800086B040008591D000800000000A2
:10002000000000000000000000000000890100083E
:100030006F04000800000000CD0100089B1A0008B2
:100040003B0200083B0200083B0200083B0200089C
:100050003B0200083B0200083B0200083B0200088C
:100060003B0200083B0200083B0200083B0200087C
:100070003B0200083B0200083B0200083B0200086C
:100080003B0200083B0200083B0200083B0200085C
:100090003B0200083B0200083B0200083B0200084C
:1000A0003B0200083B0200083B0200083B0200083C
:1000B0003B020008191B0008291B00083B0200082E
:1000C0003B0200083B0200083B0200083B0200081C
:1000D0003B0200083B0200083B0200083B0200080C
:1000E0003B0200083B0200083B02000800F002F857
:1000F00000F03AF80AA090E8000C82448344AAF188
:100100000107DA4501D100F02FF8AFF2090EBAE885
:100110000F0013F0010F18BFFB1A43F0010318473B
:10012000F83C0000183D0000103A24BF78C878C1A0
:10013000FAD8520724BF30C830C144BF04680C60ED
:10014000704700000023002400250026103A28BF35
:1001500078C1FBD8520728BF30C148BF0B60704739
:100160001FB51FBD10B510BD00F045F91146FFF7D2
:10017000F7FF01F013FE00F063F903B4FFF7F2FF9D
:1001800003BC00F06BF90000224B19680868B0E866
:10019000F00F80F30988BFF36F8F4FF0000080F3FA
:1001A00011884EF00D0E70470000000006480068F0
:1001B000006880F3088862B661B6BFF34F8FBFF363
:1001C0006F8F00DF00BF00BF08ED00E0EFF3098094
:1001D000BFF36F8F0F4B1A6820E9F00F106008B55E
:1001E0004FF0500080F31188BFF34F8FBFF36F8F34
:1001F00002F0EAFE4FF0000080F31188BDE80840ED
:1002000019680868B0E8F00F80F30988BFF36F8FB2
:10021000704700BF1C000020EFF30580704700000E
:100220000948804709480047FEE7FEE7FEE7FEE78A
:10023000FEE7FEE7FEE7FEE7FEE7FEE704480549C6
:10024000054A064B70470000171B0008ED00000828
:10025000881A002088200020881C0020881C00208C
:10026000032A40F2308010F0030C00F0158011F8E2
:10027000013BBCF1020F624498BF11F801CB00F8BA
:10028000013B38BF11F8013BA2F1040298BF00F80E
:1002900001CB38BF00F8013B11F0030300F0578099
:1002A000083AC0F0088051F8043B083A51F804CBF2
:1002B000A0E80810F5E7121D5CBF51F8043B40F8B8
:1002C000043BAFF30080D20724BF11F8013B11F8C3
:1002D00001CB48BF11F8012B24BF00F8013B00F807
:1002E00001CB48BF00F8012B704702F0FF0343EA3F
:1002F000032242EA024200F05EB84FF0000200B56D
:10030000134694469646203922BFA0E80C50A0E838
:100310000C50B1F12001BFF4F7AF090728BFA0E8E6
:100320000C5048BF0CC05DF804EB890028BF40F8B2
:10033000042B08BF704748BF20F8022B11F0804FF4
:1003400018BF00F8012B704770477047704710B511
:10035000203AC0F00B80B1E81850203AA0E81850BD
:10036000B1E81850A0E81850BFF4F5AF5FEA027C7E
:1003700024BFB1E81850A0E8185044BF18C918C0ED
:10038000BDE810405FEA827C24BF51F8043B40F88E
:10039000043B08BF7047D20728BF31F8023B48BF73
:1003A00011F8012B28BF20F8023B48BF00F8012BB1
:1003B00070474FF000020429C0F0128010F0030CC7
:1003C0003FF49DAFCCF1040CBCF1020F18BF00F854
:1003D000012BA8BF20F8022BA1EB0C01FFF78FBF68
:1003E0005FEAC17C24BF00F8012B00F8012B48BF55
:1003F00000F8012B7047754600F02CF8AE4605005A
:100400006946534620F00700854618B020B5FFF72F
:1004100015FFBDE820404FF000064FF000074FF0F9
:1004200000084FF0000B21F00701AC46ACE8C00912
:10043000ACE8C009ACE8C009ACE8C0098D4670471B
:1004400010B50446AFF300802046BDE81040FFF72A
:1004500094BE000000487047281A00200149182067
:10046000ABBEFEE726000200704700BFFEE7704704
:1004700072B600BFFEE700002DE9F84703460022F0
:1004800094466EE14FF0010808FA02F4D1F80080BA
:1004900008EA0400A0427DD1DFF8DCA2D1F8048094
:1004A000A8EB0A09D0453AD014DCB8F1030F50D0BC
:1004B00009DCB8F1000F31D0B8F1010F1CD0B8F150
:1004C000020F49D120E0B8F1110F18D0B8F1120F86
:1004D00042D11EE0B9F5881F25D006DCB9F5803F72
:1004E00020D0B9F5801F37D11AE0B9F5001F18D018
:1004F000B9F5041F30D117E0D1F80CC02DE0D1F8C8
:100500000C8008F1040C28E0D1F80C8008F1080CEC
:1005100023E0D1F80C8008F10C0C1EE000BF00BFF6
:1005200000BF00BF00BF00BFD1F80880B8F1000FC6
:1005300002D14FF0040C0BE0D1F80880B8F1010FA4
:1005400003D14FF0080C1C6102E04FF0080C5C6115
:1005500003E04FF0000C00E000BF00BFFF2801D80F
:10056000984601E003F104084646FF2802D84FEA06
:10057000820803E0A2F108084FEA88084746D6F847
:1005800000804FF00F0909FA07F928EA09080CFA68
:1005900007F900E088E048EA0908C6F80080D1F8C9
:1005A000048008F08058B8F1805F7DD100BFDFF88B
:1005B000CC81D8F8188048F00108DFF8C091C9F85C
:1005C0001880C846D8F8188008F00108CDF80080D7
:1005D00000BF00BF4FEAB9384FEA920958F82950D6
:1005E0004FEA82784FEA18794FF00F0808FA09F8B5
:1005F00025EA0805DFF88881434502D14FF000085D
:1006000016E0DFF88081434502D14FF001080FE08A
:10061000DFF87481434502D14FF0020808E0DFF8AB
:100620006C81434502D14FF0030801E04FF004080C
:100630004FEA82794FEA197908FA09F848EA05057C
:10064000DFF84C814FEA920948F82950D1F804802C
:1006500008F48018B8F5801F0AD1DFF83881D8F87F
:10066000008048EA0008DFF82C91C9F8008009E012
:10067000DFF82081D8F8008028EA0008DFF814911C
:10068000C9F80080D1F8048008F40018B8F5001FFC
:1006900010D1DFF8008108F10408D8F8008048EA9A
:1006A0000008DFF8F09000E05AE009F10409C9F809
:1006B00000800DE0DFF8DC8008F10408D8F8008045
:1006C00028EA0008DFF8CC9009F10409C9F8008095
:1006D000D1F8048008F40038B8F5003F0ED1DFF8F7
:1006E000B480A8F10408D8F8008048EA0008DFF8D0
:1006F000A490A9F10409C9F800800DE0DFF8948006
:10070000A8F10408D8F8008028EA0008DFF88490EF
:10071000A9F10409C9F80080D1F8048008F48038F0
:10072000B8F5803F0ED1DFF86C80A8F10808D8F842
:10073000008048EA0008DFF85C90A9F10809C9F8D0
:1007400000800DE0DFF84C80A8F10808D8F80080A0
:1007500028EA0008DFF83C90A9F10809C9F80080F0
:10076000521CD1F8008028FA02F8B8F1000F7FF48B
:1007700089AEBDE8F88700000000111000100240AB
:1007800000080140000C014000100140001401402D
:10079000080001400804014010B5C26821EA0203C4
:1007A00002EA010443EA0443036110BD0AB1016196
:1007B00001E00B04036170470148006870470000C6
:1007C0000C000020034800680349097808440149E7
:1007D000086070470C0000201400002010B5084885
:1007E000006840F0100006490860032000F0E2F8BD
:1007F0000F2000F007F800F05FF8002010BD0000A7
:10080000002002402DE9F04188B004460027B84698
:10081000002600BF2348C06940F004002149C86198
:100820000846C06900F00400019000BF00BF02A9A3
:1008300003A800F099F9069F1FB900F0BDF905461D
:1008400002E000F0B9F945001748B5FBF0F0A0F15F
:10085000010816481649086040F2E7311448C160A3
:10086000C0F80480002101618160816100F062FCB8
:10087000064696B90E4800F091FC06466EB91E2059
:1008800000F04AF8102C07D2002221461E2000F06A
:1008900053F80848046000E00126304608B0BDE87F
:1008A000F08100000010024040420F0000080040AC
:1008B0000C0100201000002008B500BF144880691A
:1008C00040F00100124988610846806900F001008B
:1008D000009000BF00BF00BF0846C06940F08050D4
:1008E000C8610846C06900F08050009000BF00BF9A
:1008F00000220F21901E00F01FF800BF0549486834
:1009000020F0E06040F00070486000BF08BD0000CB
:10091000001002400000014001460846002809DBA3
:1009200000F01F0301229A4043099B0003F1E023DA
:10093000C3F8002100BF70472DE9F05F80460D46E7
:100940001646002701F00AFA074639462A4633467A
:1009500001F00700C0F1070ABAF1040F02D94FF005
:10096000040A01E0C0F1070AD14600F1040ABAF115
:10097000070F02D24FF0000A01E0A0F1030AD446AB
:100980004FF0010A0AFA09FAAAF1010A0AEA020A70
:100990000AFA0CFA4FF0010B0BFA0CFBABF1010B4E
:1009A0000BEA030B4AEA0B042146404601F0DEF94C
:1009B000BDE8F09F00BF00F00702064B19684FF634
:1009C000FF031940044B0B4343EA0221014B19601A
:1009D00000BF70470CED00E00000FA0570B504465A
:1009E0000D460CB9012070BD5A48006800F00700A0
:1009F000A8420ED25748006820F007002843554906
:100A000008600846006800F00700A84201D00120F5
:100A1000E9E7207800F0020002281DD1207800F0DC
:100A20000400042805D14C48406840F4E0604A497D
:100A30004860207800F00800082805D14648406842
:100A400040F46050444948604348406820F0F0005A
:100A5000A168084340494860207800F0010078B35D
:100A60006068012806D13C48006800F4003090B965
:100A70000120B8E76068022806D13748006800F016
:100A8000007040B90120AEE73348006800F0020072
:100A900008B90120A7E73048406820F003006168EA
:100AA00008432D494860FFF787FE064609E0FFF737
:100AB00083FE801B41F28831884202D9032092E7ED
:100AC00007E02548406800F00C006168B0EB810F3A
:100AD000EDD12048006800F00700A8420ED91D485B
:100AE000006820F0070028431A490860084600689B
:100AF00000F00700A84201D0012074E7207800F040
:100B00000400042807D11448406820F4E060E1683C
:100B1000084311494860207800F00800082808D1EF
:100B20000D48406820F46050216940EAC1000A493C
:100B3000486000F051F808494968C1F30311074AB9
:100B4000515CC8400649086006480068FFF75AFE35
:100B5000002048E70020024000100240DE3D00086F
:100B600018000020100000200F2202600D4A526879
:100B700002F0030242600B4A526802F0F002826007
:100B8000084A526802F4E062C260064A526802F4FF
:100B90006052D2080261044A126802F007020A6039
:100BA0007047000000100240002002400148006829
:100BB000704700001800002000B5FFF7F7FF044958
:100BC0004968C1F30221034A515CC84000BD0000DE
:100BD00000100240EE3D000870B500210022002404
:100BE00000230020134D696801F00C05F5B1042DB8
:100BF00002D0082D19D101E00F4819E00F4DC1F3C3
:100C00008346AB5D01F4803555B10A4D6D68C5F37F
:100C100040450B4E725D084D5D43B5FBF2F402E0BA
:100C2000084D03FB05F4204602E000BF024800BF68
:100C300000BF70BD0010024000127A00CC3D0008D9
:100C4000DC3D000800093D00F8B504460CB9012060
:100C5000F8BD207800F00100002878D0F8484068FE
:100C600000F00C0004280CD0F548406800F00C009F
:100C7000082811D1F248406800F48030B0F5803F78
:100C80000AD1EF48006800F4003000285FD06068A7
:100C900000285CD10120DBE700BF6068B0F5803F31
:100CA00006D1E748006840F48030E549086028E054
:100CB000606858B9E248006820F48030E049086074
:100CC0000846006820F4802008601AE06068B0F5EB
:100CD000A02F0BD1DA48006840F48020D849086082
:100CE0000846006840F4803008600AE0D448006894
:100CF00020F48030D24908600846006820F4802043
:100D0000086000BF606888B1FFF756FD054606E041
:100D1000FFF752FD401B642801D9032098E7C8481B
:100D2000006800F400300028F2D010E0FFF744FD26
:100D3000054606E0FFF740FD401B642801D903206B
:100D400086E7BF48006800F400300028F2D1207820
:100D500000F00200022857D1B948406800F00C00AA
:100D600050B1B748406800F00C00082818D1B448CA
:100D7000406800F4803098B9B148006800F0020083
:100D800020B12069012801D0012061E7AC4800684A
:100D900020F0F800616940EAC100A949086033E029
:100DA0002069E8B10120A7490860FFF705FD054665
:100DB00006E0FFF701FD401B022801D9032047E7A9
:100DC0009F48006800F002000028F2D09C480068AC
:100DD00020F0F800616940EAC1009949086013E019
:100DE000002098490860FFF7E7FC054606E0FFF79A
:100DF000E3FC401B022801D9032029E79048006842
:100E000000F002000028F2D1207800F00800082845
:100E10002DD1A069B8B101208B490860FFF7CCFC47
:100E2000054606E0FFF7C8FC401B022801D9032055
:100E30000EE78348406A00F002000028F2D001204B
:100E400000F0DAFD13E000207F490860FFF7B4FCF2
:100E5000054606E0FFF7B0FC401B022801D903203D
:100E6000F6E67748406A00F002000028F2D12078C8
:100E700000F00400042873D100277148C06900F015
:100E8000805070B900BF6E48C06940F080506C4916
:100E9000C8610846C06900F08050009000BF00BFE4
:100EA00001276A48006800F48070B0B9674800689C
:100EB00040F4807065490860FFF77EFC054606E057
:100EC000FFF77AFC401B642801D90320C0E65F4885
:100ED000006800F480700028F2D000BFE0680128AC
:100EE00006D15748006A40F001005549086227E0E2
:100EF000E06858B95248006A20F001005049086281
:100F00000846006A20F00400086219E0E06805283D
:100F10000BD14B48006A40F004004949086208467A
:100F2000006A40F0010008620AE04548006A20F0CB
:100F30000100434908620846006A20F00400086284
:100F400000BFE068A0B1FFF737FC054609E0FFF7F6
:100F500033FC401B41F28831884202D9032077E6F6
:100F600022E03748006A00F002000028EFD012E0CB
:100F7000FFF722FC054608E0FFF71EFC401B41F28C
:100F80008831884201D9032062E62D48006A00F0CA
:100F900002000028F0D1012F05D12948C06920F0B6
:100FA00080502749C86100BFE069C8B32448406841
:100FB00000F00C00082860D0E069022848D1002029
:100FC00020490866FFF7F8FB054606E0FFF7F4FB4B
:100FD000401B022801D903203AE61948006800F0B6
:100FE00000700028F2D1206AB0F5803F07D1144884
:100FF000406820F40030A168084311494860D4E9F2
:10100000080108430E49496821F4741108430C494A
:10101000486001200B490866FFF7CEFB054607E054
:101020003DE0FFF7C9FB401B022801D903200FE672
:101030000348006800F000700028F2D02FE00000A4
:101040000010024000004242800442420070004012
:10105000002014490866FFF7AFFB054606E0FFF7DE
:10106000ABFB401B022801D90320F1E50E480068C4
:1010700000F000700028F2D111E0E069012800D1F1
:10108000E6E50948466806F48031206A814204D1C9
:1010900006F47011606A814201D00120D8E5002079
:1010A000D6E5000000004242001002407047704741
:1010B00030B502460B4600BF92F83C00012801D132
:1010C000022030BD012082F83C0000BF022082F8DF
:1010D0003D00106844681068816824F07004186846
:1010E000044310684460104D1068A8420BD010688B
:1010F000B0F1804F07D00D4D1068A84203D00C4DC1
:101100001068A84205D121F0800158680143106899
:101110008160012082F83D0000BF002082F83C0081
:1011200000BF00BFCDE70000002C014000040040DC
:101130000008004010B504460CB9012010BD94F819
:101140003D0028B9002084F83C00204600F025F836
:10115000022084F83D00211D206800F0EDFC0120F4
:1011600084F8460000BF84F83E0001213F2001556D
:10117000402001554120015500BF00BF012084F8E7
:10118000420043200155442001554520015500BF30
:10119000012084F83D000020D0E77047014691F817
:1011A0003D00012801D001207047022081F83D0058
:1011B0000868C06840F001000B68D860124B0868EE
:1011C00098420BD00868B0F1804F07D00F4B0868E9
:1011D000984203D00E4B086898420CD1086880688A
:1011E00000F00702062A0CD00868006840F00100F1
:1011F0000B68186005E00868006840F001000B68A3
:1012000018600020D0E70000002C014000040040DE
:1012100000080040704770B504462068C568206823
:10122000066906F00200022819D105F00200022822
:1012300015D1401F2168086101202077206880694E
:1012400000F0030018B12046FFF7E4FF05E0204658
:1012500000F0C4F8204600F099F90020207706F04D
:101260000400042819D105F00400042815D1C04356
:1012700021680861022020772068806900F44070AE
:1012800018B12046FFF7C6FF05E0204600F0A6F89B
:10129000204600F07BF90020207706F0080008289F
:1012A00019D105F00800082815D1C043216808614C
:1012B000042020772068C06900F0030018B12046A0
:1012C000FFF7A8FF05E0204600F088F8204600F070
:1012D0005DF90020207706F01000102819D105F0E4
:1012E0001000102815D1C04321680861082020771C
:1012F0002068C06900F4407018B12046FFF78AFFEB
:1013000005E0204600F06AF8204600F03FF9002092
:10131000207706F0010048B105F0010030B16FF010
:10132000010021680861204600F09CF906F0800069
:10133000802809D105F08000802805D1C0432168AC
:1013400008612046FFF7B2FE06F04000402809D1B0
:1013500005F04000402805D1C043216808612046BF
:1013600000F08CF906F02000202809D105F02000BB
:10137000202805D1C043216808612046FFF797FE69
:1013800070BD000010B586B00446002002900390A6
:10139000049005900E492068884216D100BF0D4880
:1013A000806940F004000B4988610846806900F0BC
:1013B0000400019000BF00BF402002900220039073
:1013C000059002A90448FFF757F806B010BD0000C9
:1013D00000040040001002400008014070472DE961
:1013E000F04104460D461646002700BF94F83C0025
:1013F000012802D10220BDE8F081012084F83C00E0
:1014000000BF36B1042E1BD0082E31D00C2E5ED179
:1014100045E02946206800F0E3FB2068806940F041
:101420000800216888612068806920F00400216834
:10143000886120688069296908432168886148E0DB
:101440002946206800F0FCFB2068806940F40060B9
:10145000216888612068806920F480602168886143
:1014600020688069296940EA01202168886130E0AC
:101470002946206800F018FC2068C06940F0080088
:101480002168C8612068C06920F004002168C86133
:101490002068C069296908432168C86119E02946A4
:1014A000206800F035FC2068C06940F400602168C5
:1014B000C8612068C06920F480602168C861206824
:1014C000C069296940EA01202168C86101E001275B
:1014D00000BF00BF00BF002084F83C0000BF3846BA
:1014E00089E710B504460CB9012010BD94F83D0001
:1014F00028B9002084F83C00204600F025F802209E
:1015000084F83D00211D206800F016FB012084F8BE
:10151000460000BF84F83E0001213F2001554020D5
:1015200001554120015500BF00BF012084F8420051
:1015300043200155442001554520015500BF01209D
:1015400084F83D000020D0E738B504460D492068F6
:10155000884215D100BF0C48C06940F002000A491A
:10156000C8610846C06900F00200009000BF00BFDB
:10157000002205211D20FFF7DFF91D20FFF7CCF920
:1015800038BD000000040040001002407047000019
:1015900070B504460D4615B994F83E000BE0042DD5
:1015A00002D13F20005D06E0082D02D14020005D01
:1015B00001E04120005D012801D0012070BD1DB96E
:1015C000022084F83E000EE0042D03D102213F20CA
:1015D000015508E0082D03D102214020015502E009
:1015E00002214120015501222946206800F0E6FA37
:1015F00019492068884201D1012000E0002028B16B
:101600002068406C40F4004021684864124920681A
:1016100088420BD02068B0F1804F07D00F49206876
:10162000884203D00E49206888420CD12068806827
:1016300000F00706062E0CD02068006840F001007C
:101640002168086005E02068006840F0010021681A
:1016500008600020B2E70000002C014000040040B8
:101660000008004010B5044603492068884201D1B3
:10167000FFF7A8F810BD000000080040704700BF49
:10168000FEE7000010B50B4A00210B4800F00EFCED
:101690000A4908600A4A00210A4800F007FC0A4982
:1016A00008600A4A00210A4800F000FC0949086065
:1016B00010BD0000603D0008211A00080000002055
:1016C000843D00082D1A000804000020A83D0008F1
:1016D000911A00080800002000B585B00020019094
:1016E00002900390049000BF2D48806940F01000E4
:1016F0002B4988610846806900F01000009000BF07
:1017000000BF00BF0846806940F02000886108469D
:10171000806900F02000009000BF00BF00BF0846B5
:10172000806940F0040088610846806900F0040088
:10173000009000BF00BF00BF0846806940F008006D
:1017400088610846806900F00800009000BF00BF73
:10175000012251031348FFF729F8012240F2034107
:101760001148FFF723F84FF4005001900120029038
:10177000002003900220049001A90A48FEF77CFE95
:1017800040F20340019001200290002003900220CB
:10179000049001A90448FEF76FFE05B000BD0000EB
:1017A0000010024000100140000C014000B589B05B
:1017B0000020079008901C216846FEF79EFD1848FF
:1017C000184908604720486000211648816040F2AF
:1017D000E731C160002101618161FFF782FE08B13C
:1017E000FEF746FE00200790089007A90D48FFF776
:1017F0005FFC08B1FEF73CFE6020009000200190E5
:1018000002900490002269460648FFF7E8FD08B1FF
:10181000FEF72EFE0348FFF7B5FD09B000BD00003E
:1018200000040040C400002000BFFEE72DE9F05F87
:1018300004460D4616461F46DDE90CABDDE90A8974
:1018400025606660A760A4F80C80C4F81090A4F826
:1018500014A0C4F818B00E98A0830F98E0831098D5
:10186000208411986084129884F82400139884F8D6
:101870002500D4E90001FFF78BFEA06920B1A18B00
:101880000122A069FEF792FFBDE8F09F70B5044603
:101890000D46B4F92000A84201DAB4F92050B4F999
:1018A00020004042A84202DD208C404205B294F85C
:1018B000240008B1684205B2002D04DD608CA84206
:1018C00001DD608C05B2002D06DA608C4042A84232
:1018D00002DA608C404205B2281E01DB014600E0BE
:1018E0004142E28B5143B4F9202091FBF2F18EB2D8
:1018F000002D21DDA1890122A068FEF757FFA18AF2
:1019000000222069FEF752FF606818B9206800685D
:10191000466338E06068042803D120680068866365
:1019200031E06068082803D120680068C6632AE0B7
:1019300020680068066426E0002D21DAA1890022D3
:10194000A068FEF733FFA18A01222069FEF72EFF6F
:10195000606818B920680068466314E0606804286D
:1019600003D12068006886630DE06068082803D111
:1019700020680068C66306E020680068066402E02C
:10198000204600F001F870BD10B50446606820B92B
:10199000002021680968486313E06068042804D1C6
:1019A00000202168096888630BE06068082804D17A
:1019B000002021680968C86303E0002021680968E5
:1019C000086494F8250050B9A1890022A068FEF7A8
:1019D000EDFEA18A00222069FEF7E8FE09E0A18958
:1019E0000122A068FEF7E2FEA18A01222069FEF72B
:1019F000DDFE10BD00BFFEE708B508490968C9084B
:101A00004FF47A72B1FBF2F14143009100BF00BF85
:101A100000994A1E00920029F9D108BD1800002043
:101A200000BF012000F0ECF9FBE7000000BF4FF41D
:101A300048711448FFF72AFF4FF400511248FEF78F
:101A4000ABFE4FF4FA7000F0DBF910490D48FFF7D8
:101A50001DFF4FF400510C48FEF79EFE4FF4FA7044
:101A600000F0CEF90748FFF78FFF4FF4005106480A
:101A7000FEF792FE4FF4FA7000F0C2F9012000F078
:101A8000BFF9D4E79C000020001001400CFEFFFFCE
:101A900000BF012000F0B4F9FBE710B54FF0E020E3
:101AA000006901F007FF012801D001F051FB10BDD2
:101AB00000B58FB0282105A8FEF71FFC1421684649
:101AC000FEF71BFC01200590000406900020079003
:101AD0000120099002200C90C1030D914FF4E011F8
:101AE0000E9105A8FFF7B0F808B1FEF7C1FC0F2072
:101AF000009002200190002002904FF4806003903B
:101B00000020049002216846FEF768FF08B1FEF746
:101B1000AFFC0FB000BD704710B50248FFF77BFB6C
:101B200010BD0000C400002010B50248FFF773FB91
:101B300010BD00000C01002010B502681C4B98423B
:101B400008D0B0F1804F05D01A4B984202D01A4B02
:101B5000984203D122F070024B681A43144B98420A
:101B600008D0B0F1804F05D0124B984202D0124BF2
:101B7000984203D122F44072CB681A4322F08003CA
:101B80004C6943EA040202608B68C3620B6883629B
:101B9000074B984201D10B69036301234361036939
:101BA00003F001031BB1036923F00103036110BDBE
:101BB000002C0140000400400008004030B501F056
:101BC0001F05012404FA05F3046A9C430462046AB5
:101BD00001F01F0502FA05F52C43046230BD000038
:101BE00030B5026A056A25F001050562436884691B
:101BF00024F0700424F003040D682C4322F0020248
:101C00008D682A430D4DA84206D100BF22F008027C
:101C1000CD682A4322F00402084DA84207D123F4DC
:101C2000807323F400734D692B438D692B4343600C
:101C300084614D684563026230BD0000002C0140A4
:101C400030B5026A056A25F01005056243688469AB
:101C500024F4E04424F440740D6844EA052422F09E
:101C600020028D6842EA05120E4DA84207D100BF3E
:101C700022F08002CD6842EA051222F04002094DAE
:101C8000A84209D123F4806323F400634D6943EA39
:101C900085038D6943EA8503436084614D688563EC
:101CA000026230BD002C014030B5026A056A25F49D
:101CB000807505624368C46924F0700424F003044D
:101CC0000D682C4322F400728D6842EA05220F4D04
:101CD000A84207D100BF22F40062CD6842EA052283
:101CE00022F48062094DA84209D123F4805323F4E1
:101CF00000534D6943EA05138D6943EA05134360B8
:101D0000C4614D68C563026230BD0000002C014013
:101D100030B5036A056A25F4805505624468C269D6
:101D200022F4E04222F440720D6842EA052223F4D4
:101D300000538D6843EA0533064DA84204D124F4CC
:101D400080444D6944EA85144460C2614D6805646D
:101D5000036230BD002C014000BFFEE7024800686E
:101D6000C0F30220704700000CED00E010B5002821
:101D700004DB0A07130E054A135406E00A07140E83
:101D8000034A00F00F031B1FD45410BD00E400E011
:101D900018ED00E0EFF30580704700008AB0FEF711
:101DA0001DFDFFF785FEFFF797FCFFF7FFFC012005
:101DB00032224FF47A73CDE9072006930990184632
:101DC0004FF480610B4A0223CDE90232CDE90410C1
:101DD00001211346CDE90012002207490748FFF709
:101DE00025FD00F01DF8FFF74DFC00F02FF800BFB7
:101DF000FEE70000000C0140C40000209C00002011
:101E000070B50546FFF7C6FF10B16FF0050404E09A
:101E1000002415B1284600F0F7FF204670BD0000F1
:101E200010B5FFF7B7FF10B16FF0050409E00648E1
:101E3000006820B9012004490860002401E04FF047
:101E4000FF34204610BD00006C00002070B5FFF785
:101E5000A1FF10B16FF005041FE0114800680128D0
:101E600019D100BF801F0021002804DB0A07130ED0
:101E70000C4A135406E00A07150E0B4A00F00F0334
:101E80001B1FD55400BF00BF02200549086001F0A8
:101E900037F8002401E04FF0FF34204670BD000009
:101EA0006C00002000E400E018ED00E02DE9FF47A1
:101EB00080468946144600200390FFF76BFF0028F8
:101EC0004ED1B8F1000F4BD0802618258246471E10
:101ED00044B3206808B1D4F800A0A06900B1A56996
:101EE0002DB1382D03D8207900F0010018B1002061
:101EF00004B0BDE8F087606908B160698608A06831
:101F000040B1E0685C2805D3206918B1606908B168
:101F1000012708E0A06830B9E06820B9206910B94D
:101F2000002700E00027012F0CD12169A0684B4653
:101F30003246CDE9005102905146404601F05CFC2A
:101F400003900DE067B903A8B2B24B465146CDE904
:101F50000050404601F01EFC012801D000200390F3
:101F60000398C5E72DE9F04105460E461648076877
:101F700016480068001D00F0BFFD681C38B936B176
:101F800012480168091D124800F00CFE1AE07C1985
:101F90000E4800684460BC4207D20C480168091D25
:101FA0000C48006800F0E4FD0CE008480168091DD9
:101FB0000948006800F0DCFD08480068844201D24E
:101FC00006480460BDE8F081300000201C000020BD
:101FD0004406002024000020200000204C000020A7
:101FE00010B5044600F0EAFD24480068401C23496F
:101FF00008602348006840B921480460084600682A
:1020000001280DD100F0FCF90AE01E48006838B93B
:102010001B480068C06AE16A884201D81848046019
:1020200019480068401C1849086008460068606448
:102030001649E06A0968884202D91449E06A0860D2
:10204000E16A01EB8101124A02EB8100211D00F0DF
:10205000A9FD00F0DDFD0B48006868B10848006884
:10206000C06AE16A884207D24FF08050094908608F
:10207000BFF34F8FBFF36F8F10BD00002C00002007
:102080001C00002038000020480000203400002000
:102090009401002004ED00E008B500F08FFD124827
:1020A0000068E8B9114800F053FD114800F050FDF8
:1020B0000E48104908600E480F49086000200F4B79
:1020C0000F4A102100900A2001F05CF806490860D0
:1020D0000846006820B10BA10348006800F058FED4
:1020E00000F096FD08BD00006000002058060020AA
:1020F0006C060020580000205C00002080060020B4
:10210000D0060020546D72510000000010B516E09A
:1021100000F054FD0C48C068C468201D00F0ECFCC1
:102120000A480068401E0949086009480068401EC6
:102130000749086000F06CFD204600F05FF8044895
:1021400000680028E4D110BD300600202C000020DB
:102150002800002070B504460D46206C70B1216C3B
:10216000E0680144E160D4E90210884201D32168AB
:10217000E1602846226CE168FEF772F870BD2DE937
:10218000F04104460F4615464FF00008A66B206C40
:1021900048B9206800282CD1A06801F043FC804693
:1021A0000020A06025E07DB93946226C6068FEF70A
:1021B00057F8216C606808446060D4E901018842E6
:1021C00017D32068606014E03946226CE068FEF79F
:1021D00047F8216CE068411AE1602168E0688842B4
:1021E00003D2216CA068411AE160022D01D106B131
:1021F000761E701CA0634046BDE8F08110B5044611
:1022000094F8590030B9206B00F020FD204600F012
:102210001DFD1AE094F85900012803D1204600F072
:1022200015FD12E094F85900022801D1012000E0C8
:10223000002050B900BF502080F31188BFF34F8FAA
:10224000BFF36F8F00BF00BFFEE710BD0146084A15
:10225000126812680AB9012200E000220A600A68C6
:1022600022B9034A1268D268106800E00020704763
:102270005800002030B54FF44063174800F00704C1
:102280002CB1C01D20F00700134C041B1B1B024681
:10229000124C22600024114D6C60D018083820F0D8
:1022A00007000F4C206000240D4D2D686C600C4D14
:1022B0002D682C601146441A4C60094C24680C604F
:1022C000084D4C682C60084D4C682C604FF0004461
:1022D000064D2C6030BD0000280E0020700000204C
:1022E00078000020800000207C0000208C0000206E
:1022F00000BFFFF70BFF064800680128F9D94FF02F
:10230000805004490860BFF34F8FBFF36F8FF0E731
:102310009401002004ED00E02DE9F04106460D4651
:1023200017469846069C0DB9246000E02760E663D6
:1023300025640121204600F095FF84F84C80BDE81B
:10234000F0812DE9F05F82460E4690469B460A9F3B
:102350000C9C4FEA8801A522206BFDF7C6FFA8F16F
:102360000100216B01EB800929F0070909F0070042
:1023700008B9012000E0002050B900BF502080F3D0
:102380001188BFF34F8FBFF36F8F00BF00BFFEE711
:1023900086B1002507E0715D04F134004155705DA0
:1023A00000B902E06D1C102DF5D300BF00214320C1
:1023B000015502E0002084F83400382F00D337277D
:1023C000E762E76400202065201D00F0CEFB04F1E9
:1023D000180000F0CAFB2461C7F13800A0616462F4
:1023E0000020606584F858005A465146484600F07F
:1023F00071FB20600B9808B10B980460BDE8F09F5A
:1024000010B5002407E004EB84010F4A02EB8100C1
:1024100000F09EFB641C382CF5D30C4800F098FBB0
:102420000B4800F095FB0B4800F092FB0A4800F0C7
:102430008FFB0A4800F08CFB0448094908600448F7
:102440000849086010BD000094010020F405002038
:10245000080600201C06002030060020440600204C
:10246000200000202400002010B50146164800E09E
:10247000006803688B42FBD30246436813448B42D7
:1024800004D143684C682344436001460A464B68C4
:1024900013440468A34211D10C4C03682468A3427E
:1024A00008D04B680468646823444B6003681B6869
:1024B0000B6005E0054B1B680B6001E003680B60D7
:1024C000884200D0016010BD70000020780000201C
:1024D0002DE9F04104460D4616461F464FF0000810
:1024E00065602461B5420CD8F01BA169884202D313
:1024F0004FF0010811E0211D0948006800F038FB89
:102500000BE0BE4204D2BD4202D34FF0010804E00A
:10251000211D0448006800F02BFB4046BDE8F08117
:102520005C0000205800002070B5054600F046FB16
:10253000A86B08B9012400E0002400F069FB2046E4
:1025400070BD70B5054600F039FBA86BE96B884299
:1025500001D1012400E0002400F05AFB204670BDA8
:10256000F8B505460F461A480068C068C468201DC3
:1025700000F0C2FA94F8280000F00400E8B1A06965
:1025800041192B463A462046FFF7A2FFD8B100205A
:1025900003462A4601460090204601F09FFB06466E
:1025A00056B900BF502080F31188BFF34F8FBFF39F
:1025B0006F8F00BF00BFFEE705E094F8280020F011
:1025C000010084F828002046216A8847F8BD0000F1
:1025D00058000020F0B587B0A0E00398002811DA79
:1025E00004AE56B900BF502080F31188BFF34F8F5F
:1025F000BFF36F8F00BF00BFFEE7D6E90020B168D0
:10260000904700BF03980028E6DB059C606908B985
:10261000012000E0002010B9201D00F06DFA02A892
:1026200000F0DEF8054603980A2875D2DFE800F0CE
:1026300009050739416306083A4200BF00BF00BFE1
:1026400000BF94F8280040F0010084F828000498A6
:10265000A269811803462A462046FFF739FFF8B1E0
:102660002046216A884794F8280000F00400B8B199
:10267000002000900498A1694218002319462046C2
:1026800001F02CFB074657B900BF502080F311889A
:10269000BFF34F8FBFF36F8F00BF00BFFEE700BFD8
:1026A0003BE000BF94F8280020F0010084F82800E7
:1026B00033E000BF94F8280040F0010084F82800BF
:1026C0000498A061A06908B1012000E0002050B981
:1026D00000BF502080F31188BFF34F8FBFF36F8F7F
:1026E00000BF00BFFEE7A06941192B462A462046DD
:1026F000FFF7EEFE11E094F8280000F0020018B990
:10270000204600F0A3FA05E094F8280020F001002C
:1027100084F8280001E0FFE700BF00BF002203A902
:102720000448006800F03CFF00287FF456AF07B073
:10273000F0BD000060000020F8B505460C4600F032
:102740003BFC684600F04CF80646009820BB44B9B4
:10275000B54206D801F004FA31462846FFF700FFDB
:102760001CE03CB10E480068006808B9012000E098
:1027700000200446A91B22460A48006800F01EFB00
:1027800001F0EEF950B94FF0805007490860BFF3EF
:102790004F8FBFF36F8F01E001F0E2F9F8BD000049
:1027A0005C0000206000002004ED00E00A49096898
:1027B000096809B9012100E0002121B14FF0FF3182
:1027C000064A116006E004490968C968C868034AF6
:1027D0004168116070470000200000204C0000207C
:1027E00070B5044601F076F8054607480068854252
:1027F00004D200F00BF80120206001E000202060EE
:1028000001480560284670BD680000202DE9F843A6
:1028100034E025480068C068056823480068C0683F
:10282000C468201D00F068F92046216A884794F8A2
:10283000280000F0040008B3A0694619AE4207D989
:1028400066602461211D1848006800F091F915E0C8
:10285000002003462A4601460090204601F03EFA39
:10286000074657B900BF502080F31188BFF34F8F40
:10287000BFF36F8F00BF00BFFEE700BF0A480068CC
:10288000006808B9012000E000200028C1D00648F7
:10289000D0F8008005480068034908600348C0F884
:1028A0000080BDE8F8830000580000205C00002094
:1028B0000E480068401C08B9012000E0002050B913
:1028C00000BF502080F31188BFF34F8FBFF36F8F8D
:1028D00000BF00BFFEE700BF502080F31188BFF3A8
:1028E0004F8FBFF36F8F00BF00BFFEE79000002047
:1028F00008B500BF6846FFF7A9FC044620460099CA
:10290000FFF71AFFFFF766FEF4E770B5044600F024
:1029100055F994F9455010E0606A08B9012000E0CB
:10292000002038B904F1240001F0CEF818B100F00D
:10293000A5FA00E003E0681E45B2002DECDC00BF04
:10294000FF2084F8450000F063F900F037F994F9AE
:10295000445010E0206908B9012000E0002048B987
:1029600004F1100001F0B0F808B100F087FA681E19
:1029700045B200E001E0002DECDC00BFFF2084F850
:10298000440000F045F970BD2DE9F04104464FF0D8
:10299000000800F011FB4948006808B9FFF76AFC1D
:1029A000474800682040002870D1D4B1083404F0B2
:1029B0000700B0B104F00700C0F10800044404F0BF
:1029C000070008B9012000E0002050B900BF5020E6
:1029D00080F31188BFF34F8FBFF36F8F00BF00BF2D
:1029E000FEE7002C52D03748006884424ED8364E5D
:1029F0003046056801E02E462D686868A04202D284
:102A000028680028F7D12D48006885423ED03068FC
:102A100000F10808286830606868001B102819D980
:102A20002F1907F0070008B9012000E0002050B975
:102A300000BF502080F31188BFF34F8FBFF36F8F1B
:102A400000BF00BFFEE76868001B78606C60384616
:102A5000FFF70AFD1B4968680968081A19490860E8
:102A60000846006819490968884203D21548006879
:102A700016490860124968680968084368600020C0
:102A8000286013480068401C1149086001F068F88C
:102A900008F0070008B9012000E0002050B900BF8D
:102AA000502080F31188BFF34F8FBFF36F8F00BFAB
:102AB00000BFFEE74046BDE8F0810000780000203E
:102AC0008C0000207C00002070000020800000208E
:102AD00084000020001F4FF080730360001F21F06E
:102AE00001030360001F034B0360143802602038A9
:102AF00070470000B128000801460A69D1E9013099
:102B00009860D1E9010358605068884201D1886813
:102B10005060002008611068401E10601068704707
:102B2000034B0360034B0B6080231360704700006E
:102B300070070020CC070020034B0360034B0B60A1
:102B40004FF4807313607047CC090020280A0020DE
:102B500000F1080141604FF0FF31816000F1080190
:102B6000C16001610021016070470021016170476F
:102B700010B502460B685C1C0CB9106907E002F145
:102B8000080000E04068446824689C42FAD9446820
:102B90004C604C68A160886041600A611468641CE4
:102BA000146010BD42684A6093688B6093685960F6
:102BB0009160086103685B1C0360704700BF502090
:102BC00080F31188BFF34F8FBFF36F8F00BF0E48A4
:102BD0000068401C0C49086008460068012812D1B2
:102BE0000A480068C0B208B9012000E0002050B9CE
:102BF00000BF502080F31188BFF34F8FBFF36F8F5A
:102C000000BF00BFFEE770479000002004ED00E029
:102C10000D48006850B900BF502080F31188BFF301
:102C20004F8FBFF36F8F00BF00BFFEE706480068FD
:102C3000401E054908600846006820B9002080F35E
:102C4000118800BF00BF70479000002070B5064695
:102C50003546002E44D0083D2C462249606809685C
:102C6000084008B1012000E0002050B900BF50200A
:102C700080F31188BFF34F8FBFF36F8F00BF00BF8A
:102C8000FEE7206808B9012000E0002050B900BF2D
:102C9000502080F31188BFF34F8FBFF36F8F00BFB9
:102CA00000BFFEE70F49606809680840C0B12068AE
:102CB000B0B90C49606809688843606000F07CF92D
:102CC0000949606809680844074908602046FFF719
:102CD000CBFB06480068401C0449086000F040FF38
:102CE00070BD00008C0000207C00002088000020C7
:102CF00000204FF0E02108618861064800684FF429
:102D00007A71B0FBF1F0401E4FF0E02148610720DE
:102D1000086170471800002070B5FDF77DFA044681
:102D2000102C16D304F1E02090F8F05315480078E9
:102D3000854201DB012000E0002050B900BF502097
:102D400080F31188BFF34F8FBFF36F8F00BF00BFB9
:102D5000FEE70D48006800F4E0600C49096888420D
:102D600001D8012000E0002050B900BF502080F3BE
:102D70001188BFF34F8FBFF36F8F00BF00BFFEE717
:102D800070BD0000940000200CED00E098000020D1
:102D9000024600200BE0084B53F8303033B9064BA5
:102DA00043F8301003EBC0035A6002E0401C0828CF
:102DB000F1D300BF70470000540100202DE9F0411D
:102DC00005460E4617462C46FFF7F8FE94F94400D8
:102DD000401C10B9002084F8440094F94500401CC0
:102DE00010B9002084F84500FFF712FFA06B28B946
:102DF0003A46314604F1240000F062F82046FFF71D
:102E000084FDBDE8F081000070B504460025D4B112
:102E10001248006808B9012000E0002050B900BF46
:102E2000502080F31188BFF34F8FBFF36F8F00BF27
:102E300000BFFEE700F0C0F800212046FFF792F83F
:102E400000F08EFE05463DB94FF080500449086001
:102E5000BFF34F8FBFF36F8F70BD00005400002091
:102E600004ED00E003490968016003490968416015
:102E7000704700004400002030000020012001497C
:102E8000086070474000002070B504460D4654B9F4
:102E900000BF502080F31188BFF34F8FBFF36F8FB7
:102EA00000BF00BFFEE70548016818312046FFF764
:102EB0005FFE01212846FFF755F870BD1C00002079
:102EC00070B505460E46144655B900BF502080F334
:102ED0001188BFF34F8FBFF36F8F00BF00BFFEE7B6
:102EE0000648016818312846FFF75CFE0CB14FF028
:102EF000FF3621463046FFF735F870BD1C00002034
:102F000010B586B000200590049003AA04A905A876
:102F1000FFF706FE0022DDE904101346CDE900218B
:102F200002901EA11F48039A00F066FC1E4908602B
:102F30000846006808B1012400E00024012C02D1F9
:102F400000F090FE0446012C15D100BF502080F304
:102F50001188BFF34F8FBFF36F8F00BF4FF0FF306B
:102F600012490860012012490860002011490860D8
:102F700000F072F810E0601C08B1012000E00020B1
:102F800050B900BF502080F31188BFF34F8FBFF3BB
:102F90006F8F00BF00BFFEE706B010BD49444C452F
:102FA00000000000F1220008500000204C0000202A
:102FB000380000203000002002480068401C014911
:102FC00008607047540000201E48006818B10120B6
:102FD0001D49086034E000201B4908601B48016857
:102FE0000CE051B900BF502080F31188BFF34F8F20
:102FF000BFF36F8F00BF00BFFEE7491E01EB8100EA
:10300000134A52F8200008B9012000E000200028EF
:10301000E7D101EB81020E4B03EB8200426852685C
:10302000426000F108024368934202D1426852684C
:1030300042604268D268074B1A600448016000BFD2
:1030400070470000540000204000002034000020A1
:10305000940100201C0000201CB538490846007867
:103060000190FF200A4610700846007800909DF8F5
:10307000000000F0F0009DF80020904201D10120F6
:1030800000E0002050B900BF502080F31188BFF34A
:103090004F8FBFF36F8F00BF00BFFEE79DF80000AA
:1030A00000F05000264A10700720264A106009E000
:1030B00024480068401E234A10609DF80000400626
:1030C000000E00909DF8000000F080008028EFD0F6
:1030D0001C480068C0F10700042801D1012000E06D
:1030E000002050B900BF502080F31188BFF34F8FEC
:1030F000BFF36F8F00BF00BFFEE7124800680002F9
:10310000104A10601046008800F4E06010600B4A1E
:10311000019810700C48006840F470000A4908607B
:103120000846006840F070400860FFF7E1FD0020AD
:1031300006490860FDF73AF800201CBD00E400E0F5
:10314000940000209800002020ED00E09000002076
:1031500010B500BF502080F31188BFF34F8FBFF32D
:103160006F8F00BF00F0BCFB18B14FF080500449D6
:10317000086000BF002080F3118800BF10BD000070
:1031800004ED00E02DE9F84380460E4617461D4643
:10319000DDF82090B8F1000F01D0012000E0002000
:1031A00050B900BF502080F31188BFF34F8FBFF399
:1031B0006F8F00BF00BFFEE70DB1012000E00020CF
:1031C00050B900BF502080F31188BFF34F8FBFF379
:1031D0006F8F00BF00BFFEE707B10EB1012000E016
:1031E000002050B900BF502080F31188BFF34F8FEB
:1031F000BFF36F8F00BF00BFFEE707B90EB9012014
:1032000000E0002050B900BF502080F31188BFF3C8
:103210004F8FBFF36F8F00BF00BFFEE750200090BD
:103220000098502801D1012000E0002050B900BFD3
:10323000502080F31188BFF34F8FBFF36F8F00BF13
:1032400000BFFEE700BF2C464CB1012084F84600C9
:103250004B463A46314640460094FFF75DF820461B
:10326000BDE8F88370B505460E462C4654B900BF3C
:10327000502080F31188BFF34F8FBFF36F8F00BFD3
:1032800000BFFEE7FFF79AFCD4E90F12206801FBAC
:103290000200A0600020A06320686060E06B401E18
:1032A000226C216800FB0211E160FF2084F84400D9
:1032B00084F845009EB9206908B9012000E000208B
:1032C000A8B904F1100000F0FFFB80B14FF080506E
:1032D00009490860BFF34F8FBFF36F8F07E004F118
:1032E0001000FFF735FC04F12400FFF731FCFFF775
:1032F0008FFC012070BD000004ED00E02DE9FF43CC
:1033000083B0064688461D464FF00009344654B93E
:1033100000BF502080F31188BFF34F8FBFF36F8F32
:1033200000BF00BFFEE7B8F1000F01D1206C08B963
:10333000012000E0002050B900BF502080F3118828
:10334000BFF34F8FBFF36F8F00BF00BFFEE7022DAB
:1033500002D1E06B012801D1012000E0002050B92A
:1033600000BF502080F31188BFF34F8FBFF36F8FE2
:1033700000BF00BFFEE700F09DFA08B9059808B944
:10338000012000E0002050B900BF502080F31188D8
:10339000BFF34F8FBFF36F8F00BF00BFFEE700BFCB
:1033A000FFF70CFCA06BE16B884201D3022D28D102
:1033B0002A4641462046FEF7E2FE0746606A08B903
:1033C000012000E0002068B904F1240000F07CFB3B
:1033D00088B14FF0805032490860BFF34F8FBFF380
:1033E0006F8F08E03FB14FF080502D490860BFF368
:1033F0004F8FBFF36F8FFFF70BFC012007B0BDE8C5
:10340000F083059818B9FFF703FC0020F6E7B9F13F
:10341000000F04D101A8FFF725FD4FF00109FFF7C8
:10342000F7FBFFF7C9FDFFF7C9FB94F94400401C07
:1034300010B9002084F8440094F94500401C10B9EC
:10344000002084F84500FFF7E3FB05A901A800F080
:103450005BF9F0B92046FFF774F8A0B104F1100051
:103460000599FFF711FD2046FFF74FFA00F078FBB2
:10347000002895D14FF0805009490860BFF34F8F65
:10348000BFF36F8F8CE72046FFF73FFA00F068FB31
:1034900086E72046FFF739FA00F062FB0020ADE72F
:1034A00004ED00E02DE9F84F07468A4690461E4697
:1034B0003C4654B900BF502080F31188BFF34F8FB2
:1034C000BFF36F8F00BF00BFFEE7BAF1000F01D15D
:1034D000206C08B9012000E0002050B900BF502046
:1034E00080F31188BFF34F8FBFF36F8F00BF00BF12
:1034F000FEE7022E02D1E06B012801D1012000E09D
:10350000002050B900BF502080F31188BFF34F8FC7
:10351000BFF36F8F00BF00BFFEE7FFF7FDFB00BFEB
:103520005021EFF3118081F31188BFF34F8FBFF368
:103530006F8F00BF0546A06BE16B884201D3022E5E
:1035400025D194F945B0A06B0090324651462046F3
:10355000FEF715FE0BF1010088B9606A08B9012079
:1035600000E0002050B904F1240000F0ADFA28B1C9
:10357000B8F1000F02D00120C8F8000004E00BF100
:10358000010040B284F845004FF0010901E04FF01E
:10359000000900BF85F3118800BF4846BDE8F88FD9
:1035A0002DE9F74183B005460E464FF000082C4642
:1035B00054B900BF502080F31188BFF34F8FBFF381
:1035C0006F8F00BF00BFFEE70EB9206C08B9012065
:1035D00000E0002050B900BF502080F31188BFF3F5
:1035E0004F8FBFF36F8F00BF00BFFEE700F062F99F
:1035F00008B9059808B9012000E0002050B900BFC3
:10360000502080F31188BFF34F8FBFF36F8F00BF3F
:1036100000BFFEE700BFFFF7D1FAA76BF7B1314655
:103620002046FEF797FD781EA063206908B90120A7
:1036300000E0002060B904F1100000F045FA38B154
:103640004FF080502F490860BFF34F8FBFF36F8F4B
:10365000FFF7DEFA012006B0BDE8F081059818B941
:10366000FFF7D6FA0020F6E7B8F1000F04D101A861
:10367000FFF7F8FB4FF00108FFF7CAFAFFF79CFCD1
:10368000FFF79CFA94F94400401C10B9002084F81C
:10369000440094F94500401C10B9002084F845000E
:1036A000FFF7B6FA05A901A800F02EF8F0B92046F8
:1036B000FEF73AFFA0B104F124000599FFF7E4FBFF
:1036C0002046FFF722F900F04BFA0028A3D14FF073
:1036D00080500C490860BFF34F8FBFF36F8F9AE79C
:1036E0002046FFF712F900F03BFA94E72046FFF777
:1036F0000CF900F035FA2046FEF716FF00288AD0B4
:103700000020A8E704ED00E070B505460C4655B969
:1037100000BF502080F31188BFF34F8FBFF36F8F2E
:1037200000BF00BFFEE754B900BF502080F31188EE
:10373000BFF34F8FBFF36F8F00BF00BFFEE7FFF7F0
:103740003DFA124802686868131A2068401C08B9DC
:10375000002617E00E4928680968884204D0686886
:10376000904201D801260DE02068984207D92068D0
:10377000C01A20602846FFF775FB002602E00020F3
:1037800020600126FFF744FA304670BD300000206B
:10379000440000202DE9FF4F85B08046894617463A
:1037A000DDE912ABB800FFF7EFF8064656B15C2032
:1037B000FFF7EAF804460CB1266304E03046FFF751
:1037C00045FA00E000248CB1002084F85900CDE9CE
:1037D00000ABCDE902403A4649464046089BFEF719
:1037E000B0FD2046FEF7FCFB012501E04FF0FF3560
:1037F000284609B0BDE8F08F2DE9F04F85B00746A7
:10380000884691469A46DDE90EB6109C0EB101201D
:1038100000E0002050B900BF502080F31188BFF3B2
:103820004F8FBFF36F8F00BF00BFFEE70CB10120C9
:1038300000E0002050B900BF502080F31188BFF392
:103840004F8FBFF36F8F00BF00BFFEE75C20039078
:1038500003985C2801D1012000E0002050B900BF8E
:10386000502080F31188BFF34F8FBFF36F8F00BFDD
:1038700000BFFEE700BFB4B1AEB125462C462E63B3
:10388000022085F85900002004A953464A46CDE994
:1038900000B1CDE9025041463846FEF752FD2846B8
:1038A000FEF79EFB01E000200490049805B0BDE8FF
:1038B000F08F00000549096809B9012005E00449B5
:1038C000096809B9022000E0002070473800002094
:1038D00054000020014908687047000030000020B3
:1038E0002DE9F0414FF000084348006800287BD1E3
:1038F00042480068451C4148056015BB40480068C7
:10390000006808B9012000E0002050B900BF502035
:1039100080F31188BFF34F8FBFF36F8F00BF00BFDD
:10392000FEE737480768374800683549086035487A
:10393000076035480068401C33490860FEF736FFD1
:1039400000BF3248006885423BD300BF2C48006866
:10395000006808B9012000E0002020B14FF0FF30DE
:103960002A4908602CE026480068C068C468666878
:10397000B54202D22548066022E0201DFFF7BCF8C0
:10398000A06A18B104F11800FFF7B6F82049E06A00
:103990000968884202D91E49E06A0860E16A01EBC1
:1039A00081011C4A02EB8100211DFFF7FBF81A4937
:1039B000E06A0968C96A8842C8D34FF00108C5E7C0
:1039C00000BF15480068C06A00EB8000114951F83B
:1039D0002000012801D94FF001081048006808B103
:1039E0004FF0010805E0FFE70D480068401C0C4956
:1039F00008604046BDE8F0815400002030000020FF
:103A00002000002024000020440000204C00002062
:103A100034000020940100201C0000204000002001
:103A20003C00002070B505462C460026002D43D0F2
:103A300022480068844201D1012000E0002050B9F2
:103A400000BF502080F31188BFF34F8FBFF36F8FFB
:103A500000BF00BFFEE7206D50B900BF502080F3CB
:103A60001188BFF34F8FBFF36F8F00BF00BFFEE71A
:103A7000206D401E2065E16CE06A88421CD0206DFC
:103A8000D0B9201DFFF738F8E06CE062E06AC0F1C1
:103A90003800A0610A49E06A0968884202D90849E9
:103AA000E06A0860E16A01EB8101064A02EB8100ED
:103AB000211DFFF777F80126304670BD1C0000205D
:103AC000340000209401002070B50646F068C468F8
:103AD00054B900BF502080F31188BFF34F8FBFF35C
:103AE0006F8F00BF00BFFEE704F11800FFF704F876
:103AF00015480068A0B9201DFEF7FEFF1349E06AD3
:103B00000968884202D91149E06A0860E16A01EB5C
:103B100081010F4A02EB8100211DFFF743F804E009
:103B200004F118010B48FFF73DF80B49E06A0968FA
:103B3000C96A884204D9012501200849086000E0CB
:103B40000025284670BD00005400002034000020ED
:103B5000940100201C0600201C00002040000020D2
:103B600070B5002400263648006850B900BF5020C8
:103B700080F31188BFF34F8FBFF36F8F00BF00BF7B
:103B8000FEE7FFF71BF82E480068401E2C4908602E
:103B90000846006800284ED12A48006800284AD00C
:103BA00023E02948C068C46804F11800FEF7A4FFA8
:103BB000201DFEF7A1FF2549E06A0968884202D965
:103BC0002249E06A0860E16A01EB8101204A02EBC8
:103BD0008100211DFEF7E6FF1E49E06A0968C96AF7
:103BE000884202D301201C4908601748006808B9C0
:103BF000012000E000200028D3D00CB1FEF7D6FD54
:103C00001648056865B100BFFFF76AFE10B10120D4
:103C1000114908606D1E002DF6D100200F49086083
:103C20000D48006838B1012630070D490860BFF320
:103C30004F8FBFF36F8FFEF7EBFF304670BD000074
:103C4000540000202C0000201C060020340000201E
:103C5000940100201C000020400000203C000020B7
:103C600004ED00E010B586B00024FEF715FA164802
:103C70000068D0B100200590049003AA04A905A80B
:103C8000FEF75AFF0222DDE904100023CDE90021EE
:103C900002900EA10F48039AFFF7AEFD0E4908608F
:103CA0000846006800B1012400BF54B900BF50208D
:103CB00080F31188BFF34F8FBFF36F8F00BF00BF3A
:103CC000FEE7204606B010BD60000020546D722053
:103CD00053766300F1280008640000202DE9FF47B7
:103CE00004460D4616461F46DDF830804FF00009A9
:103CF00054B900BF502080F31188BFF34F8FBFF33A
:103D00006F8F00BF00BFFEE71448006810B3009536
:103D100001960294062D15DAFFF7CCFD022808D192
:103D20000023424669460D480068FFF7E7FA8146DE
:103D300010E000231A46694608480068FFF7DEFADB
:103D4000814607E000233A46694604480068FFF7C9
:103D5000A9FB8146484604B0BDE8F087600000201A
:103D6000F83D000800000000000000000000000016
:103D70000000000000020000080000000000000039
:103D800000000000003E00080000000000000000ED
:103D90000000000000000000000400001800000007
:103DA00000000000000000000C3E000800000000C1
:103DB00000000000000000000000000000040000FF
:103DC00020000000000000000000000002030405C5
:103DD000060708090A0B0C0D0E0F10100102000057
:103DE00000000000000001020304060708090000AB
:103DF00000000102030400004C65645461736B0011
:103E00004D6F746F725461736B0000005561727472
:103E10005461736B00000000383E00080000002071
:103E20009C00000028010008D43E00089C000020EF
:103E3000EC1F00004401000800000000000000002A
:103E40000000000000000000100000000100000061
:103E500000127A00000000000000000000000000D6
:103E60000000000000000000000000000000000052
:103E70000000000000000000000000000000000042
:103E80000000000000000000000000000000000032
:103E90000000000000000000000000000000000022
:103EA0000000000000000000000000000000000012
:103EB0000000000000000000000000000000000002
:103EC0000000000000000000AAAAAAAA000000004A
:043ED00000000000EE
:04000005080000ED02
:00000001FF
