:020000040800F2
:1000000058070020990100083F1C000891150008BE
:100010003D1C00084B060008471E000800000000B9
:10002000000000000000000000000000471C000865
:100030004D06000800000000451C0008491C00088F
:10004000B3010008B3010008B3010008B3010008C0
:10005000B3010008B3010008B3010008B3010008B0
:10006000B3010008B3010008B3010008B3010008A0
:10007000B3010008B3010008B3010008B301000890
:10008000B3010008B3010008B3010008B301000880
:10009000B3010008B3010008B3010008B301000870
:1000A000B3010008B3010008B3010008B301000860
:1000B000B3010008B3010008B3010008B301000850
:1000C000B3010008B3010008B3010008B301000840
:1000D000B3010008B3010008B3010008B301000830
:1000E000B3010008B3010008B301000800F002F8F2
:1000F00000F042F80AA090E8000C82448344AAF180
:100100000107DA4501D100F037F8AFF2090EBAE87D
:100110000F0013F0010F18BFFB1A43F0010318473B
:10012000101E0000301E0000103A24BF78C878C1AD
:10013000FAD8520724BF30C830C144BF04680C60ED
:10014000704700000023002400250026103A28BF35
:1001500078C1FBD8520728BF30C148BF0B60704739
:10016000642900F07580782900F0AE800020704787
:100170001FB51FBD10B510BD00F02DFA1146FFF7D9
:10018000F7FF01F079FE00F04BFA03B4FFF7F2FF3E
:1001900003BC00F053FA00000948804709480047B3
:1001A000FEE7FEE7FEE7FEE7FEE7FEE7FEE7FEE727
:1001B000FEE7FEE704480549054A064B7047000084
:1001C000AD1C0008ED000008580100205807002071
:1001D00058030020580300200FB41CB5074B06AA93
:1001E0007B4469460090059800F0DDF900206946DF
:1001F00000F0ECF91CBC5DF814FB0000E903000002
:1002000070B5044685690068C10601D5302600E056
:100210002026C00707D070BDD4E9012130469047A1
:10022000206A401C20626D1EF6D570BD70B5044674
:1002300085690078C00707D170BDD4E9012120206D
:100240009047206A401C20626D1EF6D570BD0000EC
:100250002DE9F0410646002410687529314616A59F
:1002600010D0AFF30080002802DA404213A507E067
:1002700031688A0701D512A502E0490704D511A506
:10028000012401E0AFF3008000210A2206F12407D7
:1002900009E0B0FBF2FCB0FBF2F302FB1C003030D3
:1002A00078541846491C0028F3D123462A46304684
:1002B000BDE8F04100F019B9000000002D00000079
:1002C0002B0000002000000070B504460D462146BA
:1002D0001068AFF300802188090502D50F4A7A44DF
:1002E00002E00E4A7A440E32002104F1240305E0B4
:1002F00000F00F060009965D5E54491C0028F7D1F6
:1003000020780023000704D5702D02D009B1022304
:1003100011322046BDE8704000F0E7B8141C000020
:100320002DE9F05F894604464FF0000ADFF824B15A
:10033000FB44C0F820A02046E168884700287DD013
:10034000252806D0D4E901219047206A401C20626C
:10035000F1E700255F462046E168884720280646E9
:1003600007DB312E05D2B81910F8200C08B105436F
:10037000F1E7A80701D525F00405C4F81CA0002763
:10038000C4F818A02A2E09D0304601F06DFD38B30C
:1003900004EB8708303EC8F8186019E059F8041BD0
:1003A000204604EB87029161E1688847012F0646E9
:1003B00018D1E069002820DA25F020051DE0D8F8E2
:1003C000180000EB800006EB40003038C8F8180039
:1003D0002046E1688847064601F046FD0028EED138
:1003E000012F0AD02E2E08D12046E16888477F1CB5
:1003F0000646022F45F02005C4DBA069002803DA79
:10040000404245F00105A061E80701D025F0100544
:10041000A6B1A6F14100192802D8203645F400659E
:100420004A463146204625604D46FFF799FE60B1A9
:10043000012807D0ED1D25F0070000E007E000F1DE
:10044000080978E705F1040975E730467AE7206A7C
:10045000BDE8F09FEA1B000010B5431C02E010F855
:10046000011B71B18107FAD14FF0013202C88C1A19
:100470008C4314EAC211F9D0C01A0A0603D0C01E78
:1004800010BDC01A10BD0A0401D0801E10BD0902A3
:10049000FCD0401E10BD4FF0000200B5134694463C
:1004A0009646203922BFA0E80C50A0E80C50B1F1CC
:1004B0002001BFF4F7AF090728BFA0E80C5048BFE0
:1004C0000CC05DF804EB890028BF40F8042B08BF7E
:1004D000704748BF20F8022B11F0804F18BF00F87A
:1004E000012B70477047704770472DE9F0470D4664
:1004F00099469246044600F124080168880604D50E
:10050000E06921F01001216000E00120A84201DD36
:10051000471B00E00027A1697A1902EB0900081ABD
:10052000A0612078C00602D42046FFF769FE0026AD
:1005300008E0D4E901211AF806009047206A401C1F
:10054000761C20624E45F4DB2078C0060AD5204692
:10055000FFF756FE06E0D4E9012130209047206ADB
:10056000401C2062381EA7F10107F4DC07E0D4E943
:10057000012118F805009047206A401C2062281EBF
:10058000A5F10105F3DC2046FFF750FE20780006B8
:1005900002D50220BDE8F0870120FBE701694A1C73
:1005A00002610878704700B58FB0CDE901310021B4
:1005B000059105497944CDE9031011466846FFF7D6
:1005C000AFFE0FB000BD0000E5FFFFFF0A6802F8B4
:1005D000010B0A607047754600F02CF8AE46050026
:1005E0006946534620F00700854618B020B5FFF74E
:1005F000E1FDBDE820404FF000064FF000074FF04E
:1006000000084FF0000B21F00701AC46ACE8C00930
:10061000ACE8C009ACE8C009ACE8C0098D46704739
:1006200010B50446AFF300802046BDE81040FFF748
:10063000ACBD000000487047F400002001491820BC
:10064000ABBEFEE7260002007047FEE7704772B6B9
:10065000FEE7000070B5044600F004F90546601C92
:1006600002D004480078044400F0FCF8401BA0428B
:10067000FAD370BD080000202DE9F84FDFF8B891DB
:100680000024A9F1040B23460F2709F1040AABF15A
:10069000040EC9E00125A5402A40AA427DD1674E3B
:1006A000D1F804C0ACEB0608B44532D014DCBCF180
:1006B000030F3AD009DCBCF1000F2AD0BCF1010FC6
:1006C0001CD0BCF1020F31D11DE0BCF1110F17D0CD
:1006D000BCF1120F2AD119E0B8F5881F19D006DC39
:1006E000B8F5803F15D0B8F5801F1FD111E0B8F5DF
:1006F000001F0ED0B8F5041F18D10AE0CB6815E032
:10070000CB681B1D12E0CB6808330FE0CB680C33BD
:100710000CE08B682BB1012B4FF0080303D045612F
:1007200004E0042302E0056100E00023FF2A01D871
:10073000064601E000F104064FEA840501D9A5F15F
:100740002005D6F8008007FA05FC28EA0C0803FA11
:1007500005F548EA0508C6F800804D68ED0062D549
:10076000374DAE6946F00106AE61AD6924F003066F
:1007700005F001050095334D06EB050CDCF808503B
:10078000A607360F07FA06F825EA0805DFF8B8804D
:10079000404503D14FF0000817E044E0DFF8AC809B
:1007A000404502D14FF001080FE0DFF8A48040453A
:1007B00002D14FF0020808E0DFF89880404502D1EE
:1007C0004FF0030801E04FF0040808FA06F848EA81
:1007D0000508CCF808804D68D9F80060ED024D4658
:1007E00001D5164300E096432E604D68DAF80060AC
:1007F000AD02554601D5164300E096432E604D6884
:10080000DBF80060AD035D4601D5164300E096437A
:100810002E604D68DEF80060ED03754601D5164385
:1008200000E096432E60641C0D682A46E5407FF484
:1008300031AFBDE8F88F000008040140000011103E
:10084000001002400000014000080140000C01407F
:1008500000100140001401400AB101617047090411
:10086000FBE7000001488068704700000800002096
:1008700070B5040025D094F83D00002520B984F817
:100880003C50204600F07EFA242084F83D00206889
:10089000016821F0010101602068016841F4004114
:1008A00001602068016821F40041016000F0C0FB94
:1008B0004D4A6168914201D84C4900E04C49884258
:1008C00001D2012070BD4B492368B0FBF1F15E6895
:1008D00026F03F060E435E606368934206D94FF4EC
:1008E000967359434FF47A73B1FBF3F12368491CB3
:1008F0001E6A26F03F06314319626168914210D8A2
:100900004900401EB0FBF1F2521CC2F30B02042A54
:1009100001D2042022E0B0FBF1F0401CC0F30B0038
:100920001CE0A268F2B301EBC10303EB0116431E06
:10093000B3FBF6F35B1C43F480431B0549D092B331
:1009400001EBC10202EB0111401EB0FBF1F0401CB3
:10095000C0F30B0040F4804040F400402168CA69B5
:100960004CF6FF739A431043C861D4E90710014362
:100970002068026822F0C00211430160D4E903013B
:1009800001432068826848F2FF339A431143816033
:10099000D4E9050108432168CA6822F0FF02104328
:1009A000C86001E00EE016E02068016841F0010136
:1009B00001602564202084F83D00256384F83E50C2
:1009C000002070BD01EB4106431EB3FBF6F35B1C38
:1009D000B3E70120C2E701EB4101401EB0FBF1F09B
:1009E000401CC0F30B00B7E7A086010080841E0006
:1009F00000093D0040420F002DE9FF4F83B0002564
:100A0000DDE910799A4693460446DDF84880009562
:100A1000FFF728FF064694F83D0020287CD11923D3
:100A2000012288492046009600F0C8FE0028F5D132
:100A300094F83C0001286FD0012084F83C00206825
:100A40000168C90703D1016841F001010160206814
:100A5000016821F400610160222084F83D004020FB
:100A600084F83E0025646762A4F82A90608D208592
:100A70007548E062CDE9008653465A4620460499FF
:100A800000F09EFD00287CD1208DDFF8C09120274A
:100A900068B1012814D00228206801681ED041F4F2
:100AA000806101602068416980690090BCE0206835
:100AB000416981690091016841F400710160B3E00E
:100AC0002068016821F48061016072B62068416984
:100AD00081690091016841F400710AE041F400610C
:100AE000016072B62068416981690091016821F452
:100AF0008061016062B697E0032865D801280CD0B8
:100B0000022843464FF000024946204600960BD08B
:100B100000F054FEA8BB0CE091E03246414620466E
:100B200000F0F2FE68BB72E000F048FE48BB72B60F
:100B300033E02068016821F48061016072B62068AA
:100B40000069616A0870606A401C6062208D401E06
:100B50002085608D401E60853D4846F2A8110068E2
:100B6000B0FBF1F0C0EBC00000EB80000090401E35
:100B7000009007D020684069C04340070DD5009819
:100B8000F5E727E044F8305F6773A573206940F00C
:100B90002000206162B625731CE02068016841F4E2
:100BA0000071016020680069616A0870606A401C19
:100BB0006062218D491E2185618D491E618562B665
:100BC00021680969017026E032464146204600F05E
:100BD0009BFE18B1012007B0BDE8F08F20680069C6
:100BE000616A0870606A401C6062208D401E81B29C
:100BF0002185608D401E608520684269D24352077E
:100C000012D4032903D1016821F4806101602068B6
:100C10000069616A0870606A401C6062208D401E35
:100C20002085608D401E6085208D00287FF464AF94
:100C300084F83D7084F83E5084F83C50CBE70220A5
:100C4000C9E70000020010000000FFFF04000100DF
:100C5000140000202DE9FF4F83B09A46DDE911977B
:100C600093460446DDF84080FFF7FCFD054694F806
:100C70003D0020287FD119230122404920460095BC
:100C800000F09CFD002876D194F83C00012872D039
:100C9000012084F83C0020680168C90703D101687D
:100CA00041F0010101602068016821F400610160E8
:100CB000212084F83D00402084F83E000026266470
:100CC000C4F82480A4F82A90608D20852C48E06226
:100CD000CDE9007553465A462046049900F0EEFCD3
:100CE00070B930E02A463946204600F045FE58B13A
:100CF000206C042804D12068016841F4007101606F
:100D0000012007B0BDE8F08F606A216800780861B3
:100D1000606A401C6062218D491E89B22185628D06
:100D2000521E628522685369DB435B070BD469B1AD
:100D300000781061606A401C6062208D401E208532
:100D4000608D401E6085208D0028CBD12A46394613
:100D5000204600F007FD0028CAD154F83D0B016879
:100D600041F400710160202004F81E09E6776677DF
:100D70000020C6E7FFE70220C3E7000002001000E2
:100D80000000FFFF10B586B0002100910191029193
:100D9000039100680F4988421AD10F4CA06940F0B6
:100DA0000800A061A069694600F008000490C02016
:100DB000009012200190032003900848FFF75CFC8C
:100DC000E06940F40010E061E06900F40010049074
:100DD00006B010BD0054004000100240000C01405D
:100DE0000248816802781144816070470800002041
:100DF000074810B5016841F010010160032000F0C0
:100E000067F80F2000F006F800F024F8002010BD6D
:100E10000020024070B50D4D04464FF47A712878D9
:100E2000B1FBF0F00A490968B1FBF0F000F0E2FA1A
:100E300048B9102C07D200222146501E00F028F895
:100E400000206C6070BD012070BD00000800002013
:100E5000140000200C4808B5816941F0010181614E
:100E6000816901F001010091C16941F08051C161C6
:100E7000C06900F0805000900448416821F0E061B2
:100E800041F00071416008BD0010024000000140C7
:100E9000F0B40E4B1B680C46C3F30223C3F10705E5
:100EA000042D00D90425191D072901D2002300E0D3
:100EB000DB1E012606FA05F1491E214099409E409D
:100EC000761E16403143F0BC00F0BEBF0CED00E0D2
:100ED000064900F0070208684FF6FF03184040EA91
:100EE0000220034A10430860704700000CED00E048
:100EF0000000FA05704700002DE9F0470F46050095
:100F000061D0434E306800F00700B84209D2306823
:100F100020F0070038433060306800F00700B84226
:100F200051D128683B4C810712D5400703D5606832
:100F300040F4E06060602878000703D5606840F402
:100F4000605060606068A96820F0F000084360604D
:100F50002878C00728D06868012810D021680228A6
:100F600010D0890700292EDA616821F003010143BE
:100F70006160FFF777FC804641F288390DE0216817
:100F80008903EFE78901EDE7FFF76CFCA0EB0801AF
:100F9000494502D90320BDE8F0876068696800F020
:100FA0000C00B0EB810FEFD1306800F00700B842C1
:100FB0000BD9306820F0070038433060306800F00B
:100FC0000700B84201D00120E5E72878400705D5A1
:100FD0006068E96820F4E0600843606028780007F2
:100FE00006D56068296920F4605040EAC10060605D
:100FF00000F03EF86168084AC1F30311515CC84033
:101000000649086006480068FFF704FF0020C2E7B1
:101010000020024000100240DE1E000814000020E4
:101020000C00002001490120C864704700004242C2
:101030000448054900684968044AC1F30221515C2B
:10104000C84070471400002000100240EE1E000847
:101050000448054900684968044AC1F3C221515C4B
:10106000C84070471400002000100240EE1E000827
:101070000E4A51680E4801F00C03042B11D0082BC6
:101080000FD10C48C1F38343C903C05C0AD5516832
:10109000084AC1F34041921E515C054A5043B0FBDF
:1010A000F1F07047044948437047000000100240C7
:1010B00000127A00CE1E000800093D0010B5044C55
:1010C000A068000603D5FFF715FF8020A07210BDB1
:1010D000001002402DE9F84F040070D02078C04D78
:1010E000C00749D06868C0F38100012807D068684C
:1010F000C0F38100022809D16868C00306D52868BA
:10110000800339D560680028E7D035E06068B0F525
:10111000803F0BD010B1B0F5A02F11D0286820F47B
:1011200080302860286820F4802002E0286840F49D
:1011300080302860606890B1FFF794FB06460AE0B3
:10114000286840F480202860F0E700BFFFF78AFBA2
:10115000801B642873D828688003F7D50CE0FFF75C
:1011600081FB064605E000BFFFF77CFB801B64287F
:10117000F0D828688003F7D420789A4E80074FF083
:1011800001094FF0000839D5686810F00C0F07D03E
:101190006868C0F38100022809D16868C00306D4DA
:1011A0002868800714D52069012808D110E020693B
:1011B000B0B1C6F80090FFF755FB074605E00AE11D
:1011C000FFF750FBC01B0228C4D828688007F7D55A
:1011D0002868616920F0F80040EAC10028600DE04D
:1011E000C6F80080FFF73EFB074604E0FFF73AFB36
:1011F000C01B022823D828688007F7D4207800076E
:101200002CD57948A169D9B1C0F80090FFF72AFB25
:10121000074604E0FFF726FBC01B02280FD8686AC8
:101220008007F7D571484FF4FA510068B0FBF1F030
:10123000009000BF0098411E0091FAD20EE080E0BD
:10124000C0F80080FFF70EFB074604E0FFF70AFB3B
:10125000C01B022875D8686A8007F7D42078400739
:1012600060D5E8690027C00008D4E86940F08050E4
:10127000E861E869012700F0805000905C4801684F
:10128000C90513D40168834641F480710160FFF7FA
:10129000E9FA824606E000BFFFF7E4FAA0EB0A0095
:1012A00064284ED8DBF80000C005F5D5E0680128B9
:1012B0000AD008B1052813D0286A20F0010028625E
:1012C000286A20F0040002E0286A40F00100286249
:1012D000E06841F2883B98B1FFF7C4FA82460BE020
:1012E000286A40F004002862EEE700BFFFF7BAFA70
:1012F000A0EB0A0159455AD8286A8007F6D50CE0B8
:10130000FFF7B0FA824605E0FFF7ACFAA0EB0A015E
:1013100059454CD8286A8007F6D41FB1E86920F0F7
:101320008050E861E06988B36968C1F381010229EE
:1013300044D00228C6F8608004D0FFF793FA044630
:1013400038E034E0FFF78EFA074604E0FFF78AFA48
:10135000C01B02282BD828688001F7D4206AB0F57A
:10136000803F05D16868A16820F4003008436860B8
:10137000D4E908010843696821F4741108436860DE
:10138000C6F86090FFF76EFA044606E025E000BF5D
:10139000FFF768FA001B022809D828688001F7D5F2
:1013A0001BE000BFFFF75EFA001B022802D90320F2
:1013B000BDE8F88F28688001F4D40EE00128F7D04A
:1013C0006868226A00F48031914204D1616A00F4B5
:1013D0007010884201D00120EAE70020E8E7000011
:1013E00000100240000042428004424214000020EB
:1013F0000070004010B5401EB0F1807F01D3012085
:1014000010BD4FF0E02460610F21601700F01CFD5B
:101410000020A06107202061002010BD70B50400ED
:1014200004D094F84100002510B106E0012070BD01
:1014300084F84050204600F023F8242084F841002E
:101440002068C16821F40051C160204600F066FCAC
:101450002068016921F4904101612068416921F00F
:101460002A0141612068C16841F40051C16065648E
:10147000202084F8410084F842006563002070BD9C
:1014800030B585B000240094019402940394006860
:101490001449884224D11448816941F48041816112
:1014A000816901F480410491816941F00401816105
:1014B00080690E4D00F0040004904FF4007000901D
:1014C000022001900320039069462846FFF7D4F8D4
:1014D0002815CDE90004694628460294FFF7CCF8A8
:1014E00005B030BD00380140001002400008014046
:1014F0002DE9F843044690F84100984616460D46FB
:10150000202802D00220BDE8F88385B17EB10020FA
:101510006064212084F84100FFF7A4F9A684814685
:10152000E684A0682027B0F5805F02D003E00120A8
:10153000E9E7206910B12E4600250EE000260CE0F8
:101540008021204600F046FCA8B9C6B116F8010B70
:1015500021684860E08C401EE084E08C4B464FF0F0
:101560000002CDF800800028EAD14FF0400120466B
:1015700000F030FC40B184F841700320C3E735F837
:10158000020BC0F30800E3E784F841700020BAE7DB
:10159000FEE701684A69D24352050FD46FF48062B6
:1015A0004A61002140F8301F202242738173026992
:1015B00042F004020261017301207047002070476D
:1015C0002DE9F84F0446006889460B9D016898464E
:1015D000174641F4806101602068016841F4807120
:1015E000016000954FF0011B0022594620460A9BDE
:1015F00000F0E4F84FF4007A40B120680068C005BC
:1016000001D5C4F840A00320BDE8F88F216809F097
:10161000FE0008612B46284920460A9A00F016F978
:10162000F0BB20684169806900902A4620460A99EB
:1016300000F0A2F940B1206C04283AD1206801687A
:1016400041F40071016034E0FEB2B8F1010F09D03D
:101650002168380A08612A4620460A9900F08CF968
:101660000028E8D1206806612A4620460A9900F041
:1016700083F90028DFD12068016841F4807101609E
:1016800000950022594620460A9B00F097F8002852
:10169000B3D1216809F0FF0040F00100086100E0CB
:1016A00007E02B46044920460A9A00F0CFF80028AC
:1016B000AAD00120A8E70000020001002DE9F843AC
:1016C000044600680D46DDE908970168984616460D
:1016D00041F4807101604B4600224FF00111204619
:1016E000009700F06BF848B120680068C00502D58B
:1016F0004FF4007020640320BDE8F883216805F0F2
:10170000FE0008613B464A461549204600F09EF817
:1017100088B920684169806900903A464946204668
:1017200000F02AF948B1206C042804D1206801682F
:1017300041F4007101600120DEE7F5B2B8F1010F5C
:1017400009D02168300A08613A464946204600F02F
:1017500013F90028E7D1206805610020CCE70000DC
:101760000200010070B516460D4604461EE02046F4
:10177000FFF70FFF08B1012070BD681C16D0FFF7FE
:1017800071F8801BA84200D885B920684069C04321
:1017900040070BD5002044F8300F20216173A0735F
:1017A000216941F0200121612073E4E7206840694C
:1017B000C0434007DBD4002070BD00002DE9F04796
:1017C000984617460D460446C1F30746DDF82090BB
:1017D0002AE000BFB8F1FF3F26D0FFF743F8A0EBA7
:1017E0000901414502D8B8F1000F1DD12068012E32
:1017F00016D0806925EA00000004000C12D00020F9
:10180000B84211D1002044F8300F20216173A07339
:10181000216941F02001216120730120BDE8F0879A
:101820004069E7E70120EBE72068012E0AD08069D4
:1018300025EA00000004000C06D00020B842C9D000
:101840000020EBE74069F3E70120F7E72DE9F047D7
:10185000984616460D4604464FF000094FF0200A00
:10186000C1F3074723E020684069C043400515D411
:101870002068016841F40071016021686FF48060A4
:101880004861C4F8309084F83DA084F83E90216C03
:1018900041F00401216484F83C9021E0701C06D0E2
:1018A000FEF7E0FFA0EB0800B04203D816B1012F0D
:1018B0001FD021E02068012F15D0806925EA0000A3
:1018C0000004000C18D000BF44F8309F84F80DA02D
:1018D00084F80E90216941F02001216184F80C9078
:1018E0000120BDE8F087406925EA00000004000CF3
:1018F000EAD12068406901E02068806925EA00009B
:101900000004000CAFD1ECE72DE9F0410025904632
:101910000E460446202728E04069C043C0060CD488
:1019200054F8301B6FF01000486144F81059677785
:10193000A577206A2062257714E0FEF793FFA0EBDD
:101940000800B04200D886B920684069C04340060C
:101950000BD544F8305F6773A573206940F0200011
:10196000206125730120BDE8F08120684169C943E9
:101970004906D1D40020F6E770B516460D46044658
:101980001EE02046FFF705FE08B1012070BD681C6F
:1019900016D0FEF767FF801BA84200D885B92068E3
:1019A0004069C04300060BD5002044F8300F2021C9
:1019B0006173A073216941F0200121612073E4E784
:1019C00020684069C0430006DBD4002070BD0000E1
:1019D0007FB50126174CCDE90046642533467522B4
:1019E000D02115480295FFF707F808B113A01DE0B4
:1019F000227819A11D48FEF7EFFB1C4800F07EF984
:101A00002078472801D01AA010E00F208DF80C0094
:101A100003A8CDE9000601234E22D02102950648F5
:101A2000FFF718F90A20FEF715FE18A000F066F976
:101A30007FBD0000000000205800002049324320F4
:101A4000636F6D6D756E69636174696F6E20666139
:101A5000696C6564210D0A0057484F5F414D5F492D
:101A6000203D203078253032580D0A001800002023
:101A700049434D3432363838206E6F7420646574B3
:101A80006563746564210D0A0000000049434D340C
:101A90003236383820496E6974204F4B0D0A0000E9
:101AA0002DE9FF474FF006091C4CCDE900494FF0E6
:101AB000640801231F22D0211948CDF80880FEF7C1
:101AC0009BFF2088012340BA07B26088252240BAD4
:101AD00006B2A088CDE9004940BA05B2D02110482D
:101AE000CDF80880FEF788FF6188208849BA0AB2DD
:101AF000A18840BA49BA09B2039100B20095CDE974
:101B0000010233463A4607A10D48FEF765FB04B0D3
:101B10000B48BDE8F04700F0F1B8000001000020DC
:101B2000580000202536642C2536642C2536642C7C
:101B30002536642C2536642C2536640D0A000000F9
:101B40001800002070B586B000241C480094019451
:101B500002940394816941F010018161816901F06F
:101B600010010491816941F020018161816901F0D6
:101B700020010491816941F004018161816901F0D2
:101B800004010491816941F00801816180690122A9
:101B900000F008000A4E5503049029463046FEF72F
:101BA0005BFE01200095CDE9010402200390694607
:101BB0003046FEF761FD06B070BD00000010024027
:101BC000001001400D4810B50B4901600C494160FF
:101BD00000214FF480428160C0E9031241618161BC
:101BE000C1610162FEF744FE002803D0BDE8104049
:101BF000FEF72DBD10BD000000540040580000202D
:101C0000801A06000C4810B50A4901604FF4E13112
:101C10004160002181600C22C160C0E90412816131
:101C2000C161FFF7FBFB002803D0BDE81040FEF7C1
:101C30000EBD10BD00380140AC000020FEE7FFF7EC
:101C40003DFAFEE770477047FFF7CAB830B58FB06E
:101C500028216846FEF71FFC14210AA8FEF71BFC8A
:101C600001210804CDE9001000240294022504910A
:101C7000CDE907504FF4E01009906846FFF72AFAC3
:101C800008B172B6FEE70F20CDE90A054FF4806077
:101C9000CDE90C4002210AA80E94FFF72DF908B1F6
:101CA00072B6FEE7FFF7BEF90FB030BD70470168AE
:101CB0000C3151E8002F22F4907241E80023002BF0
:101CC000F5D10168143151E8002F22F0010241E8FA
:101CD0000023002BF5D1016B012909D101680C31DA
:101CE00051E8002F22F0100241E80023002BF5D12B
:101CF000202180F8421000210163704710B504468E
:101D0000FEF7AAFB214682B2BDE810404FF0FF3338
:101D10000148FFF7EDBB0000AC00002070B50446A1
:101D200000680169E26821F44051114301612169B1
:101D3000A0680843616908432168CA6841F20C63DE
:101D40009A430243CA6020684169A26921F4407144
:101D5000114341611E492068884202D1FFF778F99A
:101D600001E0FFF765F900EBC00101EB00126068CC
:101D700064218000B2FBF0F3B3FBF1F36FF01806BF
:101D80007343B2FBF0F5B2FBF0F605EB83053223AB
:101D900003EB0515B5FBF1F5B6FBF1F605F0F00523
:101DA00005EB0615B2FBF0F6B2FBF0F0B0FBF1F07C
:101DB0006FF01802504306EB800003EB0010B0FBFD
:101DC000F1F0216800F00F002844886070BD000029
:101DD000003801402DE9F843984617460D46044661
:101DE000089E24E0701C22D0FEF73CFDA0EB08000A
:101DF000B0421AD8CEB12068C168490717D5802DE6
:101E000015D0402D13D00168C94309070FD40168CC
:101E10000025406800902046FFF749FF08206064D5
:101E200084F840500120BDE8F8830320FBE72068D8
:101E3000006835EA000004D00020B842D2D000206B
:101E4000F1E70120F9E7FEE70907090E002804DBA6
:101E500000F1E02080F80014704700F00F0000F15E
:101E6000E02080F8141D704730380A2801D2012084
:101E70007047002070470000FEF7BAFFFFF7E6FE4C
:101E8000FFF760FEFFF79EFEFFF7BCFE01220E4D3E
:101E9000540321462846FEF7DFFCFFF799FD642036
:101EA000FEF7D8FB002221462846FEF7D5FCFFF7B7
:101EB000F7FD3220FEF7CEFB012221462846FEF731
:101EC000CBFC3220ECE700000010014001020203CD
:101ED0000405060708090A0B0C0D0E0F1010000070
:101EE00000000000000001020304060708090000CA
:101EF00000000102030430313233343536373839CB
:101F00004142434445464030580030313233343545
:101F100036373839616263646566403078000400A2
:101F20000008000000000000000200010000100096
:101F3000501F0008000000201800000028010008C1
:101F4000681F000818000020400700004401000836
:101F50000000000000000000010000001000000070
:081F60000000000000127A00ED
:04000005080000ED02
:00000001FF
