:020000040800F2
:100000004007002091010008312500080324000862
:100010002D250008FD0500081D2A0008000000002D
:10002000000000000000000000000000652500083E
:1000300001060008000000003925000867250008B7
:10004000AB010008AB010008AB010008AB010008E0
:10005000AB010008AB010008AB010008AB010008D0
:10006000AB010008AB010008AB010008AB010008C0
:10007000AB010008AB010008AB010008AB010008B0
:10008000AB010008AB01000801050008AB01000846
:10009000AB010008AB010008AB010008AB01000890
:1000A000AB010008AB010008AB010008AB01000880
:1000B000AB010008AB010008F5250008AB01000802
:1000C000AB010008AB010008AB010008AB01000860
:1000D000AB0100080D2A0008AB010008AB010008C5
:1000E000AB010008AB010008AB01000800F002F80A
:1000F00000F03FF80AA090E8000C82448344AAF183
:100100000107DA4501D100F034F8AFF2090EBAE880
:100110000F0013F0010F18BFFB1A43F0010318473B
:10012000F4290000142A0000103A24BF78C878C1CE
:10013000FAD8520724BF30C830C144BF04680C60ED
:10014000704700000023002400250026103A28BF35
:1001500078C1FBD8520728BF30C148BF0B60704739
:10016000752900F05180002070471FB51FBD10B5E4
:1001700010BD00F08AF91146FFF7F7FF02F06CFCA2
:1001800000F0A8F903B4FFF7F2FF03BC00F0B0F9E8
:100190000948804709480047FEE7FEE7FEE7FEE71B
:1001A000FEE7FEE7FEE7FEE7FEE7FEE70448054957
:1001B000054A064B70470000F1250008ED000008D5
:1001C00040010020400700204003002040030020A1
:1001D0000FB47CB50C0009AA009001D02044401E49
:1001E000084B7B4469460190089800F02EF90546BB
:1001F0001CB10020694600F03BF928467CBC5DF844
:1002000014FB0000950200002DE9F0410646002491
:1002100010687529314616A510D0AFF3008000286C
:1002200002DA404213A507E031688A0701D512A51A
:1002300002E0490704D511A5012401E0AFF30080D5
:1002400000210A2206F1240709E0B0FBF2FCB0FB12
:10025000F2F302FB1C00303078541846491C002889
:10026000F3D123462A463046BDE8F04100F08EB86F
:10027000000000002D0000002B0000002000000006
:100280002DE9F0410F460546002028622846E9681E
:10029000884770B3252805D0D5E901219047286A01
:1002A000401CF2E7E9682846002688476C28044687
:1002B0000AD0682C08D04C2C35D06A2C31D0742C44
:1002C00031D07A2C2FD016E0E968064628468847B8
:1002D000B042044608D16C2E23D04FF480662846E5
:1002E000E9688847044606E06C2E03D04FF4807618
:1002F00001E01EE04026E4B1A4F14100192802D833
:10030000203446F400663A46214628462E60FFF720
:1003100027FF60B1012808D0FF1D27F00707083725
:10032000B4E78026DBE70026D9E73F1DAEE720468D
:10033000B2E7286ABDE8F0814FF0000200B513462D
:1003400094469646203922BFA0E80C50A0E80C50F5
:10035000B1F12001BFF4F7AF090728BFA0E80C50A6
:1003600048BF0CC05DF804EB890028BF40F8042B9F
:1003700008BF704748BF20F8022B11F0804F18BF0C
:1003800000F8012B70477047704770472DE9F04720
:100390000D4699469246044600F1240801688806F5
:1003A00004D5E06921F01001216000E00120A8429D
:1003B00001DD471B00E00027A1697A1902EB090063
:1003C000081AA0612078C00602D42046AFF300804E
:1003D000002608E0D4E901211AF806009047206AB7
:1003E000401C761C20624E45F4DB2078C0060AD5FE
:1003F0002046AFF3008006E0D4E901213020904789
:10040000206A401C2062381EA7F10107F4DC07E0D7
:10041000D4E9012118F805009047206A401C2062A9
:10042000281EA5F10105F3DC2046AFF300802078FB
:10043000000602D50220BDE8F0870120FBE700009E
:1004400001694A1C02610878704700B58FB0CDE998
:1004500001310021059105497944CDE90310114688
:100460006846FFF70DFF0FB000BD0000E5FFFFFF7E
:100470000A6802F8010B0A607047D1E900239A422A
:1004800002D2531C0B6010707047754600F02CF8B8
:10049000AE4605006946534620F00700854618B071
:1004A00020B5FFF783FEBDE820404FF000064FF077
:1004B00000074FF000084FF0000B21F00701AC4699
:1004C000ACE8C009ACE8C009ACE8C009ACE8C009B8
:1004D0008D46704710B50446AFF300802046BDE856
:1004E0001040FFF74FBE000000487047DC000020BE
:1004F00001491820ABBEFEE726000200704700004D
:1005000010B5024800F037F910BD00001C000020B3
:1005100070B5044600252068806800F0010018B31B
:100520002068806820F001002168886000F020FECB
:10053000054613E000F01CFE401B02280ED920687F
:10054000806800F0010048B1A06A40F01000A0628D
:10055000E06A40F00100E062012070BD2068806820
:1005600000F001000028E5D10020F6E738B5044688
:100570000025002000902068806800F0010078BB12
:100580002068806840F00100216888601948006890
:100590001949B0FBF1F0009002E00098401E009075
:1005A00000980028F9D100F0E3FD054619E000F0BD
:1005B000DFFD401B022814D92068806800F001008C
:1005C00078B9A06A40F01000A062E06A40F0010033
:1005D000E06200BF002084F8240000BF012038BD85
:1005E00005E02068806800F001000028DFD00020CE
:1005F000F5E700001800002040420F0000BFFEE7B2
:10060000704772B600BFFEE77047000038B502467B
:1006100000230020009000BF92F82400012801D19F
:10062000022038BD012082F8240000BF4868072856
:1006300012D21068406B0C79641E04EB84051F24F1
:10064000AC40A0430D796D1E05EB85050C68AC40F0
:1006500020431468606327E048680D2812D21068B0
:10066000006B0C79E41F04EB84051F24AC40A0430D
:100670000D79ED1F05EB85050C68AC40204314682F
:10068000206311E01068C06A0C790D3C04EB84050E
:100690001F24AC40A0430D790D3D05EB85050C688A
:1006A000AC4020431468E06208680A2812D310683E
:1006B000C0680C780A3C04EB44050724AC40A04316
:1006C0000D780A3D05EB45058C68AC402043146865
:1006D000E0600FE0106800690C7804EB4405072423
:1006E000AC40A0430D7805EB45058C68AC40204339
:1006F000146820610868102802D00868112827D1E2
:10070000174C1068A0421ED11068806800F40000E9
:10071000F0B91068806840F400001468A0600868B0
:10072000102815D10F4800680F4CB0FBF4F000EB17
:1007300080004000009002E00098401E0090009869
:100740000028F9D104E0906A40F020009062012373
:1007500000BF002082F8240000BF184661E70000B7
:10076000002401401800002040420F00704701465D
:100770000868C06C704770B504462068056820683A
:10078000466806F0200020282DD105F0020002283E
:1007900029D1A06A00F0100018B9A06A40F40070D6
:1007A000A0622068806800F46020B0F5602F13D14B
:1007B000207B88B92068406820F0200021684860CC
:1007C000A06A20F48070A062A06A00F4805018B97A
:1007D000A06A40F00100A0622046FFF7C7FF6FF05B
:1007E00012002168086006F08000802839D105F0E9
:1007F0000400042835D1A06A00F0100018B9A06ADE
:1008000040F40050A0622068806800F4E040B0F539
:10081000E04F0DD02068406800F48060D0B92068B7
:10082000806800F46020B0F5602F13D1207B88B978
:100830002068406820F0800021684860A06A20F4A9
:100840008050A062A06A00F4807018B9A06A40F0DD
:100850000100A0622046FFF7D7FE6FF00C00216870
:10086000086006F0400040280DD105F0010050B1AD
:10087000A06A40F48030A062204600F0A7F86FF034
:1008800001002168086070BD2DE9F0410446002791
:1008900000250026A84614B90120BDE8F081A06813
:1008A00010B1207D00B100BFA06A30B90020E06225
:1008B00084F82400204600F08BF82046FFF728FE3D
:1008C0000746A06A00F01000002873D1002F71D1F4
:1008D000A06A20F4885040F00200A062E1696068DC
:1008E0000843217B40EA41000643A068B0F5807FC1
:1008F00002D0A068012802D14FF4807000E00020EF
:100900000543207D012811D1207B38B9A069401E04
:100910004FF4006141EA4030054307E0A06A40F02F
:100920002000A062E06A40F00100E06220684068B8
:1009300020F4694028432168486020688068214984
:100940000840304321688860A068B0F5807F02D0FD
:10095000A068012802D14FF4807000E00020B0F5BB
:10096000807F03D1208A401E4FEA00582068C06A69
:1009700020F4700040EA08002168C862206880689E
:1009800011490840B04208D10020E062A06A20F07E
:10099000020040F00100A06211E0A06A20F0020015
:1009A00040F01000A062E06A40F00100E062012720
:1009B00005E0FFE7A06A40F01000A062012738467A
:1009C0006BE70000FDF7E1FFFE0E1FFF7047000020
:1009D00010B586B004460020029003900490059064
:1009E0001849206888422AD100BF1748806940F41E
:1009F0000070154988610846806900F40070019014
:100A000000BF00BF00BF0846806940F00400886155
:100A10000846806900F00400019000BF00BF01207B
:100A200002900320039002A9084800F001FA002276
:100A30001146122000F056FC122000F043FC06B0D4
:100A400010BD0000002401400010024000080140D9
:100A5000F8B504460D46002600200090002700F05F
:100A600087FB06462068806800F4807050B1A06A59
:100A700040F02000A06200BF002084F8240000BFE6
:100A80000120F8BD2068406800F4807020BB206819
:100A9000C06A00F47000F8B917E0681CA8B125B16D
:100AA00000F066FB801BA8420FD92068006800F0A8
:100AB000020050B9A06A40F00400A06200BF00200C
:100AC00084F8240000BF0320DBE72068006800F002
:100AD00002000028E1D053E0022000F055FC384924
:100AE0000968B1FBF0F021680969364A114091B9F3
:100AF0002168C9689211114069B921680969324AAF
:100B0000114031B92168C9689211114009B9142105
:100B100017E0292115E0216809692B4A114021B904
:100B20002168C9689211114041B121680969274AB9
:100B3000114029B92168C968114009B9542100E060
:100B4000FC2100FB01F718E0681C98B125B100F00A
:100B50000FFB801BA8420DD90098B8420AD2A06AA8
:100B600040F00400A06200BF002084F8240000BF11
:100B7000032086E70098401C00900098B842E3D319
:100B80006FF0120021680860A06A40F40070A06253
:100B90002068806800F46020B0F5602F0DD1207BC4
:100BA00058B9A06A20F48070A062A06A00F4805056
:100BB00018B9A06A40F00100A062002061E70000BF
:100BC00018000020244992249224491249922400BA
:100BD00070B50446002500BF94F82400012801D117
:100BE000022070BD012084F8240000BF2046FFF7DA
:100BF000BDFC0546002D77D1A06A40F20121884353
:100C000040F48070A0623C492068884208D13B488B
:100C1000006800F4702008B9012002E0002000E024
:100C2000012078B1A06A20F48010A062206840689A
:100C300000F4806000B3A06A20F4005040F48050BB
:100C4000A06219E0A06A40F48010A0622B49091F3D
:100C50002068884203D028492068884204D1274868
:100C6000006800F4806000E0002028B1A06A20F451
:100C7000005040F48050A062A06A00F4805020B17F
:100C8000E06A20F00600E06201E00020E06200BFC0
:100C9000002084F8240000BFC01E2168086020687E
:100CA000806800F46020B0F5602F16D112492068EA
:100CB000884208D11148006800F4702008B901206A
:100CC00002E0002000E0012038B12068806840F494
:100CD000A000216888600CE006E02068806840F48D
:100CE00080102168886004E000BF002084F82400A0
:100CF00000BF284675E70000002801400424014099
:100D00000146002291F82100022808D004208863BF
:100D100000BF002081F8200000BF01207047086854
:100D2000006820F00E000B6818600868006820F06A
:100D300001000B68186091F8403001209840CB6B9F
:100D40005860012081F8210000BF002081F82000B8
:100D500000BF1046E2E7000070B50446002594F895
:100D60002100022803D00420A063012548E0206868
:100D7000006820F00E00216808602068006820F0FC
:100D80000100216808601F492068884201D10120C4
:100D900026E01C4914312068884201D110201FE050
:100DA000184928312068884201D1801518E015497A
:100DB0003C312068884201D1801411E01149503142
:100DC0002068884202D14FF4803009E00D49643137
:100DD0002068884202D14FF4801001E04FF080700B
:100DE000084908394860012084F8210000BF00202C
:100DF00084F8200000BF606B10B12046616B88470B
:100E0000284670BD0800024070B5044600F0B0F9F5
:100E100006462546681C10B104480078054400BF0A
:100E200000F0A6F9801BA842FAD370BD1400002080
:100E30002DE9F8470346002294466EE14FF0010881
:100E400008FA02F4D1F8008008EA0400A0427DD13B
:100E5000DFF8DCA2D1F80480A8EB0A09D0453AD02B
:100E600014DCB8F1030F50D009DCB8F1000F31D019
:100E7000B8F1010F1CD0B8F1020F49D120E0B8F150
:100E8000110F18D0B8F1120F42D11EE0B9F5881F2A
:100E900025D006DCB9F5803F20D0B9F5801F37D1C9
:100EA0001AE0B9F5001F18D0B9F5041F30D117E0CA
:100EB000D1F80CC02DE0D1F80C8008F1040C28E02A
:100EC000D1F80C8008F1080C23E0D1F80C8008F16F
:100ED0000C0C1EE000BF00BF00BF00BF00BF00BF82
:100EE000D1F80880B8F1000F02D14FF0040C0BE0EC
:100EF000D1F80880B8F1010F03D14FF0080C1C6144
:100F000002E04FF0080C5C6103E04FF0000C00E0E1
:100F100000BF00BFFF2801D8984601E003F1040894
:100F20004646FF2802D84FEA820803E0A2F10808EB
:100F30004FEA88084746D6F800804FF00F0909FAB3
:100F400007F928EA09080CFA07F900E088E048EAFE
:100F50000908C6F80080D1F8048008F08058B8F17C
:100F6000805F7DD100BFDFF8CC81D8F8188048F0D1
:100F70000108DFF8C091C9F81880C846D8F8188071
:100F800008F00108CDF8008000BF00BF4FEAB93873
:100F90004FEA920958F829504FEA82784FEA1879B7
:100FA0004FF00F0808FA09F825EA0805DFF88881EC
:100FB000434502D14FF0000816E0DFF88081434539
:100FC00002D14FF001080FE0DFF87481434502D1F0
:100FD0004FF0020808E0DFF86C81434502D14FF082
:100FE000030801E04FF004084FEA82794FEA1979CB
:100FF00008FA09F848EA0505DFF84C814FEA92093A
:1010000048F82950D1F8048008F48018B8F5801FFA
:101010000AD1DFF83881D8F8008048EA0008DFF804
:101020002C91C9F8008009E0DFF82081D8F8008011
:1010300028EA0008DFF81491C9F80080D1F804808C
:1010400008F40018B8F5001F10D1DFF8008108F18E
:101050000408D8F8008048EA0008DFF8F09000E0C3
:101060005AE009F10409C9F800800DE0DFF8DC80DE
:1010700008F10408D8F8008028EA0008DFF8CC90CE
:1010800009F10409C9F80080D1F8048008F4003897
:10109000B8F5003F0ED1DFF8B480A8F10408D8F805
:1010A000008048EA0008DFF8A490A9F10409C9F813
:1010B00000800DE0DFF89480A8F10408D8F80080E3
:1010C00028EA0008DFF88490A9F10409C9F8008033
:1010D000D1F8048008F48038B8F5803F0ED1DFF8ED
:1010E0006C80A8F10808D8F8008048EA0008DFF80A
:1010F0005C90A9F10809C9F800800DE0DFF84C8088
:10110000A8F10808D8F8008028EA0008DFF83C9029
:10111000A9F10809C9F80080521CD1F8008028FA0A
:1011200002F8B8F1000F7FF489AEBDE8F88700003F
:10113000000011100010024000080140000C0140A6
:101140000010014000140140080001400804014063
:1011500010B5C26821EA020302EA010443EA04432B
:10116000036110BD0AB1016101E00B040361704726
:1011700001480068704700000C0000200348006828
:101180000349097808440149086070470C000020B1
:101190001400002010B50848006840F0100006490F
:1011A0000860032000F0DCF80F2000F007F800F0E2
:1011B0005FF8002010BD0000002002402DE9F04142
:1011C00088B004460027B846002600BF2348C069FF
:1011D00040F004002149C8610846C06900F00400DD
:1011E000019000BF00BF02A903A800F0B1FA069F5A
:1011F0001FB900F0D5FA054602E000F0D1FA45002B
:101200001748B5FBF0F0A0F1010816481649086030
:1012100040F2E7311448C160C0F804800021016148
:101220008160816100F058FD064696B90E4800F0D5
:1012300087FD06466EB91E2000F044F8102C07D238
:10124000002221461E2000F04DF80848046000E00E
:101250000126304608B0BDE8F081000000100240D1
:1012600040420F00000800409400002010000020C1
:1012700008B500BF1148806940F001000F4988613E
:101280000846806900F00100009000BF00BF00BF69
:101290000846C06940F08050C8610846C06900F047
:1012A0008050009000BF00BF00BF0549486820F093
:1012B000E06040F00070486000BF08BD00100240D0
:1012C0000000014001460846002809DB00F01F032A
:1012D00001229A4043099B0003F1E023C3F8002157
:1012E00000BF70472DE9F05F80460D461646002787
:1012F00001F096FB074639462A46334601F00700BF
:10130000C0F1070ABAF1040F02D94FF0040A01E054
:10131000C0F1070AD14600F1040ABAF1070F02D260
:101320004FF0000A01E0A0F1030AD4464FF0010A91
:101330000AFA09FAAAF1010A0AEA020A0AFA0CFAF6
:101340004FF0010B0BFA0CFBABF1010B0BEA030B9B
:101350004AEA0B042146404601F06AFBBDE8F09FD3
:1013600000BF00F00702064B19684FF6FF03194053
:10137000044B0B4343EA0221014B196000BF704745
:101380000CED00E00000FA052DE9F04706464FF0AD
:101390000008002500270024A146012E31D0022E8E
:1013A00056D0102E5FD132484468006800F080703B
:1013B00008B33048C4F38341475C04F4803078B10B
:1013C0002B484068C0F340402B4911F8008004F4DA
:1013D000803040B12948B0FBF8F000FB07F502E08F
:1013E000274807FB00F52248406800F48000B0F56C
:1013F000800F01D1A94603E068000321B0FBF1F999
:1014000032E01B48046A04F44070B0F5807F05D1D7
:1014100004F0020010B14FF4004918E004F44070E9
:10142000B0F5007F07D11248406A00F0020010B109
:1014300049F640490BE004F44070B0F5407F06D116
:101440000B48006800F4003008B14FF224490BE06B
:1014500000F0B6F906494968C1F38131491C4900D9
:10146000B0FBF1F900E000BF00BF4846BDE8F087DF
:1014700000100240EA2A0008FA2A000800127A0046
:1014800000093D00F8B5044600260025207800F04C
:10149000010000286BD000274348C06900F080504D
:1014A00070B900BF4048C06940F080503E49C861F3
:1014B0000846C06900F08050009000BF00BF0127BF
:1014C0003A48006800F48070B0B93848006840F4C9
:1014D000807036490860FFF74BFE064606E0FFF7CE
:1014E00047FE801B642801D90320F8BD2F480068FF
:1014F00000F480700028F2D02B48006A00F4407598
:101500002DB3A08800F44070A84220D02648006A7D
:1015100020F4407501202649086000200860224818
:10152000056205F0010090B1FFF722FE064608E0D3
:10153000FFF71EFE801B41F28831884201D903204B
:10154000D3E71948006A00F002000028F0D01648DE
:10155000006A20F440706168084313490862012F53
:1015600004D10846C06920F08050C86100BF2078CF
:1015700000F00200022807D10B48406820F44040E8
:10158000A168084308494860207800F0100010283E
:1015900007D10548406820F48000E168084302490B
:1015A00048600020A1E700000010024000700040E9
:1015B000400442427047000070B504460D460CB925
:1015C000012070BD5A48006800F00700A8420ED202
:1015D0005748006820F0070028435549086008462E
:1015E000006800F00700A84201D00120E9E7207858
:1015F00000F0020002281DD1207800F00400042829
:1016000005D14C48406840F4E0604A494860207881
:1016100000F00800082805D14648406840F46050B2
:10162000444948604348406820F0F000A1680843FE
:1016300040494860207800F0010078B360680128D4
:1016400006D13C48006800F4003090B90120B8E7AA
:101650006068022806D13748006800F0007040B981
:101660000120AEE73348006800F0020008B901200D
:10167000A7E73048406820F00300616808432D491F
:101680004860FFF775FD064609E0FFF771FD801B16
:1016900041F28831884202D9032092E707E02548C9
:1016A000406800F00C006168B0EB810FEDD120487C
:1016B000006800F00700A8420ED91D48006820F01D
:1016C000070028431A4908600846006800F0070030
:1016D000A84201D0012074E7207800F0040004281B
:1016E00007D11448406820F4E060E16808431149DC
:1016F0004860207800F00800082808D10D484068AC
:1017000020F46050216940EAC1000A49486000F0B5
:1017100067F808494968C1F30311074A515CC8409A
:101720000649086006480068FFF748FD002048E7C2
:101730000020024000100240FC2A0008180000208F
:101740001000002001200149C86470470000424297
:101750000F2202600D4A526802F0030242600B4AF7
:10176000526802F0F0028260084A526802F4E062B5
:10177000C260064A526802F46052D2080261044A0A
:10178000126802F007020A60704700000010024071
:101790000020024001480068704700001800002047
:1017A00000B5FFF7F7FF04494968C1F30221034A76
:1017B000515CC84000BD0000001002400C2B000826
:1017C00000B5FFF7E7FF04494968C1F3C221034AA6
:1017D000515CC84000BD0000001002400C2B000806
:1017E00070B500210022002400230020134D6968F9
:1017F00001F00C05F5B1042D02D0082D19D101E03E
:101800000F4819E00F4DC1F38346AB5D01F48035FD
:1018100055B10A4D6D68C5F340450B4E725D084DDC
:101820005D43B5FBF2F402E0084D03FB05F42046EE
:1018300002E000BF024800BF00BF70BD00100240C0
:1018400000127A00D82A0008E82A000800093D00A2
:1018500010B50648806800F08000802804D1FFF7AA
:10186000A9FE80200149887210BD000000100240CE
:10187000F8B504460CB90120F8BD207800F001004D
:10188000002878D0F848406800F00C0004280CD0FC
:10189000F548406800F00C00082811D1F248406873
:1018A00000F48030B0F5803F0AD1EF48006800F4C2
:1018B000003000285FD0606800285CD10120DBE7A1
:1018C00000BF6068B0F5803F06D1E748006840F48B
:1018D0008030E549086028E0606858B9E24800684F
:1018E00020F48030E04908600846006820F4802039
:1018F00008601AE06068B0F5A02F0BD1DA480068E4
:1019000040F48020D84908600846006840F48030E0
:1019100008600AE0D448006820F48030D2490860AA
:101920000846006820F48020086000BF606888B125
:10193000FFF71EFC054606E0FFF71AFC401B642873
:1019400001D9032098E7C848006800F40030002857
:10195000F2D010E0FFF70CFC054606E0FFF708FCAC
:10196000401B642801D9032086E7BF48006800F4C3
:1019700000300028F2D1207800F00200022857D170
:10198000B948406800F00C0050B1B748406800F01A
:101990000C00082818D1B448406800F4803098B989
:1019A000B148006800F0020020B12069012801D090
:1019B000012061E7AC48006820F0F800616940EA66
:1019C000C100A949086033E02069E8B10120A749B6
:1019D0000860FFF7CDFB054606E0FFF7C9FB401B9B
:1019E000022801D9032047E79F48006800F0020061
:1019F0000028F2D09C48006820F0F800616940EAB5
:101A0000C1009949086013E0002098490860FFF779
:101A1000AFFB054606E0FFF7ABFB401B022801D9F0
:101A2000032029E79048006800F002000028F2D166
:101A3000207800F0080008282DD1A069B8B1012055
:101A40008B490860FFF794FB054606E0FFF790FB23
:101A5000401B022801D903200EE78348406A00F0AA
:101A600002000028F2D0012000F068FD13E0002001
:101A70007F490860FFF77CFB054606E0FFF778FB2F
:101A8000401B022801D90320F6E67748406A00F09F
:101A900002000028F2D1207800F00400042873D15D
:101AA00000277148C06900F0805070B900BF6E48CF
:101AB000C06940F080506C49C8610846C06900F0B8
:101AC0008050009000BF00BF01276A48006800F402
:101AD0008070B0B96748006840F48070654908605C
:101AE000FFF746FB054606E0FFF742FB401B642874
:101AF00001D90320C0E65F48006800F48070002828
:101B0000F2D000BFE068012806D15748006A40F0D3
:101B100001005549086227E0E06858B95248006A58
:101B200020F00100504908620846006A20F00400D5
:101B3000086219E0E06805280BD14B48006A40F0C4
:101B40000400494908620846006A40F00100086242
:101B50000AE04548006A20F001004349086208464F
:101B6000006A20F00400086200BFE068A0B1FFF73F
:101B7000FFFA054609E0FFF7FBFA401B41F2883106
:101B8000884202D9032077E622E03748006A00F055
:101B900002000028EFD012E0FFF7EAFA054608E05D
:101BA000FFF7E6FA401B41F28831884201D9032051
:101BB00062E62D48006A00F002000028F0D1012FF3
:101BC00005D12948C06920F080502749C86100BF6D
:101BD000E069C8B32448406800F00C00082860D0D1
:101BE000E069022848D1002020490866FFF7C0FAC2
:101BF000054606E0FFF7BCFA401B022801D9032086
:101C00003AE61948006800F000700028F2D1206A16
:101C1000B0F5803F07D11448406820F40030A16837
:101C2000084311494860D4E9080108430E4949684E
:101C300021F4741108430C49486001200B490866DF
:101C4000FFF796FA054607E03DE0FFF791FA401BE3
:101C5000022801D903200FE60348006800F0007055
:101C60000028F2D02FE000000010024000004242A5
:101C70008004424200700040002014490866FFF7CB
:101C800077FA054606E0FFF773FA401B022801D9F0
:101C90000320F1E50E48006800F000700028F2D142
:101CA00011E0E069012800D1E6E50948466806F43C
:101CB0008031206A814204D106F47011606A814249
:101CC00001D00120D8E50020D6E500000000424206
:101CD000001002407047704710B504460CB901204F
:101CE00010BD94F83D0028B9002084F83C0020463F
:101CF00000F025F8022084F83D00211D206800F046
:101D000081FC012084F8460000BF84F83E000121D8
:101D10003F200155402001554120015500BF00BF23
:101D2000012084F8420043200155442001554520FC
:101D3000015500BF012084F83D000020D0E7704726
:101D4000014691F83D00012801D001207047022092
:101D500081F83D000868C06840F001000B68D86059
:101D6000124B086898420BD00868B0F1804F07D03A
:101D70000F4B0868984203D00E4B086898420CD16C
:101D80000868806800F00702062A0CD0086800681E
:101D900040F001000B68186005E00868006840F03A
:101DA00001000B6818600020D0E70000002C014003
:101DB0000004004000080040704770B504462068E9
:101DC000C5682068066906F00200022819D105F0EE
:101DD0000200022815D1401F2168086101202077E8
:101DE0002068806900F0030018B12046FFF7E4FF87
:101DF00005E0204600F097F8204600F095F8002016
:101E0000207706F00400042819D105F00400042806
:101E100015D1C043216808610220207720688069BD
:101E200000F4407018B12046FFF7C6FF05E02046D9
:101E300000F079F8204600F077F80020207706F0CF
:101E40000800082819D105F00800082815D1C0435A
:101E500021680861042020772068C06900F0030031
:101E600018B12046FFF7A8FF05E0204600F05BF818
:101E7000204600F059F80020207706F010001028C6
:101E800019D105F01000102815D1C0432168086150
:101E9000082020772068C06900F4407018B12046FF
:101EA000FFF78AFF05E0204600F03DF8204600F0ED
:101EB0003BF80020207706F0010048B105F0010052
:101EC00030B16FF0010021680861204600F02EF863
:101ED00006F08000802809D105F08000802805D117
:101EE000C043216808612046FFF7F4FE06F0400079
:101EF000402809D105F04000402805D1C0432168A1
:101F00000861204600F01EF806F02000202809D1C4
:101F100005F02000202805D1C04321680861204633
:101F2000FFF7D9FE70BD70477047000010B504463A
:101F300003492068884201D1FFF720F910BD000055
:101F40000008004070477047704700002DE9F84FC7
:101F50000446206805682068C668206847694FF015
:101F60000009CA4605F00F09B9F1000F0AD105F0C2
:101F7000200038B106F0200020B1204600F0D4FB4C
:101F8000BDE8F88FB9F1000F7BD007F0010018B958
:101F900006F49070002874D005F0010030B106F40A
:101FA000807018B1606C40F00100606405F00400BE
:101FB00030B107F0010018B1606C40F002006064BD
:101FC00005F0020030B107F0010018B1606C40F07C
:101FD0000400606405F0080048B106F0200010B964
:101FE00007F0010018B1606C40F008006064606C9C
:101FF000002845D005F0200028B106F0200010B1DF
:10200000204600F091FB20684069C0F3801A606CA4
:1020100000F0080010B9BAF1000F2CD0204600F0F3
:102020003DFB2068406900F0400000B300BF00BFE6
:102030002168143151E8001F21F04000216814315B
:1020400041E80002002AF3D100BFE06B50B17748AD
:10205000E16B4863E06BFEF77FFE88B1E06B416B9C
:1020600088470DE02046FFF76FFF09E009E02046B2
:10207000FFF76AFF04E02046FFF766FF0020606478
:102080007EE7206B012877D105F01000002873D07F
:1020900006F010000028FAD000BF00200090206851
:1020A0000068009020684068009000BF00BF206872
:1020B000406900F0400000285FD0E06B0068406895
:1020C0001FFA80F8B8F1000F55D0A08D404552DDC1
:1020D000A4F82E80E06B8069202843D000BF00BFA9
:1020E00021680C3151E8001F21F4807021680C3107
:1020F00041E80002002AF3D100BF00BF00BF216801
:10210000143151E8001F21F001002168143141E829
:102110000002002AF3D100BF00BF00BF21681431C4
:1021200051E8001F21F040002168143141E800020D
:10213000002AF3D100BF202084F842000020206351
:1021400000BF00BF21680C3151E8001F21F01000D2
:1021500021680C3141E80002002AF3D100BFE06B96
:10216000FEF7CEFD02206063A08DE28D801A81B261
:102170002046FFF7E8FE03E742E0A08DE18D401A1C
:102180001FFA80F8E08DD0B3B8F1000F37D000BF50
:1021900000BF21680C3151E8001F21F490702168C4
:1021A0000C3141E80002002AF3D100BF00BF00BF9C
:1021B0002168143151E8001F21F001002168143119
:1021C00041E80002002AF3D100BF202084F8420039
:1021D0000020206300BF00BF21680C3151E8001FC0
:1021E00021F0100021680C3141E80002002AF3D1EF
:1021F00000BF0220606341462046FFF7A4FEBFE611
:1022000005F0800030B106F0800018B1204600F0E3
:1022100087FBB5E605F0400030B106F0400018B18C
:10222000204600F071FAABE600BFA9E68926000857
:1022300010B504460CB9012010BDA06900B100E042
:1022400000BF94F8410028B9002084F840002046DF
:1022500000F02AF8242084F841002068C06820F4A7
:1022600000502168C860204600F0DCFA2068006950
:1022700020F49040216808612068406920F02A001D
:10228000216848612068C06840F400502168C86037
:1022900000206064202084F8410084F8420000207F
:1022A000606300BFC8E7000010B586B00446002098
:1022B00002900390049005901E492068884236D110
:1022C00000BF1D48806940F480401B498861084672
:1022D000806900F48040019000BF00BF00BF084645
:1022E000806940F0040088610846806900F00400BD
:1022F000019000BF00BF4815029002200390032008
:10230000059002A90D48FEF793FD4FF480600290FE
:1023100000200390049002A90848FEF789FD0022DE
:1023200011462520FEF7DEFF2520FEF7CBFF06B085
:1023300010BD0000003801400010024000080140BC
:1023400070472DE9F84F04460E46174699464FF060
:10235000000A94F84100202850D106B117B9012095
:10236000BDE8F88F00206064212084F84100FEF76A
:10237000FFFE8246A784E784A068B0F5805F04D1A1
:10238000206910B90025B04602E035464FF000083C
:102390001EE05346002280212046CDF8009000F038
:1023A000EFFA20B1202084F841000320D8E745B996
:1023B000B8F80000C0F308002168486008F102087E
:1023C00003E02878216848606D1CE08C401EE084A2
:1023D000E08C0028DDD15346002240212046CDF874
:1023E000009000F0CDFA20B1202084F841000320B5
:1023F000B6E7202084F841000020B1E70220AFE7D3
:10240000704700BFFEE700000EB50020009001906D
:10241000029012481249086000211148816001733E
:1024200001754FF46021C16100200D494860012110
:102430000B480161FEF728FA08B1FEF7E2F8002028
:102440000090012001900020029069460448FEF7A8
:10245000DDF808B1FEF7D5F80EBD000000240140FC
:102460001C00002000B585B0002001900290039070
:10247000049000BF1D48806940F010001B4988612E
:102480000846806900F01000009000BF00BF00BF48
:102490000846806940F0200088610846806900F0A5
:1024A0002000009000BF00BF00BF0846806940F0D8
:1024B000040088610846806900F00400009000BFB5
:1024C00000BF012251030A48FEF74CFE4FF40050B2
:1024D000019001200290002003900220049001A9A5
:1024E0000348FEF7A5FC05B000BD00000010024047
:1024F0000010014010B50B480B4908604FF4E13063
:102500004860002108488160C16001610C2141617F
:1025100000218161C161FFF78BFE08B1FEF771F800
:1025200010BD0000003801404C00002000BFFEE755
:10253000FFF78EF900BFFEE77047000008B50849B5
:102540000968C9084FF47A72B1FBF2F14143009176
:1025500000BF00BF00994A1E00920029F9D108BDB2
:10256000180000207047704700B593B0282109A8D3
:10257000FDF7E2FE142104A8FDF7DEFE0020009026
:102580000190029003900120099000040A9000201D
:102590000B9001200D9002201090C10311914FF477
:1025A000E011129109A8FFF763F908B1FEF729F8C5
:1025B0000F20049002200590002006904FF48060C8
:1025C000079000200890022104A8FEF7F5FF08B14B
:1025D000FEF717F802200090800302906846FEF78D
:1025E00051FF08B1FEF70DF8FFF7ACF813B000BDCE
:1025F0007047000010B50248FFF7DFFB10BD000078
:102600009400002010B502681C4B984208D0B0F12D
:10261000804F05D01A4B984202D01A4B984203D1F2
:1026200022F070024B681A43144B984208D0B0F164
:10263000804F05D0124B984202D0124B984203D1E2
:1026400022F44072CB681A4322F080034C6943EABB
:10265000040202608B68C3620B688362074B984276
:1026600001D10B69036301234361036903F0010393
:102670001BB1036923F00103036110BD002C01406D
:10268000000400400008004070B505466C6A002058
:10269000E085E0842046FFF757FC70BD00BF00BF17
:1026A00002680C3252E8002F22F4907102680C325A
:1026B00042E80013002BF3D100BF00BF00BF026847
:1026C000143252E8002F22F001010268143242E86D
:1026D0000013002BF3D100BF016B01290ED100BF05
:1026E00000BF02680C3252E8002F22F0100102688D
:1026F0000C3242E80013002BF3D100BF202180F8F8
:10270000421000210163704710B504462068C0687C
:1027100020F040002168C860202084F84100204655
:10272000FFF76EFE002010BDF8B5044694F8420095
:10273000222875D1A068B0F5805F0CD1206950B90E
:102740000025A66A20684068C0F308003080A06AAF
:10275000801CA06215E0A56A0026A068B0F5805F25
:1027600003D0A06828B9206918B92068406828708B
:1027700004E02068406800F07F002870A06A401CD8
:10278000A062E08D401E80B2E085002846D120681E
:10279000C06820F020002168C8602068C06820F46C
:1027A00080702168C8602068406920F001002168BD
:1027B0004861202084F8420000206063206B0128DB
:1027C00026D10020206300BF00BF21680C3151E8F2
:1027D000001F21F0100021680C3141E80002002A9E
:1027E000F3D100BF2068006800F0100010280AD163
:1027F00000BF0020009020680068009020684068BA
:10280000009000BF00BFA18D2046FFF79CFB02E0B7
:102810002046FFF795FD0020F8BD01E00020FBE712
:102820000220F9E770B504462168096921F4405196
:10283000E2681143226811612269A168114362694B
:1028400041EA02052168C96841F20C6291432943BB
:102850002268D1602168496921F44071A26911435D
:10286000226851612D4A2168914202D1FEF7A8FFEA
:1028700001E0FEF795FF00EBC00101EB001162687B
:102880009200B1FBF2F100EBC00202EB00126368B0
:102890009B00B2FBF3F26423B2FBF3F202EBC20340
:1028A00003EB0212A1EB8201322202EB011164223E
:1028B000B1FBF2F101F0F00100EBC00202EB0012FB
:1028C00063689B00B2FBF3F26423B2FBF3F201EB0B
:1028D000021200EBC00101EB001163689B00B1FB29
:1028E000F3F100EBC00303EB00136668B600B3FB23
:1028F000F6F36426B3FBF6F303EBC30606EB031310
:10290000A1EB8301322303EB01116423B1FBF3F14B
:1029100001F00F0111442268916070BD0038014040
:10292000014691F84100212828D18868B0F5805FE0
:102930000BD1086948B90A6A1088C0F308000B680F
:102940005860086A801C086205E00B6A581C08621F
:1029500018780B685860C88C401E80B2C88458B97B
:102960000868C06820F080000B68D8600868C068FC
:1029700040F040000B68D860002070470220FCE760
:102980002DE9F84304460D4617469846089E31E067
:10299000701C70B3FEF7ECFBA0EB0800B04200D84F
:1029A00016B90320BDE8F8832068C06800F0040071
:1029B000F8B1802D1ED0402D1CD020680068C0F3D7
:1029C000C000B0B100BF00200090206800680090F7
:1029D00020684068009000BF00BF2046FFF75EFE01
:1029E0000820606400BF002084F8400000BF012080
:1029F000D8E7FFE7206800682840A84201D10120FD
:102A000000E00020B842C3D00020CBE710B5024858
:102A1000FFF79CFA10BD00004C00002000BFFEE74D
:102A200002480068C0F30220704700000CED00E08F
:102A300010B5002804DB0A07130E054A135406E0FC
:102A40000A07140E034A00F00F031B1FD45410BDD5
:102A500000E400E018ED00E0FEF79CFBFFF784FDCA
:102A6000FFF700FDFFF7D0FCFFF744FD24E013481B
:102A7000FEF7AEF80A211148FDF7EAFFA0B90F48AA
:102A8000FDF775FE0E49086008460EA20521036891
:102A90000E48FDF79DFB0446A2B24FF0FF330B49F1
:102AA0000B48FFF74EFC00BF4FF400510948FEF7FA
:102AB0004FFB6420FEF7A8F9D9E700001C000020B6
:102AC00000000020256C750D0A00000004000020A5
:102AD0004C0000200010014002030405060708090D
:102AE0000A0B0C0D0E0F101001020203040506075D
:102AF00008090A0B0C0D0E0F101001020000000057
:102B0000000000000102030406070809000000009D
:102B100001020304342B0008000000201C00000008
:102B200028010008502B00081C000020240700008A
:102B30004401000800000000000000000000000048
:102B400000000000100000000100000000127A00E8
:04000005080000ED02
:00000001FF
