:020000040800F2
:10000000682100202102000833190008F3170008B6
:1000100031190008FB0400081D1D00080000000045
:10002000000000000000000000000000890100083E
:100030003F05000800000000CD0100087919000804
:100040003B0200083B0200083B0200083B0200089C
:100050003B0200083B0200083B0200083B0200088C
:100060003B0200083B0200083B0200083B0200087C
:100070003B0200083B020008FD0400083B020008A8
:100080003B020008090500083B0200083B0200088B
:100090003B0200083B0200083B0200083B0200084C
:1000A0003B0200083B0200083B0200083B0200083C
:1000B0003B0200083B020008F51900083B0200085B
:1000C0003B0200083B0200083B0200083B0200081C
:1000D0003B020008051D0008111D00083B02000836
:1000E0003B0200083B0200083B02000800F002F857
:1000F00000F03AF80AA090E8000C82448344AAF188
:100100000107DA4501D100F02FF8AFF2090EBAE885
:100110000F0013F0010F18BFFB1A43F0010318473B
:100120001434000034340000103A24BF78C878C179
:10013000FAD8520724BF30C830C144BF04680C60ED
:10014000704700000023002400250026103A28BF35
:1001500078C1FBD8520728BF30C148BF0B60704739
:100160001FB51FBD10B510BD00F08DF91146FFF78A
:10017000F7FF01F0E4FD00F0ABF903B4FFF7F2FF85
:1001800003BC00F0B3F90000224B19680868B0E81E
:10019000F00F80F30988BFF36F8F4FF0000080F3FA
:1001A00011884EF00D0E70470000000006480068F0
:1001B000006880F3088862B661B6BFF34F8FBFF363
:1001C0006F8F00DF00BF00BF08ED00E0EFF3098094
:1001D000BFF36F8F0F4B1A6820E9F00F106008B55E
:1001E0004FF0500080F31188BFF34F8FBFF36F8F34
:1001F00002F06CFC4FF0000080F31188BDE808406D
:1002000019680868B0E8F00F80F30988BFF36F8FB2
:10021000704700BF14000020EFF305807047000016
:100220000948804709480047FEE7FEE7FEE7FEE78A
:10023000FEE7FEE7FEE7FEE7FEE7FEE704480549C6
:10024000054A064B70470000F3190008ED0000084E
:10025000681B002068210020681D0020681D002008
:100260000FB41CB5084B06AA7B446946009005985C
:1002700000F089F804460020694600F097F820460F
:100280001CBC5DF814FB000041010000032A40F291
:10029000308010F0030C00F0158011F8013BBCF128
:1002A000020F624498BF11F801CB00F8013B38BF40
:1002B00011F8013BA2F1040298BF00F801CB38BF4E
:1002C00000F8013B11F0030300F07580083AC0F01C
:1002D000088051F8043B083A51F804CBA0E8081014
:1002E000F5E7121D5CBF51F8043B40F8043BAFF347
:1002F0000080D20724BF11F8013B11F801CB48BFA1
:1003000011F8012B24BF00F8013B00F801CB48BFD6
:1003100000F8012B704702F0FF0343EA032242EA90
:10032000024200F07CB84FF0000200B5134694463C
:100330009646203922BFA0E80C50A0E80C50B1F13D
:100340002001BFF4F7AF090728BFA0E80C5048BF51
:100350000CC05DF804EB890028BF40F8042B08BFEF
:10036000704748BF20F8022B11F0804F18BF00F8EB
:10037000012B7047704770477047000001694A1CA5
:1003800002610878704700B58FB0CDE901310021D6
:10039000059105497944CDE903101146684600F0FE
:1003A0005EF80FB000BD0000E5FFFFFF0A6802F82D
:1003B000010B0A60704710B5203AC0F00B80B1E81D
:1003C0001850203AA0E81850B1E81850A0E818508A
:1003D000BFF4F5AF5FEA027C24BFB1E81850A0E893
:1003E000185044BF18C918C0BDE810405FEA827CAD
:1003F00024BF51F8043B40F8043B08BF7047D207C4
:1004000028BF31F8023B48BF11F8012B28BF20F864
:10041000023B48BF00F8012B70474FF0000204294F
:10042000C0F0128010F0030C3FF47FAFCCF1040C4D
:10043000BCF1020F18BF00F8012BA8BF20F8022B57
:10044000A1EB0C01FFF771BF5FEAC17C24BF00F88C
:10045000012B00F8012B48BF00F8012B70472DE954
:10046000F04106460024D6E90170F5688046304622
:1004700003E04146B847641C3046A8470028F8D13D
:100480002046BDE8F081754600F02CF8AE46050028
:100490006946534620F00700854618B020B5FFF79F
:1004A000CDFEBDE820404FF000064FF000074FF0B2
:1004B00000084FF0000B21F00701AC46ACE8C00982
:1004C000ACE8C009ACE8C009ACE8C0098D4670478B
:1004D00010B50446AFF300802046BDE81040FFF79A
:1004E0004CBE000000487047081B0020014918203E
:1004F000ABBEFEE7260002007047FEE7014800F0B1
:1005000091B8000064010020014800F08BB80000A1
:10051000A801002030B590F840500124AC40C56BD4
:100520006C60046863604368102B036803D09960B3
:100530000068C26030BD9A600068C16030BD70471D
:1005400072B6FEE710B590F821100022022905D0FE
:100550000421816380F82020012010BD01680B6810
:1005600023F00E030B6001680B6823F001030B609E
:1005700090F84030C46B012101FA03F3636080F806
:10058000211080F82020104610BD000010B590F812
:1005900021100024022903D00421816301243DE0BD
:1005A00001680A6822F00E020A6001680A6822F0F7
:1005B00001020A601A4A0168914201D1012121E039
:1005C000174A1432914201D110211BE0144A2832FB
:1005D000914201D1891515E0114A3C32914201D175
:1005E00089140FE00E4A5032914202D14FF480310B
:1005F00008E00B4A6432914202D14FF4801101E0CD
:100600004FF08071064A083A5160012180F82110AC
:10061000002180F82010416B01B18847204610BDB1
:10062000080002402DE9F05FC16B0C6801680B689F
:10063000D0F840C0042202FA0CF2494DDFF824A1A0
:10064000494E4A4FDFF828B1DFF828E122422CD08A
:100650005A072AD50A68920603D40A6822F00402CF
:100660000A600168A94201D1042219E0514501D173
:10067000402215E0B14202D14FF4806210E0B9424D
:1006800002D14FF480420BE0594502D14FF4802251
:1006900006E0714502D14FF4800201E04FF0806224
:1006A0002F4908394A60C16A3BE04FF0020808FA56
:1006B0000CF818EA040F4FF000094FF0010235D092
:1006C0005FEA837832D50B689B0605D40B6823F06C
:1006D0000A030B6080F821200168A94201D102229F
:1006E00019E0514501D1202215E0B14202D14FF469
:1006F000007210E0B94202D14FF400520BE05945AC
:1007000002D14FF4003206E0714502D14FF40012DD
:1007100001E04FF00072124908394A6080F82090D9
:10072000816A00291AD0BDE8F05F0847082505FA5C
:100730000CF5254212D01B0710D50B6823F00E03D1
:100740000B6090F84010C36B02FA01F159608263AC
:1007500080F8212080F82090016BE2E7BDE8F09F4F
:10076000080002401C0002403000024044000240E9
:10077000580002406C00024030B528B308C8134945
:1007800014221944B1FBF2F18900C163104981635D
:10079000022141771A6843F6F0718A43D0E90014C8
:1007A0002143D0E902452C43214304692143446994
:1007B00021438469214311431960002141630122CF
:1007C00042770177084630BD012030BDF8FFFDBFFC
:1007D0000000024070B5044690F820000025012872
:1007E0000CD0012084F8200094F821600020012E14
:1007F00006D084F820000225284670BD022070BD76
:10080000022684F82160A0632068066826F00106AD
:1008100006602046FFF77EFEE06A00282068016837
:1008200002D041F00E0106E021F0040101602068D1
:10083000016841F00A0101602068016841F001018E
:100840000160D9E72DE9F84FDFF8B8910024A9F14C
:10085000040B23460F2709F1040AABF1040EC9E08B
:100860000125A5402A40AA427DD1674ED1F804C097
:10087000ACEB0608B44532D014DCBCF1030F3AD01F
:1008800009DCBCF1000F2AD0BCF1010F1CD0BCF177
:10089000020F31D11DE0BCF1110F17D0BCF1120FC6
:1008A0002AD119E0B8F5881F19D006DCB8F5803FC9
:1008B00015D0B8F5801F1FD111E0B8F5001F0ED07C
:1008C000B8F5041F18D10AE0CB6815E0CB681B1DF2
:1008D00012E0CB6808330FE0CB680C330CE08B6878
:1008E0002BB1012B4FF0080303D0456104E0042332
:1008F00002E0056100E00023FF2A01D8064601E07E
:1009000000F104064FEA840501D9A5F12005D6F8C7
:10091000008007FA05FC28EA0C0803FA05F548EA06
:100920000508C6F800804D68ED0062D5374DAE6908
:1009300046F00106AE61AD6924F0030605F001053D
:100940000095334D06EB050CDCF80850A607360F72
:1009500007FA06F825EA0805DFF8B880404503D114
:100960004FF0000817E044E0DFF8AC80404502D1CA
:100970004FF001080FE0DFF8A480404502D14FF0AE
:10098000020808E0DFF89880404502D14FF00308E4
:1009900001E04FF0040808FA06F848EA0508CCF828
:1009A00008804D68D9F80060ED024D4601D5164328
:1009B00000E096432E604D68DAF80060AD025546BF
:1009C00001D5164300E096432E604D68DBF80060C9
:1009D000AD035D4601D5164300E096432E604D6899
:1009E000DEF80060ED03754601D5164300E096433E
:1009F0002E60641C0D682A46E5407FF431AFBDE8E7
:100A0000F88F00000804014000001110001002409F
:100A10000000014000080140000C014000100140AE
:100A200000140140C26821EA02030A4043EA02417D
:100A3000016170470AB1016170470904FBE70000DA
:100A40000148806870470000040000200248816867
:100A5000027811448160704704000020074810B5F7
:100A6000016841F010010160032000F0A7F80F2099
:100A700000F006F800F050F8002010BD0020024001
:100A800030B505461F4887B0C16941F00401C16116
:100A9000C06906A900F00400009001A800F03EF92A
:100AA0000498B0B100F05AF940001749174AB0FB5A
:100AB000F1F11748491E0260416040F2E73200211F
:100AC000C0E903218160816100F02CFB040003D0A8
:100AD00015E000F043F9E8E70D4800F051FB040091
:100AE0000DD11E2000F03CF8102D07D2002229461F
:100AF0001E2000F043F80748056000E0012407B01D
:100B0000204630BD0010024040420F000008004067
:100B1000EC010020080000200F4808B5816941F071
:100B200001018161816901F001010091C16941F018
:100B30008051C161C069002200F0805000900F21F7
:100B4000901E00F01BF80548416821F0E06141F07B
:100B50000071416008BD000000100240000001402B
:100B6000002809DB00F01F020121914040098000AC
:100B700000F1E020C0F8001170470000F0B40E4B07
:100B80001B680C46C3F30223C3F10705042D00D9EB
:100B90000425191D072901D2002300E0DB1E0126D0
:100BA00006FA05F1491E214099409E40761E1640E6
:100BB0003143F0BC01F0B3B80CED00E0064900F0A1
:100BC000070208684FF6FF03184040EA0220034A74
:100BD00010430860704700000CED00E00000FA05CB
:100BE000704700002DE9F0470F46050061D0434EE5
:100BF000306800F00700B84209D2306820F00700E2
:100C000038433060306800F00700B84251D128689E
:100C10003B4C810712D5400703D5606840F4E06083
:100C200060602878000703D5606840F46050606019
:100C30006068A96820F0F000084360602878C00769
:100C400028D06868012810D02168022810D08907B0
:100C500000292EDA616821F0030101436160FFF78A
:100C6000EFFE804641F288390DE021688903EFE705
:100C70008901EDE7FFF7E4FEA0EB0801494502D941
:100C80000320BDE8F0876068696800F00C00B0EBF5
:100C9000810FEFD1306800F00700B8420BD93068FF
:100CA00020F0070038433060306800F00700B84299
:100CB00001D00120E5E72878400705D56068E9689C
:100CC00020F4E060084360602878000706D560687B
:100CD000296920F4605040EAC100606000F05EF8CD
:100CE0006168084AC1F30311515CC84006490860B5
:100CF00006480068FFF7C4FE0020C2E7002002405B
:100D000000100240123500081000002008000020EA
:100D100001490120C8647047000042420F2202606E
:100D20000C4A536803F003034360536803F0F00375
:100D30008360536803F4E063C36052684FF4E06378
:100D400003EAD20202610448006800F0070008606C
:100D5000704700000010024000200240044805498E
:100D600000684968044AC1F30221515CC8407047D9
:100D700010000020001002402235000804480549F8
:100D800000684968044AC1F3C221515CC8407047F9
:100D90001000002000100240223500080E4A516861
:100DA0000E4801F00C03042B11D0082B0FD10C4876
:100DB000C1F38343C903C05C0AD55168084AC1F333
:100DC0004041921E515C054A5043B0FBF1F0704720
:100DD00004494843704700000010024000127A00A6
:100DE0000235000800093D0010B5044CA06800065B
:100DF00003D5FFF7F5FE8020A07210BD0010024061
:100E00002DE9F84F040070D02078C04DC00749D0BC
:100E10006868C0F38100012807D06868C0F38100CA
:100E2000022809D16868C00306D52868800339D52F
:100E300060680028E7D035E06068B0F5803F0BD0EF
:100E400010B1B0F5A02F11D0286820F480302860B0
:100E5000286820F4802002E0286840F48030286070
:100E6000606890B1FFF7ECFD06460AE0286840F4A0
:100E700080202860F0E700BFFFF7E2FD801B6428B8
:100E800073D828688003F7D50CE0FFF7D9FD064634
:100E900005E000BFFFF7D4FD801B6428F0D8286868
:100EA0008003F7D420789A4E80074FF001094FF065
:100EB000000839D5686810F00C0F07D06868C0F3D7
:100EC0008100022809D16868C00306D42868800719
:100ED00014D52069012808D110E02069B0B1C6F806
:100EE0000090FFF7ADFD074605E00AE1FFF7A8FD1A
:100EF000C01B0228C4D828688007F7D52868616914
:100F000020F0F80040EAC10028600DE0C6F800803B
:100F1000FFF796FD074604E0FFF792FDC01B02288D
:100F200023D828688007F7D4207800072CD5794883
:100F3000A169D9B1C0F80090FFF782FD074604E02F
:100F4000FFF77EFDC01B02280FD8686A8007F7D51F
:100F500071484FF4FA510068B0FBF1F0009000BF07
:100F60000098411E0091FAD20EE080E0C0F80080A7
:100F7000FFF766FD074604E0FFF762FDC01B02288D
:100F800075D8686A8007F7D42078400760D5E8698B
:100F90000027C00008D4E86940F08050E861E869A3
:100FA000012700F0805000905C480168C90513D407
:100FB0000168834641F480710160FFF741FD82467C
:100FC00006E000BFFFF73CFDA0EB0A0064284ED806
:100FD000DBF80000C005F5D5E06801280AD008B1AB
:100FE000052813D0286A20F001002862286A20F022
:100FF000040002E0286A40F001002862E06841F243
:10100000883B98B1FFF71CFD82460BE0286A40F050
:1010100004002862EEE700BFFFF712FDA0EB0A0113
:1010200059455AD8286A8007F6D50CE0FFF708FD25
:10103000824605E0FFF704FDA0EB0A0159454CD8B4
:10104000286A8007F6D41FB1E86920F08050E86173
:10105000E06988B36968C1F38101022944D002289C
:10106000C6F8608004D0FFF7EBFC044638E034E0BB
:10107000FFF7E6FC074604E0FFF7E2FCC01B02288E
:101080002BD828688001F7D4206AB0F5803F05D1BD
:101090006868A16820F4003008436860D4E908015A
:1010A0000843696821F4741108436860C6F86090C9
:1010B000FFF7C6FC044606E025E000BFFFF7C0FCD2
:1010C000001B022809D828688001F7D51BE000BF63
:1010D000FFF7B6FC001B022802D90320BDE8F88FF9
:1010E00028688001F4D40EE00128F7D06868226AED
:1010F00000F48031914204D1616A00F4701088429A
:1011000001D00120EAE70020E8E7000000100240DB
:101110000000424280044242100000200070004063
:101120007047704710B5040003D094F83D0010B12B
:1011300007E0012010BD002084F83C00204600F0AC
:101140001EF8022084F83D00211D206800F058FCA4
:10115000012084F8460084F83E0084F83F0084F8BB
:10116000400084F8410084F8420084F8430084F889
:10117000440084F8450084F83D00002010BD70470D
:1011800090F83D10012901D001207047022180F81C
:101190003D100168CA6842F00102CA6000680B494C
:1011A000884208D0B0F1804F05D00949884202D06A
:1011B0000849884204D1816801F00701062903D05B
:1011C000016841F00101016000207047002C0140DE
:1011D000000400400008004070472DE9F04104463B
:1011E0000068C66805694FF00007A90713D5B10765
:1011F00011D5F91E016101202077206880698007E0
:10120000204602D0FFF7E8FF04E000F07EF8204619
:1012100000F07CF82777680716D5700714D5216889
:101220006FF004000861022020772068806910F4C4
:10123000407F204602D0FFF7CFFF04E000F065F8C2
:10124000204600F063F82777280715D5300713D517
:1012500021686FF008000861042020772068C069C9
:101260008007204602D0FFF7B7FF04E000F04DF8FA
:10127000204600F04BF82777E80616D5F00614D57F
:1012800021686FF010000861082020772068C0698D
:1012900010F4407F204602D0FFF79EFF04E000F0EC
:1012A00034F8204600F032F82777E80708D0F00736
:1012B00006D021686FF001000861204600F028F890
:1012C000280608D5300606D521686FF08000086131
:1012D0002046FFF725FF680608D5700606D5216869
:1012E0006FF040000861204600F01CF8A8060AD5FF
:1012F000B00608D521686FF0200008612046BDE8DF
:10130000F041FFF70EBFBDE8F08170477047000065
:1013100000680349884201D1FFF798BB704700007D
:10132000000800407047704770470000F8B501683A
:1013300004460868CA684B6910F00F0F4FF00005AB
:1013400059D003F0010602F49077374365D0C10706
:1013500005D0D10503D5616C41F0010161644107FD
:1013600005D5D90703D0616C41F0020161648107A2
:1013700005D5D90703D0616C41F004016164010710
:1013800007D502F02001314303D0616C41F0080120
:101390006164616C00293AD0800604D5900602D5BC
:1013A000204600F0F1FB20684069616CC0F38010BA
:1013B000090700D460B3204600F0B1FB2068406903
:1013C000400621D52068143050E8001F21F040016C
:1013D00040E80012002AF5D1E06BA8B16D494163E5
:1013E000E06BFFF7D3F8002811D0E06B416B01B040
:1013F000BDE8F040084783060FD593060DD520467B
:10140000BDE8F84000F0C0BB2046FFF78DFFF8BDF7
:101410002046FFF789FF6564F8BD266B2023012E67
:101420007CD1C6067AD5D60678D50868486800907B
:1014300048694FF00206400640D5E16B08684068F5
:101440000004000CE8D0A28D8242E5D9E0858869CD
:1014500020282DD020680C3050E8001F21F4807126
:1014600040E80012002AF5D12068143050E8001F2F
:1014700021F0010140E80012002AF5D12068143063
:1014800050E8001F21F0400140E80012002AF5D189
:1014900084F84230256320680C3050E8001F21F0AA
:1014A000100140E80012002AF5D1E06BFFF74AF87E
:1014B0006663A08DE18D401A81B22AE0A08DE18D96
:1014C000401A81B2E08D0028A6D00029A4D022685D
:1014D0000C3252E8000F20F4907042E80007002F11
:1014E000F5D12068143050E8002F22F0010240E8C6
:1014F0000027002FF5D184F84230256320680C3096
:1015000050E8002F22F0100240E80023002BF5D114
:1015100066632046FFF707FFF8BDFFE705062BD5FA
:10152000150629D594F841002128F5D1A068B0F519
:10153000805F01D12069B0B1206A411C216221681D
:1015400000784860E08C401E0004000CE084E3D189
:101550002068C16821F08001C1602068C16841F045
:101560004001C160D8E7206A0088C0F308004860E5
:10157000206A801C2062E5E74006CDD55006CBD519
:10158000CA68204622F04002CA6084F8413000F068
:1015900013F9C1E7791A000870B5040004D094F873
:1015A0004100002510B106E0012070BD84F84050D4
:1015B000204600F023F8242084F841002068C16808
:1015C00021F40051C160204600F040FB2068016911
:1015D00021F4904101612068416921F02A014161B3
:1015E0002068C16841F40051C1606564202084F81E
:1015F000410084F842006563002070BD2DE9F0438E
:1016000085B0002400940194029403940646DFF808
:1016100014C10368444802210322444D10274FF0AF
:1016200080084FF48059634538D1836943F480437F
:101630008361836903F480430493836943F0040363
:1016400083618069039200F0040004900802CDE9F0
:10165000000169462846FFF7F5F82815CDE9000492
:10166000694628460294FFF7EDF8324D304828606D
:10167000C5E90174C5E903846C61C5E906492846DA
:10168000FFF77AF808B1FEF75BFFB563002205218A
:1016900025206E62FFF772FA25203DE0DFF898C042
:1016A00063453BD1C36943F40033C361C36903F4A9
:1016B00000330493836943F00403836180690392D8
:1016C00000F0040004900420CDE90001694628469A
:1016D000FFF7B8F80820CDE90004694628460294CF
:1016E000FFF7B0F8134D124844353C302860C5E987
:1016F0000174C5E903846C61C5E906492846FFF712
:101700003BF808B1FEF71CFFB56300220521262037
:101710006E62FFF733FA2620FFF722FA05B0BDE824
:10172000F083000000380140001002400008014032
:101730004400024064010020004400407047000063
:1017400070B5044690F84100202801D0022070BDF9
:1017500049B342B32162A284E28400206064212361
:1017600084F84130A56B114BAB62A56B104BEB625B
:10177000A56B104B2B63A36B5863256813462A1D7A
:10178000A06BFFF727F821686FF040000860206821
:10179000143050E8001F41F0800140E80012002A98
:1017A000F5D1002070BD012070BD0000D31A0008E3
:1017B000151B0008891A000870B50446006809491D
:1017C000094D884203D141142846FFF72BF90749F8
:1017D0002068884205D101142846BDE87040FFF713
:1017E00021B970BD003801400010014000440040A4
:1017F0007047FEE70D4808B5416941F001014161BC
:101800004069002200F00100009005210E20FFF742
:10181000B5F90E20FFF7A4F9002205211120FFF7EA
:10182000ADF9BDE808401120FFF79AB90010024059
:1018300010B5044A0021044800F0D0FA03490860BA
:1018400010BD0000DC340008391900080000002039
:1018500070B586B000241848009401940294039453
:10186000816941F010018161816901F010010491E9
:10187000816941F020018161816901F020010491B9
:10188000816941F00401816180690C4E00F004001F
:101890004FF4C0450490012229463046FFF7CAF8AC
:1018A00001200095CDE901040220039069463046ED
:1018B000FEF7C8FF06B070BD0010024000100140E6
:1018C0000C4810B50A4901604FF4E1314160002134
:1018D00081600C22C160C0E904128161C161FFF71F
:1018E0005BFE002803D0BDE81040FEF729BE10BD06
:1018F00000380140D40000200C4810B50A490160AE
:101900004FF4E1314160002181600C22C160C0E9E7
:1019100004128161C161FFF73FFE002803D0BDE8DA
:101920001040FEF70DBE10BD004400401C01002019
:10193000FEE7FFF759FAFEE74FF4FA7406A10C48E8
:10194000FEF78EFC82B20A490A48FFF7F9FE2046EC
:1019500000F008FAF2E7000048656C6C6F204672F0
:10196000656552544F53202B20444D41210D0A00F0
:1019700094000020D400002010B54FF0E020006952
:1019800001F0F6FB012803D0BDE8104001F024B9B6
:1019900010BD30B58FB028216846FEF7C4FC142175
:1019A0000AA8FEF7C0FC01210804CDE900100024BC
:1019B000029402250491CDE907504FF4E0100990FC
:1019C0006846FFF71DFA08B172B6FEE70F20CDE9B1
:1019D0000A054FF48060CDE90C4002210AA80E945C
:1019E000FFF700F908B172B6FEE7FFF791F90FB003
:1019F00030BD70470148FFF7F0BB0000EC0100204C
:101A0000F0B50268194B1A4C1A4D4FF080479842B6
:101A100005D0B84203D0A04201D0A84203D122F0A1
:101A200070064A683243984205D0B84203D0A042BB
:101A300001D0A84203D122F44074CA6822434C6901
:101A400022F08002224302608A68C2620A688262CF
:101A5000984201D109690163012141610169C90706
:101A600003D0016921F001010161F0BD002C0140AA
:101A7000000400400008004010B5406A0021C18504
:101A8000C184FFF751FC10BD70B5446A20684069FD
:101A900094F84110C0F3C0100025212904D118B1D9
:101AA000E584204600F062F82068406994F842100E
:101AB000C0F38010222904D118B1E585204600F03A
:101AC0002EF8606C40F0100060642046FFF72CFC9C
:101AD00070BD10B50146406A09680968890616D4C8
:101AE0000021C1840168143151E8002F22F08002E6
:101AF00041E80023002BF5D101680C3151E8002F9B
:101B000042F0400241E80023002BF5D110BDFFF761
:101B100053FE10BD10B5406AFFF76AFE10BD0168A4
:101B20000C3151E8002F22F4907241E80023002B81
:101B3000F5D10168143151E8002F22F0010241E88B
:101B40000023002BF5D1016B012909D101680C316B
:101B500051E8002F22F0100241E80023002BF5D1BC
:101B6000202180F8421000210163704701680C3188
:101B700051E8002F22F0C00241E80023002BF5D1EC
:101B8000202180F84110704708B590F842102229B2
:101B900001D0022008BD82684FF480539A4201D1DF
:101BA000016921B1816A9A421BD04AB10AE00268F8
:101BB000816A5268C2F308020A80816A891C08E0BF
:101BC000026972B10268526802F07F020A70816A8B
:101BD000491C8162C18D491E0904090CC18503D0CD
:101BE0001BE002685268F1E70168CA6822F020022F
:101BF000CA600168CA6822F48072CA6001684A69D2
:101C000022F001024A61202180F842100021416344
:101C1000026B012A03D0FFF791FD002008BD01638C
:101C200001680C3151E8002F22F0100241E8002336
:101C3000002BF5D101680A68D20602D50A68496806
:101C40000091818DFFF76FFBE7E7000070B5044658
:101C500000680169E26821F4405111430161216982
:101C6000A0680843616908432168CA6841F20C63AF
:101C70009A430243CA6020684169A26921F4407115
:101C8000114341611E492068884202D1FFF776F86E
:101C900001E0FFF763F800EBC00101EB00126068A0
:101CA00064218000B2FBF0F3B3FBF1F36FF0180690
:101CB0007343B2FBF0F5B2FBF0F605EB830532237C
:101CC00003EB0515B5FBF1F5B6FBF1F605F0F005F4
:101CD00005EB0615B2FBF0F6B2FBF0F0B0FBF1F04D
:101CE0006FF01802504306EB800003EB0010B0FBCE
:101CF000F1F0216800F00F002844886070BD0000FA
:101D0000003801400148FFF711BB0000D40000205B
:101D10000148FFF70BBB00001C010020FEE709078C
:101D2000090E002804DB00F1E02080F80014704761
:101D300000F00F0000F1E02080F8141D7047FEF75E
:101D40008DFEFFF726FEFFF783FDFFF753FDFFF73C
:101D5000B7FDFFF7D1FD00F013F8FFF769FD00F0C4
:101D600021F8FEE710B5EFF3058111B16FF005041E
:101D700003E0002408B100F0F5FD204610BD00008E
:101D8000EFF3058010B16FF005007047044801685B
:101D900011B14FF0FF307047012101600020704702
:101DA0006400002010B5EFF3058010B16FF005005E
:101DB00010BD08480168012902D04FF0FF3010BD66
:101DC000054A002182F8141D0221016000F032FE54
:101DD000002010BD640000200BE000E02DE9FF4171
:101DE0004FEA01034FF00005EFF30581039549BB6E
:101DF00040B38027182100244AB3166806B1344640
:101E000096691EB13146761E382E02D21679F60733
:101E100003D0002004B0BDE8F081566906B1B708D0
:101E2000D2F808C0BCF1000F0DD0D5685C2D18D3D6
:101E300012693AB136B18DE806103A46214601F0F2
:101E40006CF903900DE0D6685EB912694AB903AA2D
:101E5000CDE90012BAB2214601F032F9012800D0D2
:101E600003950398D6E700002DE9F041134C0F4687
:101E70000546E6682068001D00F040FC681C07D19C
:101E800037B12168BDE8F0410D48091D00F086BC5E
:101E900020683544B5424560216805D2A06BBDE895
:101EA000F041091D00F062BC606B091D00F05EFC92
:101EB000A06A854200D2A562BDE8F081140000202E
:101EC000240700202DE9F041054600F073FC2D4C5D
:101ED000A068401CA06020682B4F10B1606930B32F
:101EE0002BE02560A068012827D1002606EB86009C
:101EF00007EB800000F02CFC761C382EF6D323482C
:101F000000F026FC2148143000F022FC1F48283045
:101F100000F01EFC1D483C3000F01AFC1B485030FD
:101F200000F016FC194860631430A06305E02068D7
:101F3000E96AC06A884200D82560606A401C606215
:101F40006864E86A2169884200D9206100EB80005A
:101F500007EB8000291D00F021FC00F04BFC6069BC
:101F600000280CD02068E96AC06A884207D2084974
:101F70004FF080500860BFF34F8FBFF36F8FBDE805
:101F8000F08100001400002074020020D40600201C
:101F900004ED00E038B500F00DFC104C2068C8B925
:101FA0000F4800F0D5FB0E48143000F0D1FB0C4870
:101FB000E060143020610A4B0020F03B009003F1F8
:101FC000500210210A2000F01DFE206010B105A172
:101FD00000F092FCBDE8384000F00CBC500000203E
:101FE00028080020546D72510000000030B4026CCB
:101FF0000B46002A0BD0C1681144C1608468A1421D
:1020000001D30168C16030BC1846FEF73FB930BC4F
:1020100070472DE9F041856B174604460026026C97
:1020200082B1C7B1E068FEF731F9E168206C091AA6
:10203000E1602268914202D2A168081AE060022F92
:1020400016D017E02068A8B9A06801F009F9064683
:102050000020A0600EE06068FEF718F9216C60684F
:1020600008446060A168884204D32068606001E091
:1020700005B16D1E6D1CA5633046BDE8F08110B53D
:10208000044690F8590058B101280CD002280FD00E
:10209000502080F31188BFF34F8FBFF36F8FFEE79F
:1020A000206B00F0BBFB2046BDE8104000F0B6BB43
:1020B00010BD000010484FF44061420706D0C01D1B
:1020C0000D4920F00700411AC1F540610B4A002379
:1020D0000144C2E900030839183A21F007011160F0
:1020E0004B600B600B1AC0E9001393604FF0004087
:1020F0005360506170470000080F002080000020EE
:10210000144E154CA6F29C474FF08058DFF84C90C7
:1021100012E000BF00F04EFBF068C568281D00F01B
:10212000EDFAA068401EA0606068401E606000F08C
:1021300061FB2846FFF7A3FF60680028EAD13868F2
:102140000128F9D9C9F80080BFF34F8FBFF36F8F13
:10215000F2E70000100700201400002004ED00E06A
:1021600070B51D46049C51B1C4F80020C4E90F01AC
:102170000121204600F07AFD84F84C5070BD2460A7
:10218000F4E700002DE9F05F8846DDE90B94154681
:10219000834691009A460A9EA522206BFEF7BBF863
:1021A0006FF00301206B01EB8501084420F0070765
:1021B000780707D0502080F31188BFF34F8FBFF30B
:1021C0006F8FFEE70025B8F1000F0FD05FF0000021
:1021D000221818F8001082F8341018F8001011B105
:1021E000401C1028F4D384F8435001E084F83450A4
:1021F000382E00D33726E662C4E91365201D00F0AF
:10220000B2FA04F1180000F0AEFA2461C6F1380009
:102210006462A061656584F8585052465946384654
:1022200000F05AFA2060B9F1000F01D0C9F800405F
:10223000BDE8F09F30B5114900E011460A688242BE
:10224000FBD34B685C18844203D140681844486053
:10225000084643681C18944209D1084C183C24686D
:10226000A24209D052681A4442600A6812680260A9
:10227000814200D0086030BD0460F9E78000002092
:1022800070B5002441600B4D0061914206D8D11A0F
:102290008269914206D2011D286907E09A4203D261
:1022A000994201D3012403E0011DE86800F05EFAC1
:1022B000204670BD5000002010B5044600F07AFAA8
:1022C000A06B28B15FF0000400F094FA204610BD26
:1022D0000124F9E730B589B03C4D6EE00498002840
:1022E00006DADDE90601059A90470498002864DBC8
:1022F000069C606910B1201D00F000FA03A800F0F0
:10230000D7F8024604980A2857D2DFE800F00505FE
:10231000052D334A05052D3394F8280040F00100BF
:1023200084F828000599A069059B01442046FFF721
:10233000A7FF68B3216A2046884794F82800400721
:102340003BD5002000900598A1690023421819464A
:10235000204601F08FF8D8B9502080F31188BFF3E0
:102360004F8FBFF36F8FFEE714F8280F20F00100A6
:10237000207022E094F8280040F0010084F8280042
:102380000598A06128B1811813462046FFF778FF11
:1023900013E0502080F31188BFF34F8FBFF36F8F8E
:1023A000FEE794F82800810703D4204600F036FAAF
:1023B00003E020F0010084F82800002204A9286826
:1023C00000F0A8FD002889D109B030BD50000020E0
:1023D0002DE9FC410F46054600F070FB01A800F016
:1023E00067F80446019818B100F0B2FFBDE8FC811F
:1023F000254EAFB130690068D0B30027291B3A469B
:10240000306800F08DFA00F0A3FF0028EED11F49DC
:102410004FF080500860BFF34F8FBFF36F8FE5E739
:10242000A542EBD800F094FFF0682746C068C46866
:10243000201D00F063F994F82800410719D5A06920
:102440002B4641193A462046FFF71AFFA8B1002053
:102450000346014600902A46204601F00BF860B979
:10246000502080F31188BFF34F8FBFF36F8FFEE7CB
:1024700007E020F0010084F82800216A2046884700
:10248000B4E70127BAE700005000002004ED00E0A7
:102490000648416B096829B1416BC968C968496838
:1024A000816270474FF0FF31FAE70000140000200E
:1024B00070B5054600F06AFE064E0446B0688442D8
:1024C00003D200F009F8012000E000202860204637
:1024D000B46070BD50000020F8B5194D20E0C06810
:1024E000C4680668201D00F009F9216A2046884763
:1024F00094F82800400713D5A0693044B04206D9AB
:1025000024616060211DE86800F030F908E00020D7
:102510000346014600903246204600F0ABFF38B13A
:10252000E86801680029DAD12969C5E90310F8BD16
:10253000502080F31188BFF34F8FBFF36F8FFEE7FA
:102540005000002008484068401C4FF0500080F3C5
:10255000118804D0BFF34F8FBFF36F8FFEE7BFF337
:102560004F8FBFF36F8FFEE788000020074CE068B5
:10257000016841B1C0680021D0F80000FFF728FFD2
:10258000FFF7A8FEF3E701210020F7E75000002045
:102590002DE9F041044600F00DF994F9455004F19D
:1025A000240609E0606A48B1304600F099FE08B19F
:1025B00000F006FA6D1E6DB2002DF3DC4FF0FF3611
:1025C00084F8456000F016F900F0F4F894F94450EE
:1025D00004F1100709E0206948B1384600F080FE98
:1025E00008B100F0EDF96D1E6DB2002DF3DC84F83A
:1025F0004460BDE8F04100F0FDB800002DE9F04175
:102600000546002700F05AFA324E306808B9FFF745
:1026100051FD706905424ED1C5B3083568070ED02B
:1026200005F00700C0F108000544680707D05020F6
:1026300080F31188BFF34F8FBFF36F8FFEE72DB389
:102640007068854237D82348183001460C6801E08D
:1026500020460C466168A94202D221680029F7D1C0
:1026600031688C4227D007682168016060680837AC
:10267000411B10290FD96019420708D0502080F360
:102680001188BFF34F8FBFF36F8FFEE713E04160F8
:102690006560FFF7CFFD61687068401A7060B268CE
:1026A000904200D2B060706901430020C4E900018B
:1026B000F068401CF06000F04BFE780707D0502017
:1026C00080F31188BFF34F8FBFF36F8FFEE738465B
:1026D000BDE8F0816800002010B5031F4FF0807442
:1026E0001C601B1F21F001011960191F024B0B60B8
:1026F000143940380A6010BD45250008D0E9013280
:1027000001699A60D0E901235A604A68824201D186
:1027100082684A60002202610868401E08600868FA
:1027200070470000034B036003F15C0008608020E9
:102730001060704750080020044B036003F15C00F8
:1027400008604FF48070106070470000AC0A0020F1
:1027500000F108014FF0FF32C0E90112C1600161D0
:1027600000210160704700210161704730B50B689E
:102770005A1C02D000F1080202E0026904E022467D
:10278000546825689D42FAD953684B6099608A6005
:10279000516008610168491C016030BD42684A60AF
:1027A00093688B6093685960916008610168491C67
:1027B00001607047502080F31188BFF34F8FBFF343
:1027C0006F8F0A494868401C486001280CD10848AE
:1027D000006810F0FF0F07D0502080F31188BFF37E
:1027E0004F8FBFF36F8FFEE7704700008800002017
:1027F00004ED00E00849486828B1401E486001D156
:1028000080F311887047502080F31188BFF34F8FF9
:10281000BFF36F8FFEE700008800002070B500282E
:102820002AD0164DA0F1080460686969084207D1F2
:10283000502080F31188BFF34F8FBFF36F8FFEE7F7
:1028400022683AB1502080F31188BFF34F8FBFF355
:102850006F8FFEE78843606000F030F96068696858
:10286000084468602046FFF7E5FC2869401C2861A1
:10287000BDE8704000F06CBD70BD00006800002035
:102880004FF0E02000210161816105494FF47A7227
:102890000968B1FBF2F1491E4161072101617047EE
:1028A0001000002010B5FDF7B7FC114910280ED319
:1028B00000F1E02090F8F0030A78904207D250200F
:1028C00080F31188BFF34F8FBFF36F8FFEE7094886
:1028D0000068896800F4E060884207D9502080F3DE
:1028E0001188BFF34F8FBFF36F8FFEE710BD00005D
:1028F000880000200CED00E010B5084B002200BF5E
:1029000053F832401CB1521C082AF9D310BD43F8C9
:10291000321003EBC201486010BD000034020020F9
:1029200070B515460E460446FFF744FF94F944106F
:102930000020491C01D184F8440094F94510491C39
:1029400001D184F84500FFF755FFA06B28B92A464E
:10295000314604F1240000F051F82046BDE87040F3
:10296000FFF716BE10B5020014D00F48006B38B147
:10297000502080F31188BFF34F8FBFF36F8FFEE7B6
:1029800000F09CF800211046FFF76EFA00F0E0FC22
:10299000002807D105494FF080500860BFF34F8FE2
:1029A000BFF36F8F10BD00001400002004ED00E0A5
:1029B00002490A6A0260C968416070471400002039
:1029C00001490120C86170471400002010B50C4671
:1029D00050B1094909681831FFF7C8FE2046BDE823
:1029E00010400121FFF740BA502080F31188BFF357
:1029F0004F8FBFF36F8FFEE71400002070B51446B1
:102A00000D4668B10A4909681831FFF7C7FE0CB1D5
:102A10004FF0FF3521462846BDE87040FFF724BA45
:102A2000502080F31188BFF34F8FBFF36F8FFEE705
:102A30001400002030B587B00024039405AA04A92F
:102A400003A80494FFF76EFEDDE903010094CDE9CD
:102A50000110002315A11748059A00F05EFB164DE2
:102A60000028E8621FD000F0D5FC012809D0401CE6
:102A700019D1502080F31188BFF34F8FBFF36F8FB0
:102A8000FEE7502080F31188BFF34F8FBFF36F8FA5
:102A90004FF0FF30A86201206861EC6007B0BDE82C
:102AA000304000F045B807B030BD000049444C4507
:102AB0000000000001210008140000200248016B02
:102AC000491C01637047000014000020164810B52F
:102AD000016B11B10121C16110BD0021C16101690A
:102AE000124A01E0B9B1491E01EB810352F82330CB
:102AF000002BF7D001EB810302EB830202F1080403
:102B000053685B685360A34201D15B685360DA6825
:102B10000260016110BD502080F31188BFF34F8F18
:102B2000BFF36F8FFEE70000140000207402002046
:102B30001CB5264908780190FF20087008788DF8A8
:102B400000009DF800009DF8002000F0F000904289
:102B500007D0502080F31188BFF34F8FBFF36F8FE2
:102B6000FEE79DF800001A4C00F05000207007208E
:102B7000A06005E09DF8002052008DF80020401E66
:102B80009DF800201206F5D4A060032807D050203D
:102B900080F31188BFF34F8FBFF36F8FFEE74FF4C1
:102BA0004070A060019808700A48016841F4700103
:102BB0000160016841F070410160FFF761FE002093
:102BC0006060FDF7F3FA00201CBD000000E400E0A7
:102BD0008800002020ED00E010B5502080F311881F
:102BE000BFF34F8FBFF36F8F00F0D6FA18B10449CF
:102BF0004FF080500860002080F3118810BD000065
:102C000004ED00E038B5049D18B153B1CAB181B1EB
:102C100020E0502080F31188BFF34F8FBFF36F8FF8
:102C2000FEE7502080F31188BFF34F8FBFF36F8F03
:102C3000FEE7502080F31188BFF34F8FBFF36F8FF3
:102C4000FEE739B1502080F31188BFF34F8FBFF3F7
:102C50006F8FFEE750241C46012384F846302B4634
:102C60000094FFF77DFA204638BD000070B50D4690
:102C7000040025D0FFF79EFDD4E90F20216802FB58
:102C80000011A1600021A163216861600A46D4E9B6
:102C90000F01401E00FB0121E16021464FF0FF3093
:102CA00001F8440F487004F110008DB1FFF750FD9A
:102CB00004F12400FFF74CFDFFF79CFD012070BDDF
:102CC000502080F31188BFF34F8FBFF36F8FFEE763
:102CD00021690029F0D000F003FB0028ECD0044962
:102CE0004FF080500860BFF34F8FBFF36F8FE3E763
:102CF00004ED00E02DE9FF4782B01D468A464FF003
:102D00000008040003D0BAF1000F08D011E05020F1
:102D100080F31188BFF34F8FBFF36F8FFEE7206CF6
:102D200038B1502080F31188BFF34F8FBFF36F8FFE
:102D3000FEE7022D0AD1E06B012807D0502080F376
:102D40001188BFF34F8FBFF36F8FFEE700F010FACB
:102D50003F4F4FF000094FF0805648B9049838B102
:102D6000502080F31188BFF34F8FBFF36F8FFEE7C2
:102D7000FFF720FDA06BE16B884207D3022D05D041
:102D80000498D0B1B8F1000F1AD01EE02A4651467F
:102D90002046FFF73EF9616A19B104F1240000F002
:102DA0009FFA20B13E60BFF34F8FBFF36F8FFFF7E5
:102DB00021FD012006B0BDE8F087FFF71BFD22E0F2
:102DC0006846FFF7F5FD4FF00108FFF713FDFFF729
:102DD00075FEFFF7EFFC94F94400401C01D184F824
:102DE000449094F94500401C01D184F84590FFF7C8
:102DF00001FD04A9684600F029F930B12046FFF72B
:102E0000C7FB00F0A5FA0020D4E7FFF7D3FCA06BC6
:102E1000E16B884213D1FFF7EDFC04F11000049937
:102E2000FFF7D4FD2046FFF7B3FB00F091FA00282E
:102E30009ED13E60BFF34F8FBFF36F8F98E7FFF7D0
:102E4000D9FC2046FFF7A4FB00F082FA90E70000CF
:102E500004ED00E02DE9F0471F4690468946040046
:102E600003D0B9F1000F08D011E0502080F3118891
:102E7000BFF34F8FBFF36F8FFEE7206C38B1502048
:102E800080F31188BFF34F8FBFF36F8FFEE7022FE0
:102E90000AD1E06B012807D0502080F31188BFF3DE
:102EA0004F8FBFF36F8FFEE7FFF7FCFC5020EFF36F
:102EB000118680F31188BFF34F8FBFF36F8FA06B24
:102EC000E16B884206D3022F04D0002086F31188DC
:102ED000BDE8F08794F94550A06B3A464946204634
:102EE000FFF797F8681C04D06D1C84F8455001204A
:102EF000ECE7606A0028FAD004F1240000F0F0F951
:102F00000028F4D0B8F1000FF1D00121C8F800106A
:102F1000EDE700002DE9F747002683B08A4604005C
:102F200003D0BAF1000F08D011E0502080F31188CF
:102F3000BFF34F8FBFF36F8FFEE7206C38B1502087
:102F400080F31188BFF34F8FBFF36F8FFEE700F060
:102F50000FF9DFF8F4804FF000094FF0805748B9BF
:102F6000059838B1502080F31188BFF34F8FBFF31D
:102F70006F8FFEE7FFF71EFCA56BC5B151462046DB
:102F8000FFF734F86D1EA563206950B104F11000FD
:102F900000F0A6F928B1C8F80070BFF34F8FBFF357
:102FA0006F8FFFF727FC012006B0BDE8F08705987A
:102FB00008B11EB106E0FFF71DFC27E06846FFF7E9
:102FC000F7FC0126FFF716FCFFF778FDFFF7F2FB91
:102FD00094F94400401C01D184F8449094F94500D0
:102FE000401C01D184F84590FFF704FC05A9684610
:102FF00000F02CF8002820460AD0FFF7C9FA00F0AC
:10300000A7F92046FFF758F90028B3D00020CBE7F6
:10301000FFF752F990B104F124000599FFF7D6FCAF
:103020002046FFF7B5FA00F093F90028A2D1C8F8BE
:103030000070BFF34F8FBFF36F8F9BE72046FFF702
:10304000A7FA00F085F995E704ED00E02DE9F041DD
:103050000C46050011D0C4B1FFF7ACFB174BDA6882
:103060006E682068911B471C17D02F681B6A9F420F
:1030700019D0964217D8012410E0502080F311880F
:10308000BFF34F8FBFF36F8FFEE7502080F311889F
:10309000BFF34F8FBFF36F8FFEE70024FFF7AAFB4C
:1030A0002046BDE8F081884205D9401A20602846B4
:1030B000FFF77EFCF1E700202060DCE71400002031
:1030C0002DE9FF5F8346DDE90E87994616468A465D
:1030D0009000FFF793FA05001CD05C20FFF78EFAF2
:1030E000040014D00020256384F85900CDE9024083
:1030F000CDE900874B46324651465846FFF742F825
:103100002046FEF7DFFE012004B0BDE8F09F284610
:10311000FFF784FB4FF0FF30F6E7F0B585B0DDE94F
:103120000B640A9DA6B1DCB15C27009726630226DA
:1031300084F85960002604AFCDE90246CDE9005776
:10314000FFF720F82046FEF7BDFE049805B0F0BD5D
:10315000502080F31188BFF34F8FBFF36F8FFEE7CE
:10316000502080F31188BFF34F8FBFF36F8FFEE7BE
:103170000548416919B1006B18B100207047012062
:103180007047022070470000140000200148C0680A
:1031900070470000140000202DE9F0412E4C00275C
:1031A000206B28B1A069401CA0613846BDE8F081C1
:1031B000E668761CE66013D1606B006838B1502079
:1031C00080F31188BFF34F8FBFF36F8FFEE7606B03
:1031D000A16B6163A063206A401C2062FFF758F96D
:1031E000A06ADFF87880864209D3606B0068A0B1DE
:1031F000606BC068C5686868864211D2A0622068AA
:10320000C06A00EB800158F82100012800D901278D
:10321000E0690028C9D00127C7E74FF0FF30EDE78C
:10322000281DFFF76BFAA86A18B105F11800FFF71F
:1032300065FAE86A2169884200D9206100EB8001C3
:1032400008EB8100291DFFF7A9FAE86A2168C96A1D
:103250008842CAD30127C8E7140000207402002066
:1032600070B504004FF0000133D01B4D2868844234
:1032700007D0502080F31188BFF34F8FBFF36F8FBB
:10328000FEE7206D38B1401E2065E36CE26A9A4289
:103290001FD040B11DE0502080F31188BFF34F8F45
:1032A000BFF36F8FFEE7201DFFF728FAE06CE062A6
:1032B000C0F13800A061E06A2969884200D928611C
:1032C000064900EB800001EB8000211DFFF766FA44
:1032D0000121084670BD0000140000207402002087
:1032E00070B5C068C46854B104F118000646FFF711
:1032F00005FA144D286B50B13146134815E05020A3
:1033000080F31188BFF34F8FBFF36F8FFEE7201D4F
:10331000FFF7F4F9E06A2969884200D928610B496E
:1033200000EB800001EB8000211DFFF737FAE06A17
:103330002968C96A884202D90120E86170BD00206D
:1033400070BD000014000020FC0600207402002064
:103350002DE9F0472C4D00242746286B38B1FFF7A4
:1033600029FA286B401E2863286B40B146E05020A4
:1033700080F31188BFF34F8FBFF36F8FFEE7A9680B
:10338000224E0120D1B3A6F5916980463068E0B1A4
:10339000F068C46804F11800FFF7B0F9201DFFF7CA
:1033A000ADF9E06A2969884200D9286100EB800103
:1033B00009EB8100211DFFF7F1F9E06A2968C96A6C
:1033C0008842E3D3C5F81C80E0E70CB1FFF760F852
:1033D000AC694CB14FEA0806FFF7DEFE00B1EE61C2
:1033E000641EF9D10020A861E86938B108490127B5
:1033F00038070860BFF34F8FBFF36F8FFFF7FAF9FD
:103400003846BDE8F087000014000020FC060020CC
:1034100004ED00E010B586B0FEF7BCFD114C20684D
:10342000B8B100200390049005AA04A903A8FFF7EF
:1034300083F9DDE9032102208DE8070000230AA1BA
:103440000B48059AFFF769FE606010B106B00120D5
:1034500010BD502080F31188BFF34F8FBFF36F8FE3
:10346000FEE7000050000020546D72205376630088
:103470006D2500082DE9FF411E46134602000A9DF6
:103480004FF0000016D0144C2768002F0FD0CDE964
:1034900000130292062917DAFFF76AFE02284FF09E
:1034A00000030FD0002269462068FFF723FC04B018
:1034B000BDE8F081502080F31188BFF34F8FBFF338
:1034C0006F8FFEE72A46EEE700233246694638460C
:1034D000FFF7C0FCEBE70000500000202C3500088F
:1034E00000000000000000000000000000000000DC
:1034F00000020000180000000000000000000000B2
:10350000010202030405060708090A0B0C0D0E0F41
:103510001010000000000000000001020304060774
:103520000809000000000102030400005461736BED
:103530000000000054350008000000209400000046
:1035400028010008E835000894000020D42000007D
:10355000440100080000000001000000100000000D
:103560000000000000127A000000000000000000CF
:10357000000000000000000000000000000000004B
:10358000000000000000000000000000000000003B
:10359000000000000000000000000000000000002B
:1035A000000000000000000000000000000000001B
:1035B000000000000000000000000000000000000B
:1035C00000000000000000000000000000000000FB
:1035D00000000000000000000000000000000000EB
:0835E000AAAAAAAA000000003B
:04000005080000ED02
:00000001FF
